:020000040800F2
:10000000F09D0020210300084DA300088D88000802
:1000100039A10008C51F0008751001080000000084
:10002000000000000000000000000000B102010814
:100030000138000800000000B1A600083D030108D7
:100040003B0300083B0300083B0300083B03000898
:100050003B0300083B0300083B0300083B03000888
:100060003B0300083B030008393800083B03000845
:10007000352500083B0300083B0300083B0300084C
:100080003B0300083B0300083B0300083B03000858
:10009000C91F00083B0300083B030008453800085F
:1000A0003B0300083B0300083B0300083B03000838
:1000B00049040108790401088D0401083B03000884
:1000C0003B0300083B0300083B0300083B03000818
:1000D0003B0300083B0300083B030008250E010812
:1000E0003B0300083B0300083B0300083B030008F8
:1000F0003B0300083B0300083B0300083B030008E8
:100100003B0300083B0300083B0300083B030008D7
:100110003B0300083B030008A1040108B5040108E3
:100120004525000819360008293600083936000828
:100130003B0300083B0300083B0300083B030008A7
:10014000D91F00083B0300083B0300083B030008DD
:100150003B0300084936000859360008590F0108CA
:100160003B0300083B0300083B0300083B03000877
:100170003B0300083B0300083B03000800000000AD
:100180003B0300083B03000800F002F800F0B8F859
:1001900014A696E8000CB244B344DA4501D100F04D
:1001A000AFF8BAE80F000FA696E83000A5EB0405FB
:1001B00004EB0607AAEB0704A7F101074FEA1515A0
:1001C0004FEA3414A4F10104AC4201D300F098F8D2
:1001D00013F0010F18BFFB1A43F0010300F001F800
:1001E000DBE71847E8640100086501000A4410F8DD
:1001F000014B14F00F0508BF10F8015B240908BF7C
:1002000010F8014B6D1E05D010F8013B6D1E01F872
:10021000013BF9D1641E03D0641E01F8015BFBD1E0
:100220009142E4D37047000070470000002300248F
:1002300000250026103A28BF78C1FBD8520728BFF6
:1002400030C148BF0B6070476E2900F02F827029C3
:1002500000F07183662915F0B287652915F0AF8724
:10026000672915F0AC87612915F0AB8703681B0A75
:1002700028BF41F08001692900F0DC81642900F089
:10028000D981752900F0D6816F2900F0FF82782985
:1002900000F03D83E92900F09982E42900F096827C
:1002A000F52900F09382EF2900F0FC82F82900F094
:1002B0003C830368DB0928BF41F08001632901F01A
:1002C0007780732901F07C80E32901F08780F3298E
:1002D00001F08C80002070471FB515F05EFF01F023
:1002E000DBF804000020002115F0CCF9401C606010
:1002F0000020002115F0B0F9E0601FBD10B510BD61
:1003000001F09DF81146FFF7E7FF12F06FF901F0D9
:1003100079F903B4FFF7F2FF03BC01F07DF90000A7
:100320000948804709480047FEE7FEE7FEE7FEE789
:10033000FEE7FEE7FEE7FEE7FEE7FEE704480549C5
:10034000054A064B70470000350401088901000882
:10035000F05D0020F09D0020F07D0020F07D002069
:1003600053EA020C00F069802DE9F04B4FF00006D3
:10037000002B1FBFB3FA83F503FA05F424FA05F640
:100380005E4012BF1643B2FA82F502FA05F4C5F1D7
:1003900020051EBF22FA05FC44EA0C04203556EA6B
:1003A000044C4FEA144418BF641C4FF000084FF08F
:1003B0000009904271EB030C39D3002919BFB1FA3F
:1003C00081F701FA07F6B0FA80F700FA07F6C7F1ED
:1003D00020071EBF20FA07FC46EA0C062037B6FBB2
:1003E000F4FCA7EB0507103F07F01F0BCBF120062D
:1003F0002CFA06F60CFA0BFB44BFB3460026202F5E
:10040000A4BF5E464FF0000B5BEA060C08BF4FF03E
:10041000010B19EB0B0948EB0608ABFB027C06FB52
:1004200002CC0BFB03CCC01B71EB0C01C1E70B46EC
:10043000024641464846BDE8F08B13B5084318BF55
:100440004FF0FF300146AFF30080BDE81C4070471D
:100450000FB41CB5084B06AA7B446946009005986A
:1004600000F03DF904460020694600F04BF92046B3
:100470001CBC5DF814FB0000A9020000032A40F236
:10048000308010F0030C00F0158011F8013BBCF136
:10049000020F624498BF11F801CB00F8013B38BF4E
:1004A00011F8013BA2F1040298BF00F801CB38BF5C
:1004B00000F8013B11F0030300F00C83083AC0F090
:1004C000088051F8043B083A51F804CBA0E8081022
:1004D000F5E7121D5CBF51F8043B40F8043BAFF355
:1004E0000080D20724BF11F8013B11F801CB48BFAF
:1004F00011F8012B24BF00F8013B00F801CB48BFE5
:1005000000F8012B70474FF0000200B513469446E7
:100510009646203922BFA0E80C50A0E80C50B1F15B
:100520002001BFF4F7AF090728BFA0E80C5048BF6F
:100530000CC05DF804EB890028BF40F8042B08BF0D
:10054000704748BF20F8022B11F0804F18BF00F809
:10055000012B704770477047704710B500F0F0FAF4
:10056000006810BD10B5044600F0EAFA046010BD42
:1005700070B5044685690068C10601D5302600E0E3
:100580002026C00707D070BDD4E90121304690472E
:10059000206A401C20626D1EF6D570BD70B5044601
:1005A00085690078C00707D170BDD4E901212020FA
:1005B0009047206A401C20626D1EF6D570BD096808
:1005C0004A0501D540B27047C905FCD500B2704755
:1005D00009684A0501D5C0B27047C905FCD580B28B
:1005E000704770B50C460546012A05D0287880066C
:1005F00000D5EA69002302E0012305E05B1C934279
:1006000002D2E05C0028F9D1A869E618C01AA861F6
:10061000286A184428622846FFF7AAFF04E0D5E9B3
:10062000012114F8010B9047B442F8D32846FFF794
:10063000B5FF70BD2DE9F04106460024106875290C
:10064000314616A510D0FFF7BAFF002802DA404263
:1006500013A507E031688A0701D512A502E0490712
:1006600004D511A5012401E0FFF7B2FF00210A2201
:1006700006F1240709E0B0FBF2FCB0FBF2F302FB49
:100680001C00303078541846491C0028F3D123460A
:100690002A463046BDE8F04100F09BBA0000000059
:1006A0002D0000002B0000002000000011680268EF
:1006B000006A530501D508700AE0D30501D508800A
:1006C00006E0130603D5C217C1E9000200E0086086
:1006D0000120704701694A1C02610878704700B523
:1006E0008FB0CDE901310021059105497944CDE96B
:1006F00003101146684600F029F90FB000BD000054
:10070000E5FFFFFF0A6802F8010B0A60704700006E
:100710002DE9FF5F15468A460446DFF8AC80F844B1
:100720000027D8E900103E46CDE9001010E03AF865
:1007300016106A4602A800F05DFE411C07D0217821
:10074000890603D5E269391891420DD80744761C11
:100750002078800602D5E069B84205DDAE42E6DBCE
:100760003AF816000028E2D1A069C01BA06120461B
:10077000FFF7FEFED8E90010CDE90010002017E0D9
:100780003AF818106A4602A800F034FEB0F1FF3FB4
:1007900081460BD000250DF1080B05E0D4E90121BD
:1007A0001BF8050090476D1C4D45F7D308F101007B
:1007B000B0428046E4DB206A384420622046FFF7DE
:1007C000EDFEBDE8FF9F0000A65A01002DE9F041B3
:1007D0008046D21D22F007020025D2E90002F52949
:1007E00015A614D0011E72F1000106DA0023D0EB29
:1007F000030063EB020211A608E0D8F800108B0793
:1008000001D50FA602E0490701D50EA60125114624
:10081000002408F1240704E000F096F930323A553C
:10082000641C50EA0102F7D12B463246214640466D
:10083000BDE8F04100F0CDB9000000002D0000003F
:100840002B0000002000000030B4002100F124043F
:1008500008E002F00705D208303542EA4372DB08AF
:100860006554491C52EA0305F3D10468002310A221
:10087000250708D504F020040C4304D0C4690123E3
:100880000CA2641EC46130BC00F0A3B910B50446CC
:1008900021461068FFF79CFE02462046BDE8104046
:1008A0000023D1E7D21D22F00701D1E90023CBE7D5
:1008B0000000000030000000F0B40D46018809057A
:1008C00002D5214C7C4402E01F4C7C440E340021B4
:1008D00000F1240608E002F00F071209E75D42EA82
:1008E00003721B097754491C52EA0307F3D10278BB
:1008F0000023120704D5702D06D009B1022311344C
:100900002246F0BC00F065B901231034F8E770B559
:1009100004460D4621461068FFF75AFE0246294656
:100920002046BDE870400023C6E7D21D22F0070331
:10093000D3E90023C0E70368126843F02003036093
:100940000823C3610023B7E7085901002DE9F05FD0
:10095000894604464FF0000ADFF874B1FB44C0F842
:1009600020A02046E1688847002874D0252806D0BA
:10097000D4E901219047206A401C2062F1E700265B
:100980005F462046E16888472028054607DB312D71
:1009900005D2781910F8200C08B10643F1E7B0072A
:1009A00001D526F00406C4F81CA00027C4F818A03E
:1009B0002A2D09D0284614F029FE38B304EB870805
:1009C000303DC8F8185019E059F8041B204604EBD4
:1009D00087029161E1688847012F054618D1E069D7
:1009E000002820DA26F020061DE0D8F8180000EBD9
:1009F000800005EB40003038C8F818002046E16858
:100A00008847054614F002FE0028EED1012F0AD0D7
:100A10002E2D08D12046E16888477F1C0546022F0D
:100A200046F02006C4DBA069002803DA404246F005
:100A30000106A061F00701D026F010066C2D0BD046
:100A4000682D09D04C2D39D06A2D35D0742D35D074
:100A50007A2D33D016E038E0E1682F4620468847EB
:100A6000B842054609D16C2F26D04FF48060E1686A
:100A7000064320468847054604E06C2F1AD04FF401
:100A8000807006430DB3A5F14100192802D8203526
:100A900046F400664A462946204626604E46FFF741
:100AA000D3FB80B101280BD0F61D26F0070000F122
:100AB000080956E74020E4E78020D8E70020D6E781
:100AC00006F104094DE7284652E7206ABDE8F09F89
:100AD0009858010010B5203AC0F00B80B1E81850CA
:100AE000A0E81850B1E81850A0E81850203ABFF418
:100AF000F5AF5FEA027C24BFB1E81850A0E81850B7
:100B000044BF18C918C0BDE810405FEA827C24BF0A
:100B100051F8043B40F8043B08BF7047D20728BF98
:100B200031F8023B48BF11F8012B28BF20F8023BE7
:100B300048BF00F8012B7047004870473001002083
:100B4000004870473001002030B5B0F10A0271F161
:100B500000034FEA900E4EEA817EB0EB0E0061EB8F
:100B600091014FEA101E4EEA017E10EB0E0041EBA0
:100B700011114FEA102E4EEA016E10EB0E0041EB00
:100B800011214FEA104E4EEA014E10EB0E0041EBE0
:100B90001141401841F100014FEAD00040EA417094
:100BA0004FEAD1014FEA810444EA907410EB8005CA
:100BB00044EB01046D1944EB0404521BA3414FF0B4
:100BC000000348BF0A3200D530BD401C41F100018E
:100BD00030BD2DE9F0470D4699469246044600F196
:100BE00024080168880604D5E06921F0100121601D
:100BF00000E00120A84201DD471B00E00027A169B9
:100C00007A1902EB0900081AA0612078C00602D404
:100C10002046FFF7ADFC002608E0D4E901211AF8D0
:100C200006009047206A401C761C20624E45F4DB8B
:100C30002078C0060AD52046FFF79AFC06E0D4E9E2
:100C4000012130209047206A401C2062381EA7F105
:100C50000107F4DC07E0D4E9012118F8050090470A
:100C6000206A401C2062281EA5F10105F3DC204605
:100C7000FFF794FC2078000602D50220BDE8F0873B
:100C80000120FBE72DE9FF4F0C461E464FF0FF37D2
:100C90008BB0D2E90001DDF860800A908A46C1F38A
:100CA0000A5505B93D46002108464FF00000BAF14B
:100CB000000F00F4400005DA00EB80004FF4400123
:100CC00001EA50004FEA9059B9F1010F00DDB94631
:100CD0000A9850EA4A000ED044F61050A5F2FF35AB
:100CE00045432F14B8F1000F1ED07542291E1EDD9A
:100CF000C9F100021CE0B8F1010F4FF0000001D073
:100D0000302103E0F24305E02154401CB042FBDBFC
:100D100030460022002121540B99C1F80880C1E916
:100D200000200FB0BDE8F08FBD1B6D1CDEE74A460A
:100D300000DA694206A800F0F3FB06AB93E807006F
:100D400003AB83E8070050460A9913F02BFE8DE8A9
:100D50000700A0F500501F3800900398002D0ADD11
:100D600042F21F014A460844002303A90390684643
:100D700014F094F809E0A0F500504A461F3800230B
:100D800003A90390684614F09EF88DE8070000045C
:100D9000000C03D04FF0FF30410800E01046B8F1DE
:100DA000000F03D00022009215461EE0751E05D4E8
:100DB000FFF7CAFE303262556D1EF9D5B3460122E7
:100DC000084302D000227F1C04E02078302801D1A3
:100DD00000227F1E002A099784D01DE0112D07DA1A
:100DE000FFF7B2FE303262556D1C50EA0102F5D1B8
:100DF000084302D00098C8B10EE00021681E05E04B
:100E0000235C625C63542254401E491C8142F7DB20
:100E1000AB46A81B401E0990002004F80B000B985D
:100E2000099AC0F80880C0E9002B7AE711264FF034
:100E3000000857E72DE9F04F88460446D21D22F0FE
:100E4000070191B0D1E90001CDE90A0114F072F96E
:100E500002460B98C00F01D02D2007E020688107C3
:100E600001D52B2002E0202101EAC000032A0990CD
:100E700001D0072A05DB03464146204600F010FB5F
:100E80000BE12078800601D5E06900E00620B8F18A
:100E9000650F814606D0B8F1660F18D0B8F1670F1C
:100EA00070D131E00020B9F1110F009001DB112366
:100EB00001E009F101030AAA01A90CA8FFF7E2FE6B
:100EC000DDE90C70002609F10105834647E00120A9
:100ED0004B4600904FF000470AAA01A90CA8FFF763
:100EE000D1FEDDE90DB00C995D46002610B909F17F
:100EF00001000D18B9EB050003D4C0F1FF3609F16C
:100F00000105A5EB09002BE0B9F1010F01DA4FF063
:100F100001090020B9F1110F0090484601DD1123AD
:100F200000E003460AAA01A90CA8FFF7ABFEDDE921
:100F30000C704D4600268346207800070AD4AB4546
:100F400000DA5D4601A8012D04DD411911F8011CEC
:100F5000302907D04F4502DA17F1040F04DA0120D7
:100F600082460FE06D1EEEE7002F02DCED1B3E44D3
:100F700003E0781CA84200DD7D1CB81B00F1010ACB
:100F80004FF000472078000703D4AA4501DB4FF05B
:100F9000FF3A0021B7F1004F0DF143088DF84310DF
:100FA00024D002202B23002F01DA7F422D230A2197
:100FB000021EA0F1010000DC5FB197FBF1FC97FB82
:100FC000F1F201FB1C7C17460CF1300C08F801CD46
:100FD000EEE7A8F1010003702188090501D545213C
:100FE00000E06521A0F1010800F8011C09980FA993
:100FF000A1EB0807FF1D00B10120411901EBEA70C8
:10100000A1693844081A401EA0612078C00602D4A5
:101010002046FFF7ADFA099828B1D4E9012190479D
:10102000206A401C20622078C00622D52046FFF7A7
:101030009FFA1EE0002E04DBB34502DD01A8805DAF
:1010400000E03020D4E901219047206A401C206252
:10105000761CAAF101005FEA000A0AD100F01CFA2E
:10106000C0680168405CD4E901219047206A401CB7
:101070002062281EA5F10105DCDC07E0D4E901218E
:1010800018F8010B9047206A401C2062381EA7F117
:101090000107F3DC2046FFF781FA032011B041E697
:1010A0002DE9F04F04460D46D21D22F0070089B00D
:1010B000D0E900974846394614F03CF80246F80F4C
:1010C00001D02D2307E02068810701D52B2302E002
:1010D000202101EAC0038DF820300BB1012000E08F
:1010E0000020032A824601D0072A04DB2946204635
:1010F00000F0D6F93FE12078800601D40D2500E00C
:10110000E569C7F30A560D2D49DA00214FEA175B4E
:1011100008464FF00000002F00F4400007DA00EB13
:1011200080004FF4400100EBD07001EA60008115AF
:10113000012901DD4FF0FF3100224FEA850CBCF19F
:10114000180F06D31346ACF118004FF08052C2407E
:1011500003E04FF4801323FA0CF30CF10C0CBCF1F8
:10116000200F04D3ACF1200C09FA0CF001E007FACF
:101170000CF000294FF0004801DD18B90FE00ED146
:1011800040450CD319EB02095F4121B9404502D11A
:101190009F4329EA0209BBEB175F00D0761C208829
:1011A000000502D57B48784402E07A487844193833
:1011B00008AA302302F80A30037C0AF10101002E4C
:1011C0000AF1020A53546A4602DC4FF0300101E092
:1011D0004FF031014FF001088DF8001002D0A6F257
:1011E000FF3603E059EA470100D06B4E002D02DCC8
:1011F0002178090704D54FF002082E218DF801103F
:10120000C44600210BE0C7F303433F01C35C491C04
:101210006D1E02F80830052908F1010801DA002DD9
:10122000F1DC00210CE000EB1973491C1B786D1EEA
:10123000082902F808304FEA091908F1010801DA13
:10124000002DF0DC21688B0602D516E0A8F101081C
:10125000E04505DD02EB080313F8013C302BF5D027
:10126000B8F1000F09DD02EB080313F8013C2E2B47
:1012700003D1090701D4A8F10108002D05DD3E21A5
:1012800002F808106D1E08F10108407C002E02F8DB
:10129000080008F1010804DA2D20764202F808005F
:1012A00002E02B2002F808000A214FF47A708642EF
:1012B00008F101080BDB96FBF0F3303302F808303D
:1012C00096FBF0F308F1010800FB136601E0642EC1
:1012D0000CDB642096FBF0F3303302F8083096FB09
:1012E000F0F308F1010800FB136601E00A2E06DBAB
:1012F00096FBF1F0303002F8080008F1010896FB87
:10130000F1F001FB1060303002F80800A16908F12B
:10131000010808EB050202EB0A00081AA061207818
:10132000C00602D42046FFF723F9216A08AE01EB7C
:101330000A00206204E0D4E9012116F8010B90476D
:10134000BAF1010AF7D22078C00602D52046FFF78D
:101350000FF96E4609E016F8010B3E280FD0D4E9CC
:1013600001219047206A401C2062B8F10108F2D2A6
:101370002046FFF713F909B00320BDE8F08F206A7B
:101380002844206203E0D4E90121302090476D1EFB
:10139000EBD3F8E77250010002FCFFFF10B5436980
:1013A00013B1AFF3008001E0FFF71BF9012010BD7E
:1013B000127800F124010A7000224A700122EDE740
:1013C00011684FF0FF32E9E710B5436913B1AFF38D
:1013D000008001E0FFF79CF9012010BD128800F1A8
:1013E000240182840022C2840122EDE711684FF0BB
:1013F000FF32E9E72DE9F04116460C46054600F0BC
:1014000043F8036893F80101012807D0FF2C12D894
:10141000185D80B101202C70BDE8F081D3F8070180
:101420003246214603F20713C7182846BC46BDE8DA
:10143000F041002360474FF0FF30EDE770477546FD
:10144000FFF77AFBAE4605006946534620F00700D9
:10145000854618B020B5FEF771FFBDE820404FF07B
:1014600000064FF000074FF000084FF0000BAC46AD
:10147000ACE8C009ACE8C009ACE8C009ACE8C009F8
:1014800021F007018D46704710B500F005F8001DEA
:1014900010BD00BFF141010000487047500100201D
:1014A0002DE9F0411F46044603260168072A01F48E
:1014B000006004DB08B116A505E016A503E008B13D
:1014C00015A500E015A521F010002060A069C01E40
:1014D000A0610FB1401EA0612046FFF749F84FB14F
:1014E000D4E9012138469047206A401C2062C01C84
:1014F000206206E0206AFAE7D4E9012115F8010B21
:101500009047761EF8D22046FFF748F8BDE8F081F4
:101510004E414E006E616E00494E4600696E660097
:101520002DE9F047814616468AB0354878440DC803
:101530008DE80D0032487844801C03AC0DC884E867
:101540000D0041F69B300844372190FBF1F290FBEF
:10155000F1F5A5F1800501FB12041B3C02D56442A4
:10156000012000E00020DFF898A080460027FA4420
:10157000AAF1BE0A0EE0E0070AD03246684607EB41
:10158000470101230AEB810113F09DFC8DE8070060
:1015900064107F1C002CEED1194F7F44AE3F19E040
:1015A000E80715D007EB04100DF1180A90E80E00BB
:1015B0008AE80E00C068F04201D1981908903246BE
:1015C000012306A903A813F07EFC03AB83E8070000
:1015D0006D10641C002DE3D14FF0010332466946C3
:1015E000B8F1000F03A802D013F058FC01E013F08B
:1015F0006AFCC9E90001C9F808200AB0BDE8F08713
:101600007C4D010010B50446AFF300802046BDE8D4
:101610001040FEF77EBE000001491820ABBEFEE779
:10162000260002000000000030B44FF0013C50F8EA
:10163000042B51F8043BCCFA52F4D51A20D1FCB952
:1016400050F8042B51F8043BCCFA52F4D51A17D1B8
:10165000B4B950F8042B51F8043BCCFA52F4D51A23
:101660000ED16CB950F8042B51F8043BCCFA52F46B
:10167000D51A05D1002CDAD030BC4FF000007047ED
:1016800029BAB1FA81F111F01801D1F1200084409A
:10169000F2D1CA40CB4012F0FF0213F0FF0330BC7E
:1016A000D01A704780B590B00F908DED0E0A0D9155
:1016B0000C920F980D9991ED000A91ED011A91EDA0
:1016C000022AF1EE410A9FED361A31EE421A0C99C8
:1016D000D1ED001A91ED012A91ED023AB1EE422AC4
:1016E000F1EE432A9FED2F4AB0EE443AF0EE443A31
:1016F00007F02CFF41F6A820C2F200000A9090EDFE
:10170000000B8DED000B40F2EC00C2F200000B90DC
:1017100000680690013814F0FFF941EC100B8DEDD4
:10172000020B0D98806814F0C7FC9DED001B9DED29
:10173000020B41EC120B8DED042B51EC110B53EC11
:10174000102B14F001FA9DED040B41EC110B51EC40
:10175000110B53EC102B14F0C1FB024606980792B4
:101760000A46079942EC101B8DED080B14F0D4F9D2
:101770009DED081B41EC100B51EC110B53EC102BA1
:1017800014F070F802460A980B460B9943EC102BA4
:1017900080ED000B08680130086010B080BD00BF0C
:1017A0004260653B0000000081B000900098B0F9F5
:1017B000000000EE100AB8EEC00A9FED1B1A80EE82
:1017C000010A9FED1A1A20EE010AB5EE400AF1EE69
:1017D00010FA01DDFFE725E00098B0F9000000EE07
:1017E000100AB8EEC00A9FED102A80EE020A9FEDA3
:1017F0000F1A20EE010A40F2A411C2F2000181ED9D
:10180000010A0098B0F9020000EE100AB8EEC00A12
:1018100080EE020A20EE010A81ED020A009840687B
:10182000C860FFE701B07047000000470000344384
:1018300040F22C71C2F20001002088617047000064
:1018400040F22C71C2F20001002048617047000094
:1018500081B000900098007840F2A411C2F200011B
:10186000087000984078487001B0704780B582B029
:1018700040F22820C2F2000090F8820260B9FFE72F
:1018800040F22821C2F2000100208864C864A1F857
:101890007A02A1F87C0223E040F22820C2F2000084
:1018A000019090ED070A00F5F070DFED0E0A08F0E8
:1018B000ABFD0198BDEEC00A10EE101AA0F87A1226
:1018C00090ED080A00F50A70DFED070A08F09CFDAC
:1018D0000199BDEEC00A10EE100AA1F87C02FFE7E4
:1018E00002B080BD0020FDC50020FD4580B540F25E
:1018F0002820C2F2000090F88002032803D1FFE7FD
:1019000001F0F0FF02E001F08BFFFFE780BD000077
:1019100040F22C71C2F200010020C8607047000044
:1019200080B584B040F22820C2F20000009000F59B
:10193000F07040F20002C2F20002002101919FED1E
:101940000D0A8DED020ADFED0C0ACDED030A08F059
:1019500081FE009801999DED020ADDED030A00F574
:101960000A7040F20C02C2F2000208F073FE04B0EA
:1019700080BD00BF000080460080BB4540F22C7156
:10198000C2F20001002008617047000080B582B0FB
:101990000190072010F0C0FEFFE700F075F920B1BC
:1019A000FFE7642010F0B8FEF7E740F6B442C2F259
:1019B000000202F11400111D103200F09BF941F2F7
:1019C0003840C2F2000046F28442C0F60102002113
:1019D0009FED210ADFED210A08F03CFE41F288006C
:1019E000C2F200001021C16105F080F918B1FFE7D3
:1019F00001F088FFFFE740F2E100C2F2000040F68C
:101A00008C51C2F2000108220EF056FA41F2344124
:101A1000C2F2000101200870FFE740F6B440C2F2B4
:101A2000000000F11401021D40F22400C2F2000087
:101A300000909FED0B0AFFF735FE009840F2D86149
:101A4000C2F200010A1D01F1080310F0C9FA0120D9
:101A500010F062FEE1E700BF00A08C4500808945E0
:101A60006F12833A80B50020C4F2020010210122D7
:101A700004F0CAFA80BD000080B50020C4F2020064
:101A80001021002204F0C0FA80BD00007047000061
:101A900080B540F20040C4F202000122114604F079
:101AA000B3FA80BD80B540F20040C4F202000121CB
:101AB000002204F0A9FA80BD85B00490039102923F
:101AC00004990878497840EA0120ADF80600BDF98C
:101AD000060000EE100AB8EEC00A40F21800C2F28A
:101AE000000090ED001A20EE010A039981ED000A32
:101AF000049A9178D27841EA0221ADF80610BDF936
:101B0000061000EE101AB8EEC00A90ED001A20EE92
:101B1000010A039981ED010A049A1179527941EA87
:101B20000221ADF80610BDF9061000EE101AB8EE4D
:101B3000C00A90ED001A20EE010A039880ED020A17
:101B400004988179C279007A000440EA02200844AE
:101B500000909DED000AB8EE400A9FED041A20EEB9
:101B6000010A029880ED000A05B0704700401C424F
:101B70007047000080B582B0ADF80600BDF80600E1
:101B800010F0CAFD02B080BD80B582B0ADF806008D
:101B9000BDF806000FF0FEFF02B080BD84B00390D8
:101BA0000291019203990878497840EA0120ADF842
:101BB0000200BDF9020000EE100AB8EEC00A40F2C1
:101BC0001C00C2F2000090ED001A20EE010A0299FA
:101BD00081ED000ABDF9021000EE101AB8EEC00A3D
:101BE0009FED272A80EE020A9FED261A20EE010AB9
:101BF000019981ED000A039A9178D27841EA022195
:101C0000ADF80210BDF9021000EE101AB8EEC00ACD
:101C100090ED003A20EE030A029981ED010ABDF928
:101C2000021000EE101AB8EEC00A80EE020A20EE92
:101C3000010A019981ED010A039A1179527941EA69
:101C40000221ADF80210BDF9021000EE101AB8EE34
:101C5000C00A90ED003A20EE030A029880ED020AD5
:101C6000BDF9020000EE100AB8EEC00A80EE020ACA
:101C700020EE010A019880ED020A04B0704700BF0F
:101C8000000000470000FA4480B582B000208DF8C3
:101C90000700FFF7FBFEFFF76BFF0FF01DFB38B1EE
:101CA000FFE79DF8070040F080008DF8070008E08E
:101CB0000FF04AFA01469DF8070008438DF8070027
:101CC000FFE70FF087FD38B1FFE79DF8070040F010
:101CD00040008DF8070008E00FF0D8FC01469DF8A1
:101CE000070008438DF80700FFE79DF8070002B0E2
:101CF00080BD000080B588B0079006910592002055
:101D0000009004900390FFF7B7FE922000F006F9D0
:101D1000122003A90191062200F0CCF8FFF7A2FEE1
:101D20009DF80C009DF80D1040EA0120ADF80A0066
:101D3000BDF90A0000EE100AB8EEC00A40F2180021
:101D4000C2F2000090ED001A20EE010A069981ED22
:101D5000000A9DF80E109DF80F2041EA0221ADF80F
:101D60000A10BDF90A1000EE101AB8EEC00A90ED84
:101D7000001A20EE010A069981ED010A9DF8101063
:101D80009DF8112041EA0221ADF80A10BDF90A10B0
:101D900000EE101AB8EEC00A90ED001A20EE010A0B
:101DA000069880ED020AFFF77DFE0098019908224F
:101DB00000F080F8FFF76CFE9DF80C000F2844D16E
:101DC000FFE79DF80E009DF80F1040EA0120ADF8E6
:101DD0000A00BDF90A0000EE100AB8EEC00A40F28F
:101DE0001C00C2F2000090ED001A20EE010A0799D3
:101DF00081ED000A9DF810109DF8112041EA0221A2
:101E0000ADF80A10BDF90A1000EE101AB8EEC00ABB
:101E100090ED001A20EE010A079981ED010A9DF864
:101E200012109DF8132041EA0221ADF80A10BDF905
:101E30000A1000EE101AB8EEC00A90ED001A20EE5B
:101E4000010A079880ED020AFFE7FFF715FEA220BE
:101E500000F064F8222003A9022200F02BF8FFF71B
:101E600001FE9DF80C009DF80D10C00040EA5110D5
:101E7000ADF80A00BDF90A00B0F5806F07DBFFE797
:101E8000BDF80A00A0F50060ADF80A00FFE7BDF953
:101E90000A0000EE100AB8EEC00AB4EE001A20EEF6
:101EA000010AB3EE071A30EE010A059880ED000A28
:101EB00008B080BD80B584B08DF80F0002918DF818
:101EC00007209DF80F0040F0800000F027F8FFE7A2
:101ED0009DF8070070B1FFE7552000F01FF8029948
:101EE00008700298013002909DF8070001388DF8C3
:101EF0000700EDE704B080BD80B582B08DF8070023
:101F000000919DF8070040F0800000F007F8552090
:101F100000F004F80099087002B080BD80B582B06E
:101F20008DF8070069464FF47A70086041F2880026
:101F3000C2F200000DF107010DF10602012305F0C8
:101F40001FF89DF8060002B080BD000083B002902B
:101F50000191029908784978C00040EA5110ADF823
:101F60000200BDF90200B0F5806F07DBFFE7BDF8A6
:101F70000200A0F50060ADF80200FFE7BDF9020025
:101F800000EE100AB8EEC00AB4EE001A20EE010A04
:101F9000B3EE071A30EE010A019880ED000A03B093
:101FA0007047000080B582B08DF807008DF80610EC
:101FB0009DF80700FFF7B2FF9DF80600FFF7AEFFA0
:101FC00002B080BDFFE7FEE780B540F69850C2F250
:101FD000000002F0E5FE80BD80B540F6C050C2F2C0
:101FE000000002F0DDFE80BD80B588B007904FF4A0
:101FF000FA7010F091FB40F22820C2F20000059028
:1020000000F5F07040F20002C2F2000200210291DD
:102010009FED4C0A8DED030ADFED4B0ACDED040A6E
:1020200008F018FB02999DED030ADDED040A0598FE
:1020300000F50A7040F20C02C2F2000208F00AFB3E
:1020400006F026FC0FF0F2FD059901F2944001F52F
:1020500025714022069206F04FFC0599069A01F57B
:10206000946001F5657106F047FC41F29040C2F2C0
:10207000000040F2F001C2F200019FED340A0FF0BF
:10208000F1FEFFE710F010F8014640F60400C2F23E
:1020900000001622FEF7F2F940F29410C2F200009E
:1020A00001F038FC40F2EC70C2F2000008F03AFB9C
:1020B00040F21870C2F2000001F0A4FB40F22820A8
:1020C000C2F20000019090ED000A00F2944006F088
:1020D00025FC019890ED010A00F5946006F01EFCC5
:1020E00002F0B8FA01F01EFF01F0F8FF02F0A2F9C9
:1020F00008F082FCFFF714FC02F0D8F801F0B0FC05
:1021000008F01AFCFFF7B2FBFFF7F0FBDDF804C0A4
:10211000BCF870024042BCF97212BCF97822BCF9DA
:102120007A32BCF97CC2EE46CEF800C000B202F0B2
:10213000D1F8019890ED9D0A01F03AFB012010F0D2
:10214000EBFA9FE7000080460080BB4500007A4420
:1021500080B584B0039002910192009340F6E44070
:10216000C2F2000000218160C16001990161006933
:10217000092807D3FFE740F6E441C2F20001082036
:102180000861FFE7029840F6E441C2F200010860EE
:102190000398009A41F68823C2F2000302F07AFB0A
:1021A00004B080BD81B0ADF8000041F25C50C2F2D5
:1021B0000000808ABDF80010084204D1FFE700202B
:1021C0008DF8030003E001208DF80300FFE79DF880
:1021D000030001B07047000040F22C71C2F2000110
:1021E000086801300860886801308860C86801307C
:1021F000C860086901300861486901304861886930
:1022000001308861C8690130C861086A013008621C
:10221000486A01304862886A01308862C86A0130C1
:10222000C862086B01300863486B01304863886BF3
:1022300001308863C86B0130C863086C01300864E2
:102240007047000040F22C70C2F200000068332892
:1022500007D3FFE740F27071C2F20001012008705D
:1022600006E040F27071C2F2000100200870FFE742
:1022700040F22C70C2F200004068332807D3FFE719
:1022800040F27071C2F200010120487006E040F295
:102290007071C2F2000100204870FFE740F22C701C
:1022A000C2F200008068332807D3FFE740F2707164
:1022B000C2F200010120887006E040F27071C2F2A3
:1022C000000100208870FFE740F22C70C2F200008D
:1022D000C068332807D3FFE740F27071C2F20001F3
:1022E0000120C87006E040F27071C2F200010020C7
:1022F000C870FFE740F22C70C2F20000006933287A
:1023000007D3FFE740F27071C2F2000101200871AB
:1023100006E040F27071C2F2000100200871FFE790
:1023200040F22C70C2F200004069332807D3FFE767
:1023300040F27071C2F200010120487106E040F2E3
:102340007071C2F2000100204871FFE740F22C706A
:10235000C2F200008069332807D3FFE740F27071B2
:10236000C2F200010120887106E040F27071C2F2F1
:10237000000100208871FFE740F22C70C2F20000DB
:10238000C069332807D3FFE740F27071C2F2000141
:102390000120C87106E040F27071C2F20001002015
:1023A000C871FFE740F22C70C2F20000006A3328C7
:1023B00007D3FFE740F27071C2F2000101200872FA
:1023C00006E040F27071C2F2000100200872FFE7DF
:1023D00040F22C70C2F20000406A332807D3FFE7B6
:1023E00040F27071C2F200010120487206E040F232
:1023F0007071C2F2000100204872FFE740F22C70B9
:10240000C2F20000806A332807D3FFE740F2707100
:10241000C2F200010120887206E040F27071C2F23F
:10242000000100208872FFE740F22C70C2F2000029
:10243000C06A332807D3FFE740F27071C2F200018F
:102440000120C87206E040F27071C2F20001002063
:10245000C872FFE740F22C70C2F20000006B332814
:1024600007D3FFE740F27071C2F200010120087348
:1024700006E040F27071C2F2000100200873FFE72D
:1024800040F22C70C2F20000406B332807D3FFE704
:1024900040F27071C2F200010120487306E040F280
:1024A0007071C2F2000100204873FFE740F22C7007
:1024B000C2F20000806B332807D3FFE740F270714F
:1024C000C2F200010120887306E040F27071C2F28E
:1024D000000100208873FFE740F22C70C2F2000078
:1024E000C06B332807D3FFE740F27071C2F20001DE
:1024F0000120C87306E040F27071C2F200010020B2
:10250000C873FFE740F22C70C2F20000006C332861
:1025100007D3FFE740F27071C2F200010120087496
:1025200006E040F27071C2F2000100200874FFE77B
:102530007047000080B540F66870C2F2000003F0FA
:10254000C1F880BD80B5E2B041F28800C2F200005F
:10255000C06C006846F25941C4F202018842C0F0E2
:10256000F380FFE746F20440C4F202000068619085
:1025700041F28800C2F20000C06C006846F210010F
:10258000C4F20201884203D1FFE720206090D6E028
:1025900041F28800C2F20000C06C006846F21041AF
:1025A000C4F20201884203D1FFE720205F90C3E01C
:1025B00041F28800C2F20000C06C006846F270016F
:1025C000C4F20201884203D1FFE720205E90B0E010
:1025D00041F28800C2F20000C06C006846F270410F
:1025E000C4F20201884203D1FFE720205D909DE004
:1025F00041F28800C2F20000C06C006846F2280177
:10260000C4F20201884204D1FFE74FF400605C90FD
:1026100089E041F28800C2F20000C06C006846F216
:102620002841C4F20201884204D1FFE74FF4006060
:102630005B9075E041F28800C2F20000C06C006857
:1026400046F28801C4F20201884204D1FFE74FF448
:1026500000605A9061E041F28800C2F20000C06C54
:10266000006846F28841C4F20201884204D1FFE7C3
:102670004FF4006059904DE041F28800C2F2000032
:10268000C06C006846F24001C4F20201884204D1E5
:10269000FFE74FF40010589039E041F28800C2F291
:1026A0000000C06C006846F24041C4F2020188425A
:1026B00004D1FFE74FF40010579025E041F2880065
:1026C000C2F20000C06C006846F2A001C4F2020130
:1026D000884204D1FFE74FF40010569011E041F218
:1026E0008800C2F20000C06C016846F2A042C4F249
:1026F00002024FF00060914208BF4FF40010569064
:10270000FFE756985790FFE757985890FFE758987B
:102710005990FFE759985A90FFE75A985B90FFE766
:102720005B985C90FFE75C985D90FFE75D985E903A
:10273000FFE75E985F90FFE75F986090FFE7619822
:10274000609908405590F7E241F28800C2F200001B
:10275000C06C006846F2B901C4F202018842C0F0C0
:10276000F380FFE746F20040C4F202000068549094
:1027700041F28800C2F20000C06C006846F210010D
:10278000C4F20201884203D1FFE720205390D6E033
:1027900041F28800C2F20000C06C006846F21041AD
:1027A000C4F20201884203D1FFE720205290C3E027
:1027B00041F28800C2F20000C06C006846F270016D
:1027C000C4F20201884203D1FFE720205190B0E01B
:1027D00041F28800C2F20000C06C006846F270410D
:1027E000C4F20201884203D1FFE7202050909DE00F
:1027F00041F28800C2F20000C06C006846F2280175
:10280000C4F20201884204D1FFE74FF400604F9008
:1028100089E041F28800C2F20000C06C006846F214
:102820002841C4F20201884204D1FFE74FF400605E
:102830004E9075E041F28800C2F20000C06C006862
:1028400046F28801C4F20201884204D1FFE74FF446
:1028500000604D9061E041F28800C2F20000C06C5F
:10286000006846F28841C4F20201884204D1FFE7C1
:102870004FF400604C904DE041F28800C2F200003D
:10288000C06C006846F24001C4F20201884204D1E3
:10289000FFE74FF400104B9039E041F28800C2F29C
:1028A0000000C06C006846F24041C4F20201884258
:1028B00004D1FFE74FF400104A9025E041F2880070
:1028C000C2F20000C06C006846F2A001C4F202012E
:1028D000884204D1FFE74FF40010499011E041F223
:1028E0008800C2F20000C06C016846F2A042C4F247
:1028F00002024FF00060914208BF4FF4001049906F
:10290000FFE749984A90FFE74A984B90FFE74B98BA
:102910004C90FFE74C984D90FFE74D984E90FFE7A5
:102920004E984F90FFE74F985090FFE75098519086
:10293000FFE751985290FFE752985390FFE7549861
:10294000539908404890F4E141F28800C2F2000037
:10295000C06C006846F25901C4F202018842C0F01E
:10296000F380FFE746F20400C4F2020000684790DB
:1029700041F28800C2F20000C06C006846F210010B
:10298000C4F20201884203D1FFE720204690D6E03E
:1029900041F28800C2F20000C06C006846F21041AB
:1029A000C4F20201884203D1FFE720204590C3E032
:1029B00041F28800C2F20000C06C006846F270016B
:1029C000C4F20201884203D1FFE720204490B0E026
:1029D00041F28800C2F20000C06C006846F270410B
:1029E000C4F20201884203D1FFE7202043909DE01A
:1029F00041F28800C2F20000C06C006846F2280173
:102A0000C4F20201884204D1FFE74FF40060429013
:102A100089E041F28800C2F20000C06C006846F212
:102A20002841C4F20201884204D1FFE74FF400605C
:102A3000419075E041F28800C2F20000C06C00686D
:102A400046F28801C4F20201884204D1FFE74FF444
:102A50000060409061E041F28800C2F20000C06C6A
:102A6000006846F28841C4F20201884204D1FFE7BF
:102A70004FF400603F904DE041F28800C2F2000048
:102A8000C06C006846F24001C4F20201884204D1E1
:102A9000FFE74FF400103E9039E041F28800C2F2A7
:102AA0000000C06C006846F24041C4F20201884256
:102AB00004D1FFE74FF400103D9025E041F288007B
:102AC000C2F20000C06C006846F2A001C4F202012C
:102AD000884204D1FFE74FF400103C9011E041F22E
:102AE0008800C2F20000C06C016846F2A042C4F245
:102AF00002024FF00060914208BF4FF400103C907A
:102B0000FFE73C983D90FFE73D983E90FFE73E98F9
:102B10003F90FFE73F984090FFE740984190FFE7E4
:102B200041984290FFE742984390FFE743984490D2
:102B3000FFE744984590FFE745984690FFE74798A0
:102B4000469908403B90F1E046F20000C4F20200D2
:102B500000683A9041F28800C2F20000C06C006840
:102B600046F21001C4F20201884203D1FFE720209F
:102B70003990D6E041F28800C2F20000C06C0068D3
:102B800046F21041C4F20201884203D1FFE720203F
:102B90003890C3E041F28800C2F20000C06C0068C7
:102BA00046F27001C4F20201884203D1FFE72020FF
:102BB0003790B0E041F28800C2F20000C06C0068BB
:102BC00046F27041C4F20201884203D1FFE720209F
:102BD00036909DE041F28800C2F20000C06C0068AF
:102BE00046F22801C4F20201884204D1FFE74FF403
:102BF0000060359089E041F28800C2F20000C06CAC
:102C0000006846F22841C4F20201884204D1FFE77D
:102C10004FF40060349075E041F28800C2F2000089
:102C2000C06C006846F28801C4F20201884204D1F7
:102C3000FFE74FF40060339061E041F28800C2F298
:102C40000000C06C006846F28841C4F2020188426C
:102C500004D1FFE74FF4006032904DE041F288006C
:102C6000C2F20000C06C006846F24001C4F20201EA
:102C7000884204D1FFE74FF40010319039E041F26F
:102C80008800C2F20000C06C006846F24041C4F205
:102C90000201884204D1FFE74FF40010309025E094
:102CA00041F28800C2F20000C06C006846F2A00148
:102CB000C4F20201884204D1FFE74FF400102F90C4
:102CC00011E041F28800C2F20000C06C016846F2D7
:102CD000A042C4F202024FF00060914208BF4FF4DC
:102CE00000102F90FFE72F983090FFE73098319039
:102CF000FFE731983290FFE732983390FFE733983F
:102D00003490FFE734983590FFE735983690FFE729
:102D100036983790FFE737983890FFE73898399022
:102D2000FFE73A98399908403B90FFE73B98489075
:102D3000FFE748985590FFE75598002800F0698410
:102D4000FFE741F28800C2F20000C06C006846F262
:102D50005941C4F202018842C0F0EF80FFE741F21E
:102D60008800C2F20000C06C006846F21001C4F294
:102D70000201884203D1FFE720202E90D6E041F2E5
:102D80008800C2F20000C06C006846F21041C4F234
:102D90000201884203D1FFE720202D90C3E041F2D9
:102DA0008800C2F20000C06C006846F27001C4F2F4
:102DB0000201884203D1FFE720202C90B0E041F2CD
:102DC0008800C2F20000C06C006846F27041C4F294
:102DD0000201884203D1FFE720202B909DE041F2C1
:102DE0008800C2F20000C06C006846F22801C4F2FC
:102DF0000201884204D1FFE74FF400602A9089E085
:102E000041F28800C2F20000C06C006846F228411E
:102E1000C4F20201884204D1FFE74FF40060299018
:102E200075E041F28800C2F20000C06C006846F212
:102E30008801C4F20201884204D1FFE74FF4006028
:102E4000289061E041F28800C2F20000C06C006886
:102E500046F28841C4F20201884204D1FFE74FF4F0
:102E6000006027904DE041F28800C2F20000C06C83
:102E7000006846F24001C4F20201884204D1FFE733
:102E80004FF40010269039E041F28800C2F20000B1
:102E9000C06C006846F24041C4F20201884204D18D
:102EA000FFE74FF40010259025E041F28800C2F2C0
:102EB0000000C06C006846F2A001C4F20201884222
:102EC00004D1FFE74FF40010249011E041F2880094
:102ED000C2F20000C06C016846F2A042C4F20202D5
:102EE0004FF00060914208BF4FF400102490FFE7BC
:102EF00024982590FFE725982690FFE726982790AD
:102F0000FFE727982890FFE728982990FFE729985E
:102F10002A90FFE72A982B90FFE72B982C90FFE749
:102F20002C982D90FFE72D982E90FFE72E9846F2D3
:102F30000C41C4F202010860EDE241F28800C2F2E5
:102F40000000C06C006846F2B901C4F20201884278
:102F5000C0F0F080FFE741F28800C2F20000C06CD0
:102F6000006846F21001C4F20201884203D1FFE773
:102F700020202390D6E041F28800C2F20000C06C0D
:102F8000006846F21041C4F20201884203D1FFE713
:102F900020202290C3E041F28800C2F20000C06C01
:102FA000006846F27001C4F20201884203D1FFE7D3
:102FB00020202190B0E041F28800C2F20000C06CF5
:102FC000006846F27041C4F20201884203D1FFE773
:102FD000202020909DE041F28800C2F20000C06CE9
:102FE000006846F22801C4F20201884204D1FFE7DA
:102FF0004FF400601F9089E041F28800C2F20000A7
:10300000C06C006846F22841C4F20201884204D133
:10301000FFE74FF400601E9075E041F28800C2F2B5
:103020000000C06C006846F28801C4F202018842C8
:1030300004D1FFE74FF400601D9061E041F2880089
:10304000C2F20000C06C006846F28841C4F202017E
:10305000884204D1FFE74FF400601C904DE041F23C
:103060008800C2F20000C06C006846F24001C4F261
:103070000201884204D1FFE74FF400101B9039E0B1
:1030800041F28800C2F20000C06C006846F2404184
:10309000C4F20201884204D1FFE74FF400101A90F5
:1030A00025E041F28800C2F20000C06C006846F2E0
:1030B000A001C4F20201884204D1FFE74FF40010DE
:1030C000199011E041F28800C2F20000C06C016862
:1030D00046F2A042C4F202024FF00060914208BFE3
:1030E0004FF400101990FFE719981A90FFE71A980B
:1030F0001B90FFE71B981C90FFE71C981D90FFE7B3
:103100001D981E90FFE71E981F90FFE71F982090C4
:10311000FFE720982190FFE721982290FFE722986F
:103120002390FFE7239846F20841C4F202010860A9
:103130001890EEE141F28800C2F20000C06C006815
:1031400046F25901C4F202018842C0F0F080FFE764
:1031500041F28800C2F20000C06C006846F2100123
:10316000C4F20201884203D1FFE720201790D6E085
:1031700041F28800C2F20000C06C006846F21041C3
:10318000C4F20201884203D1FFE720201690C3E079
:1031900041F28800C2F20000C06C006846F2700183
:1031A000C4F20201884203D1FFE720201590B0E06D
:1031B00041F28800C2F20000C06C006846F2704123
:1031C000C4F20201884203D1FFE7202014909DE061
:1031D00041F28800C2F20000C06C006846F228018B
:1031E000C4F20201884204D1FFE74FF4006013905B
:1031F00089E041F28800C2F20000C06C006846F22B
:103200002841C4F20201884204D1FFE74FF4006074
:10321000129075E041F28800C2F20000C06C0068B4
:1032200046F28801C4F20201884204D1FFE74FF45C
:103230000060119061E041F28800C2F20000C06CB1
:10324000006846F28841C4F20201884204D1FFE7D7
:103250004FF4006010904DE041F28800C2F200008F
:10326000C06C006846F24001C4F20201884204D1F9
:10327000FFE74FF400100F9039E041F28800C2F2EE
:103280000000C06C006846F24041C4F2020188426E
:1032900004D1FFE74FF400100E9025E041F28800C2
:1032A000C2F20000C06C006846F2A001C4F2020144
:1032B000884204D1FFE74FF400100D9011E041F275
:1032C0008800C2F20000C06C016846F2A042C4F25D
:1032D00002024FF00060914208BF4FF400100D90C1
:1032E000FFE70D980E90FFE70E980F90FFE70F98FD
:1032F0001090FFE710981190FFE711981290FFE7E8
:1033000012981390FFE713981490FFE71498159004
:10331000FFE715981690FFE716981790FFE71798A4
:1033200046F20C01C4F2020108600C90EEE041F29A
:103330008800C2F20000C06C006846F21001C4F2BE
:103340000201884203D1FFE720200B90D6E041F232
:103350008800C2F20000C06C006846F21041C4F25E
:103360000201884203D1FFE720200A90C3E041F226
:103370008800C2F20000C06C006846F27001C4F21E
:103380000201884203D1FFE720200990B0E041F21A
:103390008800C2F20000C06C006846F27041C4F2BE
:1033A0000201884203D1FFE7202008909DE041F20E
:1033B0008800C2F20000C06C006846F22801C4F226
:1033C0000201884204D1FFE74FF40060079089E0D2
:1033D00041F28800C2F20000C06C006846F2284149
:1033E000C4F20201884204D1FFE74FF40060069066
:1033F00075E041F28800C2F20000C06C006846F23D
:103400008801C4F20201884204D1FFE74FF4006052
:10341000059061E041F28800C2F20000C06C0068D3
:1034200046F28841C4F20201884204D1FFE74FF41A
:10343000006004904DE041F28800C2F20000C06CD0
:10344000006846F24001C4F20201884204D1FFE75D
:103450004FF40010039039E041F28800C2F20000FE
:10346000C06C006846F24041C4F20201884204D1B7
:10347000FFE74FF40010029025E041F28800C2F20D
:103480000000C06C006846F2A001C4F2020188424C
:1034900004D1FFE74FF40010019011E041F28800E1
:1034A000C2F20000C06C016846F2A042C4F20202FF
:1034B0004FF00060914208BF4FF400100190FFE709
:1034C00001980290FFE702980390FFE703980490A9
:1034D000FFE704980590FFE705980690FFE7069838
:1034E0000790FFE707980890FFE708980990FFE723
:1034F00009980A90FFE70A980B90FFE70B9846F2AD
:103500000801C4F2020108600C90FFE70C981890C3
:10351000FFE71898FFE740F69450C2F200000078E9
:103520008007002821D5FFE740F69451C2F2000140
:10353000087800F0FD00087040F20040C4F202007C
:103540000122114602F060FD40F68C50C2F20000EC
:10355000013040F6B441C2F20001143140F2E4629D
:10356000C2F20002FEF71AFBFFE740F6B240C2F2D9
:1035700000000078800700281DD5FFE740F6B24123
:10358000C2F20001087800F0FD0008700020C4F2CB
:1035900002001021012202F037FD40F6A440C2F2E1
:1035A0000000023040F6B442C2F20002111D203287
:1035B000FEF782FAFFE740F6B140C2F20000007861
:1035C0008007002822D5FFE740F6B141C2F2000192
:1035D000087800F0FD0008700020C4F202001021FD
:1035E000012202F011FD40F6AD40C2F200000230AF
:1035F00040F6B441C2F2000100911031FEF7A6FC82
:10360000009890ED040A0EF079FEFFE70EF052FDEF
:10361000FFE762B080BD000080B540F6C870C2F21E
:10362000000002F04FF880BD80B540F6A860C2F2FD
:10363000000002F047F880BD80B540F64860C2F255
:10364000000002F03FF880BD80B541F22800C2F2D0
:10365000000002F037F880BD80B540F60870C2F275
:10366000000002F02FF880BD82B001900198007830
:1036700010384AF6AB21CAF6AA21A0FB01100009B6
:103680000090009946F26840C0F60100405C019944
:10369000C8650098042807D3FFE701990868042249
:1036A00062F30900886506E00199086840F2FF327C
:1036B00090438865FFE70198806D02B07047000075
:1036C00086B0059000208DF813000598806A03905D
:1036D0000598806910BBFFE70398029003281BD868
:1036E0000299DFE801F0020D0218059890F82F000A
:1036F000C00720B1FFE701208DF81300FFE70CE0C1
:103700000598C06AB0F1C07F04D1FFE701208DF8B1
:103710001300FFE701E000E0FFE745E0059880695E
:10372000B0F5005F25D1FFE70398019003281ED86C
:103730000199DFE801F00206021101208DF8130063
:1037400016E0059890F82F00C00720B1FFE7012090
:103750008DF81300FFE70BE00598C06AB0F1C07F59
:1037600004D1FFE701208DF81300FFE700E0FFE739
:1037700019E003980090032804D3FFE7009803287A
:1037800004D00EE001208DF813000BE0059890F8AE
:103790002F00C00720B1FFE701208DF81300FFE7DD
:1037A00000E0FFE7FFE7FFE79DF8130006B0704772
:1037B00080B584B08DED030A40F6FC41C2F20001F1
:1037C000019100208860C86008200861022008601C
:1037D0009DED030A40F61850C2F2000002900EF070
:1037E00043F90199029A40F69850C2F2000041F65E
:1037F0008C23C2F2000301F04DF804B080BD00003C
:103800007047000080B582B00190019840F270715D
:10381000C2F200011122FCF731FE02B080BD0000AF
:1038200041F2E001C2F200010A684FF47A7050637D
:10383000096888637047000080B5102002F0ECF939
:1038400080BD000080B5202002F0E6F980BD0000B8
:1038500080B584B0039002918DF8072000208DF888
:103860000600039805F032F808B1FFE737E0039847
:10387000D0F80D02B0F5FD7F01D9FFE72FE0FFE79B
:103880009DF806009DF80710884228DAFFE70399A3
:10389000D1F80902431C4CF21160C1F6B07053FB21
:1038A00000F2901100EBD27040F2052200FB1230C2
:1038B000C1F8090202989DF80610405C0399D1F8FE
:1038C000092288540399D1F80D020130C1F80D0284
:1038D000FFE79DF8060001308DF80600D0E704B040
:1038E00080BD000040F2F400C2F20000028841F204
:1038F000E001C2F200010B685A630088096888631E
:103900007047000081B0EFF3108072B60090FFE7BF
:10391000FEE7000081B00090009940F2A41CC2F2C2
:10392000000CDCF80000DCF80420DCF80830DCF8DF
:103930000CC0C1F80CC08B604A60086001B07047D1
:1039400081B00090009940F2240CC2F2000CDCF827
:103950000000DCF80420DCF80830DCF80CC0C1F80A
:103960000CC08B604A60086001B0704780B582B0BF
:10397000019040F22820C2F2000090F8800230B995
:10398000FFE70199887940F001008871FFE701990C
:10399000002008704FF40070FEF704FC30B1FFE720
:1039A0000199087840F01000087012E04FF4806030
:1039B000FEF7F8FB30B1FFE70199087840F02000EE
:1039C000087005E00199087840F001000870FFE7F1
:1039D000FFE701990020887140F22200C2F2000046
:1039E0000078012806D1FFE70199887940F00100AD
:1039F0008871FFE740F22820C2F2000090F88102AF
:103A0000032806D1FFE70199887940F00200887108
:103A1000FFE74FF40070FEF7C5FB30B9FFE74FF446
:103A20008060FEF7BFFB30B1FFE70199887940F075
:103A300020008871FFE740F29010C2F20000007889
:103A4000012806D1FFE70199887940F0400088718C
:103A5000FFE701990020C87102B080BD000000009E
:103A600080B596B040F22820C2F2000090F88102A2
:103A7000022840F06A81FFE706F03EFC8DED130A54
:103A800006F08CFEB0EE401A9DED130A9FEDE62A7B
:103A900021EE021AB3EE0E2A20EE020A30EE010ADF
:103AA00006F08CFCB0EE401A40F22820C2F2000072
:103AB00090ED100A30EE410A80ED100A90ED000AF8
:103AC00045F6E850C2F2000090ED001A9FEDD72AAB
:103AD00031EE021AB4EE410AF1EE10FA39DCFFE7DA
:103AE00040F22820C2F2000090ED000A45F6E850AE
:103AF000C2F2000090ED001A9FEDCD2A31EE021ABD
:103B0000B4EE410AF1EE10FA23DBFFE706F006FC03
:103B10008DED120A06F084FEB0EE401A9DED120AF9
:103B20009FEDC12A21EE021A9FEDF22A20EE020A31
:103B300030EE010A06F042FCB0EE401A40F22820B6
:103B4000C2F2000090ED0F0A30EE010A80ED0F0A7C
:103B5000B9E040F22820C2F2000090ED000A45F6DC
:103B6000E850C2F2000090ED001A9FEDEA2A31EE13
:103B7000021AB4EE410AF1EE10FA46DDFFE740F218
:103B80002820C2F20000119090ED000A45F6E8509E
:103B9000C2F2000090ED002A9FEDE11A31EE421AC8
:103BA00030EE010A06F00AFC10EE100A12F084FA58
:103BB000024611980B920A460B9942EC101B8DEDB0
:103BC0000C0BC06B12F078FA9DED0C0B41EC110B55
:103BD0008DED0E1B51EC100B9FEDC70B53EC102B12
:103BE00011F0B2FF9DED0E0B41EC110B51EC110BDE
:103BF00053EC102B11F08EFD41EC100B51EC100B1F
:103C000011F056FD1199C8635CE040F22820C2F221
:103C1000000090ED000A45F6E850C2F2000090ED79
:103C2000001A9FEDBD2A31EE021AB4EE410AF1EE00
:103C300010FA46DAFFE740F22820C2F200000A90AC
:103C400090ED000A45F6E850C2F2000090ED002A1F
:103C50009FEDB21A31EE421A30EE010A06F0AEFBC9
:103C600010EE100A12F028FA02460A9805920A4647
:103C7000059942EC101B8DED060BC06B12F01CFA7F
:103C80009DED060B41EC110B8DED081B51EC100B5B
:103C90009FED990B53EC102B11F056FF9DED080B87
:103CA00041EC110B51EC110B53EC102B11F032FDC8
:103CB00041EC100B51EC100B11F0FAFC0A99C8639F
:103CC000FFE7FFE7FFE740F22820C2F20000049080
:103CD00090ED001A90ED0F0A9FED892A71EE420ACD
:103CE00031EE021A0EF018FC049880ED0F0A90EDE8
:103CF000100AFBEE0E0A9FED861A0EF0F3F80498F8
:103D000080ED100A90ED000AD0ED030A90ED0F1A35
:103D100050300DF023FE0498BDEEC00A10EE101ACC
:103D2000A0F8701290ED010AD0ED040A90ED101A7F
:103D3000F4300DF013FE049880ED9D0A006C41F202
:103D40009041C2F200014860D1E040F22820C2F266
:103D5000000090F8810203285DD1FFE740F228219E
:103D6000C2F20001039191ED000A40F29410C2F2F8
:103D7000000090ED021A30EE010A81ED0F0A91ED7C
:103D8000010A90ED011A30EE010A8DED150A9DED44
:103D9000150A41F29040C2F2000002900EF03CF889
:103DA000029903984968016490ED001A90ED0F0A9A
:103DB0009FED532A71EE420A31EE021A0EF0ACFB6F
:103DC000039880ED0F0A90ED100AFBEE0E0A9FEDAE
:103DD000501A0EF087F8039880ED100A90ED000A53
:103DE000D0ED030A90ED0F1A50300DF0B7FD039897
:103DF000BDEEC00A10EE101AA0F8701290ED010A84
:103E0000D0ED040A90ED101AF4300DF0A7FD0398E0
:103E100080ED9D0A6AE040F22820C2F2000090F88E
:103E2000810201284DD105E0CDCCCC3D000070428F
:103E3000000016C340F22820C2F200000190416841
:103E400001640168C16390ED090A9FED2D1A70EEBF
:103E5000410A30EE011A9FED2B0A0EF05DFB01982E
:103E60008DED140A016845F6E852C2F200021160B5
:103E700090ED090AD0ED0A0A9DED141A50300DF0AC
:103E80006DFD0198B0EE401A9FED1F0A30EE410A19
:103E9000BDEEC00A10EE101AA0F8701290ED010AE3
:103EA000D0ED040AF4309FED191A0DF057FD01987A
:103EB00080ED9D0A006C41F29041C2F20001486021
:103EC00013E040F22820C2F200000168C16341689B
:103ED00001640021A0F87012C0F87412006C41F265
:103EE0009041C2F200014860FFE7FFE7FFE716B02C
:103EF00080BD00BF000048429A9999999999A9BF3D
:103F0000000034430000F042000000800000000088
:103F100000000C4200007042000016C3000016436F
:103F2000000070C240F22820C2F2000090F8800227
:103F3000032837D1FFE740F60400C2F20000807A80
:103F4000012826D1FFE740F60400C2F20000C07A43
:103F500001281ED1FFE740F21870C2F2000040793C
:103F6000B8B9FFE740F21870C2F20000807980B95A
:103F7000FFE740F29410C2F200000078C00740B1A1
:103F8000FFE740F22821C2F20001032081F88102FC
:103F900007E040F22821C2F20001022081F88102EC
:103FA000FFE75AE040F22820C2F2000090F88002B9
:103FB000022837D1FFE740F60400C2F20000C07CBF
:103FC000012808D0FFE740F60400C2F20000C07AE2
:103FD00001281ED1FFE740F21870C2F200004079BC
:103FE000B8B9FFE740F21870C2F20000807980B9DA
:103FF000FFE740F29410C2F200000078C00740B121
:10400000FFE740F22821C2F20001032081F881027B
:1040100007E040F22821C2F20001022081F881026B
:10402000FFE719E040F22820C2F2000090F8800279
:10403000012808D1FFE740F22821C2F20001012047
:1040400081F8810207E040F22821C2F2000100203D
:1040500081F88102FFE7FFE7FFE7704781B000903A
:1040600040F2D860C2F2000090ED020A9FED192ADA
:1040700080EE020A9FED181A20EE010A009981EDE8
:10408000020A90ED010A80EE020A20EE010A009970
:1040900081ED010A90ED000A80EE020A20EE010A8D
:1040A000009880ED000A40F2E460C2F2000001686E
:1040B000009A516190ED010AB1EE400A009981ED3C
:1040C000040A90ED020AB1EE400A009880ED030A5E
:1040D00001B07047DB0F49400000344380B540F227
:1040E0002820C2F2000090F88002032840F082806D
:1040F000FFE740F22820C2F2000090F8820240B9A7
:10410000FFE740F22821C2F20001012081F882027B
:10411000FFE740F22820C2F2000090F88202012856
:104120001DD1FFE706F0BEFBB7EE001AB4EE410A60
:10413000F1EE10FA04D0FFE706F002F970B1FFE7E4
:1041400040F22821C2F20001022081F8820240F6EA
:104150008451C2F2000144200860FFE749E040F2C8
:104160002820C2F2000090F8820202281ED1FFE748
:1041700040F68450C2F20000006840B1FFE740F60C
:104180008451C2F200010868013808600DE040F275
:104190002821C2F20001032081F8820240F68051FA
:1041A000C2F200010A200860FFE721E040F2282067
:1041B000C2F2000090F88202032818D1FFE740F60F
:1041C0008050C2F20000006840B1FFE740F6805125
:1041D000C2F2000108680138086007E040F22821B7
:1041E000C2F20001012081F88202FFE7FFE7FFE74A
:1041F000FFE707E040F22821C2F20001002081F829
:104200008202FFE780BD000080B584B040F66C40BC
:10421000C2F20000006840F2F061C2F200010391B6
:10422000086041F24C50C2F200000190FFF788FB99
:104230000198039990ED000A9FED1B1A20EE010AE8
:10424000BDEEC00A10EE102A0B4623F8042F90EDA5
:10425000010A20EE010ABDEEC00A10EE102ACA8043
:1042600090ED020A20EE010ABDEEC00A10EE102AFF
:104270000A8190ED030A20EE010ABDEEC00A10EE9D
:10428000100A488140F6C050C2F200000290FF219F
:104290000822FDF75DFF0298039B4FF48071042212
:1042A000FDF756FF04B080BD00FEFF4680B582B02A
:1042B00040F22820C2F200000190243000F062F8A1
:1042C000019818300CF006F80198FFF7C7FE02B00D
:1042D00080BD000080B588B084460A98ADF81EC045
:1042E000ADF81C10ADF81A20ADF81830ADF8160076
:1042F0009DF81F0040F20872C2F2000290729DF811
:104300001E00D0729DF81D10104600F8081F029084
:104310009DF81C0050729DF81B0090709DF81A00CB
:10432000D0709DF8190090719DF81800D0719DF81B
:10433000170010719DF81600507140F6FC41C2F252
:104340000001019100208860C860082008614FF4D6
:104350000070086040F69850C2F20000049041F6E8
:104360008C23C2F20003039300F094FA0199029A9D
:10437000039B049840F2FF1CC1F800C000F08AFAC9
:1043800008B080BD81B0009040F69040C2F20000BD
:10439000018800EE101AB8EEC00A9FED233A80EEB5
:1043A000030A9FED221A20EE010A9FED212A30EE2A
:1043B000020A009981ED000AB0F9020000EE100A2D
:1043C000B8EEC00A009880ED010A40F2A870C2F26F
:1043D0000000018800EE101AB8EEC00A80EE030A51
:1043E00020EE010A30EE020A009981ED020AB0F9CE
:1043F000020000EE100AB8EEC00A009880ED030A31
:1044000040F2FC10C2F2000090ED030AB2EE092A5D
:1044100080EE020A20EE010A009981ED040A00698B
:104420000099486101B07047000000460000B443A5
:10443000000034C380B58CB040F22820C2F20000E6
:1044400090F8811240F2F710C2F20000017000787B
:1044500040F2F611C2F200010978884201D1FFE76B
:10446000E8E040F2F710C2F200000078022831D1F3
:10447000FFE740F22820C2F200000990503040F2DD
:104480009801C2F2000140F2BC02C2F200029FEDAC
:104490006A0A8DED0A0AF3EE0E0ACDED0B0A9FEDC6
:1044A000671ADFED671A0DF089FA09989DED0A0A7F
:1044B000DDED0B0AF43040F24001C2F2000140F29F
:1044C0005802C2F20002B3EE021AF1EE081A0DF021
:1044D00075FAA4E040F2F710C2F200000078032859
:1044E00031D1FFE740F22820C2F2000006905030A0
:1044F00040F28C01C2F2000140F2B002C2F20002AE
:104500009FED4D0A8DED070AF3EE0E0ACDED080A78
:104510009FED4A1ADFED4A1A0DF050FA06989DED0C
:10452000070ADDED080AF43040F23401C2F200015E
:1045300040F29072C2F20002B3EE021AF1EE081AD3
:104540000DF03CFA6AE040F2F710C2F20000007889
:10455000012831D1FFE740F22820C2F20000039089
:10456000503040F2A401C2F2000140F2C802C2F28F
:1045700000029FED310A8DED040AF3EE0E0ACDED37
:10458000050A9FED2E1ADFED2E1A0DF017FA03988B
:104590009DED040ADDED050AF43040F24C01C2F253
:1045A000000140F26402C2F20002B3EE021AF1EE20
:1045B000081A0DF003FA30E040F22820C2F20000A1
:1045C0000090503040F67841C2F2000140F684423B
:1045D000C2F200029FED180A8DED010AF3EE0E0AF9
:1045E000CDED020A9FED151ADFED151A0DF0E6F973
:1045F00000989DED010ADDED020AF43040F284716D
:10460000C2F2000140F29C72C2F20002B3EE021A42
:10461000F1EE081A0DF0D2F9FFE7FFE7FFE740F2ED
:10462000F710C2F20000007840F2F611C2F2000169
:104630000870FFE70CB080BD000016440060EA4639
:1046400000401C4680B540F61A00C2F20000FFF799
:104650008DF980BD81B040F21870C2F20000007880
:10466000012808D0FFE740F21870C2F2000040783D
:10467000012811D1FFE740F22820C2F2000090F893
:10468000800240B1FFE740F22821C2F20001002081
:1046900081F88002FFE7D1E040F21870C2F200001A
:1046A000007C012811D1FFE740F22820C2F200006F
:1046B00090F8800240B1FFE740F22821C2F20001E9
:1046C000002081F88002FFE7B8E040F60400C2F263
:1046D0000000807A01460091012809D0FFE7009888
:1046E000022800F08980FFE70098032842D094E078
:1046F00040F22820C2F2000090F8800278B9FFE76B
:1047000040F22821C2F20001012081F8800240F627
:104710008851C2F200014FF4FA60086029E040F2CB
:104720002820C2F2000090F88002012818D1FFE78B
:1047300040F68850C2F20000006840B1FFE740F642
:104740008851C2F2000108680138086007E040F2B1
:104750002821C2F20001032081F88002FFE707E070
:1047600040F22821C2F20001032081F88002FFE715
:10477000FFE763E040F22820C2F2000090F88002D8
:1047800078B9FFE740F22821C2F20001012081F848
:10479000800240F68851C2F200014FF4FA600860CE
:1047A00029E040F22820C2F2000090F8800201289F
:1047B00018D1FFE740F68850C2F20000006840B10F
:1047C000FFE740F68851C2F200010868013808602E
:1047D00007E040F22821C2F20001022081F88002A5
:1047E000FFE707E040F22821C2F20001022081F831
:1047F0008002FFE7FFE721E040F22820C2F200003C
:1048000090F8800240B1FFE740F22821C2F2000197
:10481000002081F88002FFE710E040F22820C2F279
:10482000000090F8800240B1FFE740F22821C2F278
:104830000001002081F88002FFE7FFE701B0704728
:1048400084B002900191029890F820008DF8030046
:104850009DF80300012805D0FFE79DF8030002281A
:104860000AD1FFE7019A029801684869104348613C
:1048700000208DF80F0008E00299486A40F480207B
:10488000486201208DF80F00FFE79DF80F0004B08B
:104890007047000088B00690059104920393069833
:1048A00090F820008DF80700069800688068009056
:1048B0000598806808B9FFE700E0FFE79DF807006A
:1048C000012806D0FFE79DF80700022840F08D8000
:1048D000FFE79DF80300400700280CD4FFE79DF890
:1048E00003000007002806D4FFE79DF80300C00678
:1048F000002871D5FFE70098C0F30160029002988C
:10490000032809D3FFE70699486A40F4000048628B
:1049100001208DF81F0071E0029901208840039961
:1049200008600598806868B9FFE705980168C06865
:1049300040EA415006990968029A01EB0211C1F858
:1049400080010EE005994A688868C96840EAC2009B
:10495000084306990968029A01EB0211C1F8800127
:10496000FFE70598006906990968029A01EB0211B0
:10497000C1F884010598007D01280CD1FFE7069855
:104980000068029900EB0111D1F8840140F48070B5
:10499000C1F88401FFE70498406806990968029A03
:1049A00001EB0211C1F88C010498006806990968AE
:1049B000029A01EB0211C1F8880106980068029979
:1049C00000EB0111D1F8800140F00100C1F8800135
:1049D00000208DF81F0011E00699486A40F400108D
:1049E000486201208DF81F0008E00699486A40F4EB
:1049F0008020486201208DF81F00FFE79DF81F000E
:104A000008B0704786B00490039104980068019044
:104A1000049890F820008DF803009DF80300012809
:104A200006D0FFE79DF80300022840F0B080FFE7C2
:104A300046F20040C4F2000001900199D1F8000252
:104A400040F00100C1F800020199D1F8000220F401
:104A50007C50C1F800020398426A0199D1F8000223
:104A600040EA0220C1F800020398406900F01F01EB
:104A7000012088400290029A0199D1F81C029043CB
:104A8000C1F81C020398C069F0B9FFE7029A0199C6
:104A9000D1F80C029043C1F80C02039A9088D168B7
:104AA000526940EA0140019901EBC201C1F840029C
:104AB000039A10889168526940EA0140019901EB1C
:104AC000C201C1F84402FFE70398C06901281ED162
:104AD000FFE7029A0199D1F80C021043C1F80C02C9
:104AE000039A90881168526940EA0140019901EBEC
:104AF000C201C1F84002039A90899168526940EA64
:104B00000140019901EBC201C1F84402FFE703989B
:104B1000806940B9FFE7029A0199D1F804029043F5
:104B2000C1F8040207E0029A0199D1F80402104387
:104B3000C1F80402FFE70398006940B9FFE7029A51
:104B40000199D1F814029043C1F8140207E0029AC7
:104B50000199D1F814021043C1F81402FFE7039839
:104B6000006A012808D1FFE7029A0199D1F81C02D6
:104B70001043C1F81C02FFE70199D1F8000220F0B0
:104B80000100C1F8000200208DF8170008E0049928
:104B9000486A40F48020486201208DF81700FFE742
:104BA0009DF8170006B0704781B0009001B07047C3
:104BB00086B00490039102920193049890F820002B
:104BC0008DF803009DF80300012806D0FFE79DF84B
:104BD0000300022840F0D780FFE7039880B9FFE781
:104BE00004980068C068800748B9FFE70499486ADC
:104BF00040F40010486201208DF81700CCE00FE06F
:104C0000049800680069800748B9FFE70499486A7A
:104C100040F40010486201208DF81700BCE0FFE767
:104C200004980068039900EB0110D0F8B00100F07F
:104C30000400029988600298806858B9FFE70498D8
:104C40000068039900EB0110D0F8B001400D029903
:104C500008600AE004980068039900EB0110D0F89E
:104C6000B001C00802994860FFE704980068039902
:104C700000EB0110D0F8B00100F002000299C8600A
:104C800004980068039900EB0110D0F8B40100F01B
:104C90000F000299086104980068039900EB011065
:104CA000D0F8B40180B2000A0299886104980068C3
:104CB000039900EB0110D0F8B401000C029948618F
:104CC00004980068039900EB0110D0F8B80101992D
:104CD000087004980068039900EB0110D0F8B8013F
:104CE000000A0199487004980068039900EB0110CC
:104CF000D0F8B801000C01998870049800680399F5
:104D000000EB0110D0F8B801000E0199C8700498AA
:104D10000068039900EB0110D0F8BC0101990871FB
:104D200004980068039900EB0110D0F8BC01000A58
:104D30000199487104980068039900EB0110D0F8BC
:104D4000BC01000C0199887104980068039900EB7C
:104D50000110D0F8BC01000E0199C871039838B950
:104D6000FFE704980168C86840F02000C86006E0CA
:104D700004980168086940F020000861FFE70020FE
:104D80008DF8170008E00499486A40F480204862D2
:104D900001208DF81700FFE79DF8170006B0704757
:104DA00080B58AB009900020089009980068406991
:104DB0000790099800684068069009980068806824
:104DC000059009980068C068049009980068006917
:104DD000039009980068806902909DF81C00C00744
:104DE000002800F09480FFE79DF81400C00758B336
:104DF000FFE709980168012088609DF8140080078A
:104E0000002804D5FFE7099800F044FC1BE09DF85A
:104E100014004007002805D5FFE7089840F400601B
:104E200008900FE09DF814000007002805D5FFE763
:104E3000089840F48050089003E0099800F026FCA0
:104E4000FFE7FFE7FFE7FFE79DF81500C00760B346
:104E5000FFE7099801684FF4807088609DF815009D
:104E60008007002804D5FFE7099800F01BFC1BE031
:104E70009DF815004007002805D5FFE7089840F485
:104E8000005008900FE09DF815000007002805D598
:104E9000FFE7089840F48040089003E0099800F08C
:104EA000FDFBFFE7FFE7FFE7FFE79DF81600C00700
:104EB00060B3FFE7099801684FF4803088609DF87F
:104EC00016008007002804D5FFE7099800F0F2FBE0
:104ED0001BE09DF816004007002805D5FFE708985D
:104EE00040F4004008900FE09DF8160000070028ED
:104EF00005D5FFE7089840F48030089003E0099852
:104F000000F0D4FBFFE7FFE7FFE7FFE7FFE79DF8CF
:104F10001C000007002810D5FFE79DF81000C00610
:104F2000002809D5FFE7089840F400700890099818
:104F300001681020C860FFE7FFE79DF81C004007EC
:104F400000280FD5FFE79DF810000007002808D5BE
:104F5000FFE7099801680820C860099800F0CCFABA
:104F6000FFE7FFE79DF81C00800700280BD5FFE74F
:104F700009980068C068800720B1FFE7099800F031
:104F8000BFFAFFE7FFE79DF81C004006002810D598
:104F9000FFE79DF80C00C006002809D5FFE7089838
:104FA00040F4806008900998016810200861FFE7CC
:104FB000FFE79DF81C00800600280FD5FFE79DF84D
:104FC0000C000007002808D5FFE7099801680820B1
:104FD0000861099800F008FBFFE7FFE79DF81C0057
:104FE000C00600280BD5FFE7099800680069800714
:104FF00020B1FFE7099800F0FBFAFFE7FFE79DF813
:105000001E00800700280FD5FFE79DF81800C00696
:10501000002808D5FFE70998016810204860099822
:1050200000F0EAFAFFE7FFE79DF81E00C00778B13D
:10503000FFE79DF818000007002808D5FFE709984A
:10504000016808204860099800F038FBFFE7FFE797
:105050009DF81D000006002840F18D80FFE79DF8B7
:1050600018004007002840F18180FFE79DF81D00EF
:10507000C00750B1FFE79DF80800C00728B1FFE75F
:10508000089840F001000890FFE79DF81D00800798
:1050900000280BD5FFE79DF808008007002805D5FC
:1050A000FFE7089840F002000890FFE79DF81D0018
:1050B000400700280BD5FFE79DF8080040070028AF
:1050C00005D5FFE7089840F004000890FFE79DF839
:1050D0001D000007002848D5FFE79DF8080010F0E4
:1050E000700F42D0FFE7029800F070000146019176
:1050F000102814D0FFE70198202815D0FFE7019869
:10510000302816D0FFE70198402817D0FFE7019814
:10511000502818D0FFE70198602819D01DE00898A2
:1051200040F00800089019E0089840F0100008903E
:1051300014E0089840F0200008900FE0089840F034
:10514000400008900AE0089840F08000089005E0D0
:10515000089840F48070089000E0FFE70998016823
:10516000886920F070008861FFE7FFE7099801680F
:1051700004204860FFE7089848B1FFE7089A0999BA
:10518000486A104348620998FFF70EFDFFE70AB02E
:1051900080BD000080B584B00290029820B9FFE77E
:1051A00001208DF80F00E0E0029890F8200020B96F
:1051B000FFE7029800F0DEF8FFE702980168086850
:1051C00040F00100086000F037FF0190FFE702980F
:1051D00000684068C007A8B9FFE700F02DFF0199FB
:1051E000401A0B280DD3FFE70299486A40F40030BB
:1051F00048620299052081F8200001208DF80F00F7
:10520000B3E0E4E702980168086820F00200086053
:1052100000F012FF0190FFE70298006840688007E5
:10522000002815D5FFE700F007FF0199401A0B2869
:105230000DD3FFE70299486A40F4003048620299B2
:10524000052081F8200001208DF80F008DE0E3E7B4
:105250000298007E012807D1FFE7029801680868DC
:1052600040F08000086006E002980168086820F0BD
:1052700080000860FFE70298407E012807D1FFE721
:1052800002980168086840F04000086006E0029853
:105290000168086820F040000860FFE70298807EFF
:1052A000012807D1FFE702980168086840F0200054
:1052B000086006E002980168086820F02000086095
:1052C000FFE70298C07E012807D1FFE70298016836
:1052D000086820F01000086006E00298016808687D
:1052E00040F010000860FFE70298007F012807D116
:1052F000FFE702980168086840F00800086006E0CF
:1053000002980168086820F008000860FFE702982A
:10531000407F012807D1FFE702980168086840F044
:105320000400086006E002980168086820F00400A4
:105330000860FFE7029B19685A689868D3F80CC0A8
:1053400040EA0C00D3F810C040EA0C005B69184337
:10535000013A1043C861029900204862029A012173
:1053600082F820108DF80F00FFE79DF80F0004B0C1
:1053700080BD000080B590B00F9000200E900D9081
:105380000C900B900A900F98006846F20041C4F20E
:105390000001884249D1FFE740F2D460C2F2000028
:1053A0000168013101600068012812D1FFE7FFE7C1
:1053B0000020099043F64000C4F20200016841F069
:1053C00000710160006800F0007009900998FFE723
:1053D000FFE7FFE70020089043F63000C4F2020028
:1053E000016841F008010160006800F008000890C1
:1053F0000898FFE703200A9002210B9100210391F6
:105400000C910D9009200E9040F60040C4F202006D
:105410000AA900F01DFC039A14200490052100F055
:10542000E9FE049800F0DCFE64E00F98006846F6A0
:105430000001C4F2000188425BD1FFE7FFE70020D2
:10544000079043F64000C4F20200016841F0806119
:105450000160006800F0806007900798FFE740F265
:10546000D460C2F2000001680131016000680128C7
:1054700012D1FFE7FFE70020069043F64000C4F298
:105480000200016841F000710160006800F00070E6
:1054900006900698FFE7FFE7FFE70020059043F638
:1054A0003000C4F20200016841F0020101600068AE
:1054B00000F0020005900598FFE760200A900220A6
:1054C0000B90002001900C9003200D9009200E906D
:1054D00040F20040C4F202000AA900F0B9FB019AB0
:1054E00040200290052100F085FE029800F078FE31
:1054F000FFE7FFE710B080BD81B0009001B07047BA
:1055000080B58CB00B900B98002104AA02ABFFF77A
:105510004FFB04980190012837D0FFE70198B0F5C0
:10552000837F52D0FFE70198B0F5847F53D0FFE727
:10553000019840F2022188422FD0FFE7019840F203
:105540000321884239D0FFE70198B0F5017F2CD0C4
:10555000FFE7019840F2052188420ED0FFE701984D
:1055600040F2062188423CD1FFE70BF085FD04980C
:105570000B9902AA04F0E2FD34E005F0CBF80498A0
:105580000B9902AA04F0DAFD2CE005F0C3F80498A8
:105590000B9902AA04F0D2FD24E005F025FA049844
:1055A0000B9902AA04F0CAFD1CE0FCF7B1F90498BB
:1055B0000B9902AA04F0C2FD14E0FCF7DFF904988D
:1055C0000B9902AA04F0BAFD0CE0FCF739F902A825
:1055D000FCF73EF9FFE7FCF72BF902A8FCF7E4F82B
:1055E000FFE7FFE70CB080BD81B0009001B07047CD
:1055F00081B0009001B0704781B0009001B0704759
:1056000080B584B00290029890F8200001282FD134
:10561000FFE70299022081F82000029801680868DB
:1056200020F00100086000F007FD0190FFE70298FC
:1056300000684068C007A8B1FFE700F0FDFC0199D1
:10564000401A0B280DD3FFE70299486A40F4003056
:1056500048620299052081F8200001208DF80F0092
:105660000FE0E4E70299002048628DF80F0008E09F
:105670000299486A40F40020486201208DF80F002A
:10568000FFE79DF80F0004B080BD000081B00090DE
:1056900001B0704781B0009001B0704781B00090B8
:1056A00001B0704781B0009001B0704781B00090A8
:1056B00001B0704781B0009001B0704781B0009098
:1056C00001B0704780B586B005900020039040F28D
:1056D0008800C2F20000006848F2B511C1F64E31F0
:1056E000A0FB0110800A02900598806D019001983E
:1056F0000068049004980599C96DC8400007002807
:105700001AD5FFE70598006800684007002812D501
:10571000FFE705980168086820F004000860059814
:10572000C16D08208840019988600599486D40F056
:1057300001004865FFE7FFE704980599C96DC84077
:10574000C007A0B1FFE7059800684069000600287F
:105750000CD5FFE70598C16D01208840019988604C
:105760000599486D40F002004865FFE7FFE704989F
:105770000599C96DC8404007002814D5FFE7059872
:1057800000680068800700280CD5FFE70598C16D08
:1057900004208840019988600599486D40F0040014
:1057A0004865FFE7FFE704980599C96DC840C00642
:1057B000002847D5FFE70598006800680007002823
:1057C0003FD5FFE70598C16D10208840019988609A
:1057D000059800680068400300281AD5FFE705987F
:1057E000006800680003002809D4FFE70598006CF2
:1057F00020B1FFE70598016C8847FFE708E00598AE
:10580000806C20B1FFE70598816C8847FFE7FFE7D0
:1058100016E0059800680068C005002807D4FFE777
:1058200005980168086820F008000860FFE70598FF
:10583000006C20B1FFE70598016C8847FFE7FFE7A0
:10584000FFE7FFE704980599C96DC8408006002866
:1058500040F18D80FFE7059800680068C0060028C9
:1058600040F18480FFE70598C16D202088400199B0
:105870008860059890F83500052834D1FFE7059831
:105880000168086820F016000860059801684869FA
:1058900020F0800048610598006C20B9FFE705986A
:1058A000806C38B1FFE705980168086820F00800AF
:1058B0000860FFE70598C16D3F2088400199886026
:1058C0000599012081F83500FFE70599002081F84E
:1058D0003400FFE70598006D20B1FFE70598016DE2
:1058E0008847FFE77BE005980068006840030028D0
:1058F0001AD5FFE70598006800680003002809D45E
:10590000FFE70598406C20B1FFE70598416C884798
:10591000FFE708E00598C06B20B1FFE70598C16B71
:105920008847FFE7FFE720E0059800680068C005AA
:10593000002811D4FFE705980168086820F01000DE
:1059400008600599012081F83500FFE705990020DE
:1059500081F83400FFE7FFE70598C06B20B1FFE74F
:105960000598C16B8847FFE7FFE7FFE7FFE705986A
:10597000406DA0B3FFE70598406DC00730B3FFE767
:105980000599052081F8350005980168086820F020
:1059900001000860FFE703980130039002998842F4
:1059A00001D9FFE707E0FFE7059800680068C00736
:1059B0000028F0D1FFE70599012081F83500FFE7C5
:1059C0000599002081F83400FFE7FFE70598C06CD7
:1059D00020B1FFE70598C16C8847FFE7FFE706B0F5
:1059E00080BD000080B586B004900020039000F0D8
:1059F00023FB0290049820B9FFE701208DF81700DF
:105A0000A3E00498406A08B1FFE7FFE70499022089
:105A100081F83500FFE70499002081F83400FFE7A2
:105A200004980168086820F001000860FFE7049806
:105A300000680068C00790B1FFE700F0FDFA029926
:105A4000401A06280AD3FFE70499202048650499E4
:105A5000032081F835008DF8170076E0E7E7049819
:105A6000006800680390039848F23F01CFF21001EC
:105A700008400390049900914868D1F808C0CB68A9
:105A80000A6940EA0C00184310434A6910438A69C6
:105A90001043CA691043096A0143039808430390FD
:105AA0000498406A042808D1FFE70499C86A096B82
:105AB0000143039808430390FFE70398049909689A
:105AC00008600498006840690390039820F007007C
:105AD00003900498416A0398084303900498406A2D
