:020000040800F2
:10000000C0BA002075020008E1A400089989000820
:10001000CDA200085D100008814E0108000000001C
:10002000000000000000000000000000410701087F
:100030006927000800000000E1AB0008090801087A
:100040008F0200088F0200088F0200088F0200084C
:100050008F0200088F0200088F0200088F0200083C
:100060008F0200088F0200088D2700088F02000809
:100070009D1400088F0200088F0200088F020008FC
:100080008F0200088F0200088F0200088F0200080C
:10009000611000088F0200088F02000899270008ED
:1000A0008F0200088F0200088F0200088F020008EC
:1000B0001509010845090108590901088F020008BE
:1000C0008F0200088F0200088F0200088F020008CC
:1000D0008F0200088F0200088F02000855110108E6
:1000E0008F0200088F0200088F0200088F020008AC
:1000F0008F0200088F0200088F0200088F0200089C
:100100008F0200088F0200088F0200088F0200088B
:100110008F0200088F0200086D090108810901089B
:10012000AD1400088125000891250008A1250008CC
:100130008F0200088F0200088F0200088F0200085B
:10014000711000088F0200088F0200089DA50008AA
:100150008F020008B1250008C12500088912010896
:100160008F0200088F0200088F0200088F0200082B
:100170008F0200088F0200088F02000800000000B4
:100180008F0200088F02000800F002F800F062F809
:1001900014A696E8000CB244B344DA4501D100F04D
:1001A00059F8BAE80F000FA696E83000A5EB040551
:1001B00004EB0607AAEB0704A7F101074FEA1515A0
:1001C0004FEA3414A4F10104AC4201D300F042F828
:1001D00013F0010F18BFFB1A43F0010300F001F800
:1001E000DBE71847889A0100A89A01000A4410F832
:1001F000014B14F00F0508BF10F8015B240908BF7C
:1002000010F8014B6D1E05D010F8013B6D1E01F872
:10021000013BF9D1641E03D0641E01F8015BFBD1E0
:100220009142E4D37047000070470000002300248F
:1002300000250026103A28BF78C1FBD8520728BFF6
:1002400030C148BF0B6070471FB519F0DCFA1FBD05
:1002500010B510BD00F05BF91146FFF7F5FF16F081
:1002600009F900F079F903B4FFF7F2FF03BC00F0DD
:100270007DF900000948804709480047FEE7FEE78E
:10028000FEE7FEE7FEE7FEE7FEE7FEE7FEE7FEE746
:1002900004480549054A064B70470000010901085A
:1002A00089010008C07A0020C0BA0020C09A00204E
:1002B000C09A002053EA020C00F069802DE9F04B4F
:1002C0004FF00006002B1FBFB3FA83F503FA05F4C5
:1002D00024FA05F65E4012BF1643B2FA82F502FA1E
:1002E00005F4C5F120051EBF22FA05FC44EA0C0402
:1002F000203556EA044C4FEA144418BF641C4FF0F2
:1003000000084FF00009904271EB030C39D300292B
:1003100019BFB1FA81F701FA07F6B0FA80F700FACF
:1003200007F6C7F120071EBF20FA07FC46EA0C06B5
:100330002037B6FBF4FCA7EB0507103F07F01F0BB7
:10034000CBF120062CFA06F60CFA0BFB44BFB346A1
:100350000026202FA4BF5E464FF0000B5BEA060C80
:1003600008BF4FF0010B19EB0B0948EB0608ABFB7C
:10037000027C06FB02CC0BFB03CCC01B71EB0C0117
:10038000C1E70B46024641464846BDE8F08B13B52F
:10039000084318BF4FF0FF300146AFF30080BDE8BF
:1003A0001C407047032A40F2308010F0030C00F02C
:1003B000158011F8013BBCF1020F624498BF11F89F
:1003C00001CB00F8013B38BF11F8013BA2F1040258
:1003D00098BF00F801CB38BF00F8013B11F00303D0
:1003E00000F05A80083AC0F0088051F8043B083AFF
:1003F00051F804CBA0E80810F5E7121D5CBF51F8D6
:10040000043B40F8043BAFF30080D20724BF11F84F
:10041000013B11F801CB48BF11F8012B24BF00F8B4
:10042000013B00F801CB48BF00F8012B70474FF0AB
:10043000000200B5134694469646203922BFA0E834
:100440000C50A0E80C50B1F12001BFF4F7AF090740
:1004500028BFA0E80C5048BF0CC05DF804EB890031
:1004600028BF40F8042B08BF704748BF20F8022B74
:1004700011F0804F18BF00F8012B7047704770478C
:10048000704710B500F03EF8006810BD10B5044686
:1004900000F038F8046010BD10B5203AC0F00B80B1
:1004A000B1E81850A0E81850B1E81850A0E818506A
:1004B000203ABFF4F5AF5FEA027C24BFB1E81850E0
:1004C000A0E8185044BF18C918C0BDE810405FEA42
:1004D000827C24BF51F8043B40F8043B08BF7047BE
:1004E000D20728BF31F8023B48BF11F8012B28BFC3
:1004F00020F8023B48BF00F8012B704700487047C6
:1005000020020020004870472002002070477546F6
:10051000FFF7F4FFAE4605006946534620F007009A
:10052000854618B020B5FFF7B3FEBDE820404FF078
:1005300000064FF000074FF000084FF0000BAC46EC
:10054000ACE8C009ACE8C009ACE8C009ACE8C00937
:1005500021F007018D46704710B50446AFF30080C7
:100560002046BDE81040FFF77EBE0000014918207C
:10057000ABBEFEE72600020080B590B00F908DED77
:100580000E0A0D910C920F980D9991ED000AD1ED84
:10059000010A91ED022AB1EE400A9FED361A31EEC2
:1005A000421A0C9991ED004A91ED012A91ED023A1F
:1005B000F1EE441AF1EE432A9FED2F4AB0EE443A91
:1005C000F0EE443A09F08CF843F29870C2F2000061
:1005D0000A9090ED000B8DED000B40F2E810C2F296
:1005E00000000B9000680690013818F0CBFD41EC3C
:1005F000100B8DED020B0D98806819F093F89DEDAE
:10060000001B9DED020B41EC120B8DED042B51EC08
:10061000110B53EC102B18F0CDFD9DED040B41ECAC
:10062000110B51EC110B53EC102B18F08DFF0246FF
:10063000069807920A46079942EC101B8DED080BAD
:1006400018F0A0FD9DED081B41EC100B51EC110BB7
:1006500053EC102B18F03CFC02460A980B460B9901
:1006600043EC102B80ED000B08680130086010B0DF
:1006700080BD00BF4260653B0000000040F63C01C9
:10068000C2F20001002048617047000080B584B0CC
:1006900040F25030C2F2000090F8800248B1FFE70B
:1006A00040F25030C2F2000090F8800201280CD1D4
:1006B000FFE740F25031C2F2000100208864C864B4
:1006C000A1F87A02A1F87C0270E040F25030C2F248
:1006D000000090F88002022829D1FFE740F2503054
:1006E000C2F20000039000218164C16490ED070A0A
:1006F00000F5F070DFED2E0ACDED020A0AF01AF9CE
:10070000DDED020A0398BDEEC00A10EE101AA0F843
:100710007A1290ED080A00F50A700AF00BF90399B5
:10072000BDEEC00A10EE100AA1F87C023DE040F2D6
:100730005030C2F2000090F88002032834D1FFE765
:1007400000F076F840F25030C2F20000019090EDD7
:10075000070A40F21801C2F200010968494201EE9D
:10076000101AF8EEC10A00F5F0700AF0E3F80198EB
:10077000BDEEC00A10EE101AA0F87A1290ED080A29
:1007800040F21C01C2F2000191ED001AF8EEC10A1C
:1007900000F50A700AF0CEF80199BDEEC00A10EE1D
:1007A000100AA1F87C02FFE7FFE7FFE704B080BD75
:1007B0000000000040F63C01C2F200010020C860C9
:1007C0007047000080B584B040F25030C2F20000A3
:1007D000009000F5F07040F20002C2F20002002129
:1007E00001919FED0D0A8DED020ADFED0C0ACDEDB2
:1007F000030A0AF0C5F9009801999DED020ADDEDA2
:10080000030A00F50A7040F20C02C2F200020AF07C
:10081000B7F904B080BD00BF000080460080BB4532
:1008200040F63C01C2F20001002008617047000060
:1008300040F6C400C2F20000C07A022809D1FFE7E6
:1008400040F25030C2F2000090F88002032801D03C
:10085000FFE7E1E043F28070C2F20000D0F803004D
:1008600000EE100ABBEE0C1A30EE010A40F2E02056
:10087000C2F2000080ED000A90ED000A40F2DC2098
:10088000C2F2000090ED001AB4EE410AF1EE10FA47
:1008900001D1FFE7C0E040F2E020C2F2000090ED9D
:1008A000000A9FED5E1AB4EE410AF1EE10FA0EDA7C
:1008B000FFE740F2E020C2F2000090ED000A9FED59
:1008C000581AB4EE410AF1EE10FA23DCFFE740F2C9
:1008D000E421C2F2000108680130086040F2E02023
:1008E000C2F2000090ED000A40F2DC20C2F20000EB
:1008F00090ED001A20EE010AB5EE400AF1EE10FA72
:1009000007DAFFE740F2E421C2F2000100200860AC
:10091000FFE7FFE743F28070C2F20000D0F8030067
:1009200000EE100AB3EE0E1AB4EE410AF1EE10FA20
:1009300010DAFFE743F28070C2F20000D0F8030043
:1009400000EE100ABBEE0B1AB4EE410AF1EE10FAFB
:100950001FDAFFE740F2E020C2F2000090ED001A3B
:1009600040F2DC10C2F2000090ED000AB8EEC02A9E
:1009700040F21800C2F2000090ED000AB8EEC00A82
:1009800021EE021A30EE410ABDEEC00A80ED000AE7
:100990002DE040F2E420C2F200000068052825DBCB
:1009A000FFE740F2E020C2F2000090ED001A40F2B2
:1009B000DC10C2F2000090ED000AB8EEC02A40F24E
:1009C0001800C2F2000090ED000AB8EEC00A21EE55
:1009D000021A30EE410ABDEEC00A80ED000A40F274
:1009E000E421C2F2000100200860FFE7FFE740F2C7
:1009F0001800C2F20000006840F21C01C2F20001BF
:100A0000086040F2E020C2F20000006840F2DC2101
:100A1000C2F200010860FFE7704700BF6666A63FAC
:100A20006666A6BF80B582B00190072015F0BAFDBA
:100A3000FFE700F075F920B1FFE7642015F0B2FD83
:100A4000F7E742F29012C2F2000202F11400111D07
:100A5000103200F09BF943F24810C2F2000049F650
:100A6000EC12C0F6010200219FED210ADFED210A00
:100A70000AF086F842F69850C2F200001021C161D7
:100A800006F0D8FA18B1FFE701F0D6FEFFE740F212
:100A9000E010C2F2000042F26021C2F2000108221E
:100AA0000FF052FC43F24411C2F200010120087021
:100AB000FFE742F29010C2F2000000F11401021DA3
:100AC00040F24C00C2F2000000909FED0B0AFFF7CD
:100AD00053FD009840F60001C2F200010A1D01F129
:100AE000080315F0B9F9012015F05CFDE1E700BF3E
:100AF00000A08C45008089456F12833A80B50020A4
:100B0000C4F202001021012204F0C0F880BD0000F0
:100B100080B50020C4F202001021002204F0B6F8D3
:100B200080BD00007047000080B540F20040C4F274
:100B300002000122114604F0A9F880BD80B540F200
:100B40000040C4F202000121002204F09FF880BDA1
:100B500085B004900391029204990878497840EA9C
:100B60000120ADF80600BDF9060000EE100AB8EE4F
:100B7000C00A40F22000C2F2000090ED001A20EE00
:100B8000010A039981ED000A049A9178D27841EA2A
:100B90000221ADF80610BDF9061000EE101AB8EEED
:100BA000C00A90ED001A20EE010A039981ED010AB6
:100BB000049A1179527941EA0221ADF80610BDF983
:100BC000061000EE101AB8EEC00A90ED001A20EEE2
:100BD000010A039880ED020A04988179C279007AAB
:100BE000000440EA0220084400909DED000AB8EE9F
:100BF000400A9FED041A20EE010A029880ED000AD7
:100C000005B0704700401C427047000080B582B0BC
:100C1000ADF80600BDF8060015F0C4FC02B080BDBA
:100C200080B582B0ADF80600BDF8060014F0FCFEF9
:100C300002B080BD84B003900291019203990878BC
:100C4000497840EA0120ADF80200BDF9020000EE4B
:100C5000100AB8EEC00A40F22400C2F2000090ED83
:100C6000001A20EE010A029981ED000ABDF9021076
:100C700000EE101AB8EEC00A9FED272A80EE020A95
:100C80009FED261A20EE010A019981ED000A039AD0
:100C90009178D27841EA0221ADF80210BDF9021034
:100CA00000EE101AB8EEC00A90ED003A20EE030AEA
:100CB000029981ED010ABDF9021000EE101AB8EE9A
:100CC000C00A80EE020A20EE010A019981ED010AB4
:100CD000039A1179527941EA0221ADF80210BDF967
:100CE000021000EE101AB8EEC00A90ED003A20EEA5
:100CF000030A029880ED020ABDF9020000EE100A14
:100D0000B8EEC00A80EE020A20EE010A019880EDDA
:100D1000020A04B0704700BF000000470000FA4418
:100D200080B582B000208DF80700FFF7FBFEFFF7CB
:100D30006BFF14F01BFA38B1FFE79DF8070040F095
:100D400080008DF8070008E014F048F901469DF88E
:100D5000070008438DF80700FFE714F085FC38B161
:100D6000FFE79DF8070040F040008DF8070008E01D
:100D700014F0D6FB01469DF8070008438DF80700E4
:100D8000FFE79DF8070002B080BD000080B588B085
:100D90000790069105920020009004900390FFF7C1
:100DA000B7FE922000F006F9122003A90191062255
:100DB00000F0CCF8FFF7A2FE9DF80C009DF80D1096
:100DC00040EA0120ADF80A00BDF90A0000EE100A61
:100DD000B8EEC00A40F22000C2F2000090ED001A06
:100DE00020EE010A069981ED000A9DF80E109DF88B
:100DF0000F2041EA0221ADF80A10BDF90A1000EEF9
:100E0000101AB8EEC00A90ED001A20EE010A0699F9
:100E100081ED010A9DF810109DF8112041EA022190
:100E2000ADF80A10BDF90A1000EE101AB8EEC00AAB
:100E300090ED001A20EE010A069880ED020AFFF7F5
:100E40007DFE00980199082200F080F8FFF76CFE03
:100E50009DF80C000F2844D1FFE79DF80E009DF887
:100E60000F1040EA0120ADF80A00BDF90A0000EEBB
:100E7000100AB8EEC00A40F22400C2F2000090ED61
:100E8000001A20EE010A079981ED000A9DF8101062
:100E90009DF8112041EA0221ADF80A10BDF90A10AF
:100EA00000EE101AB8EEC00A90ED001A20EE010A0A
:100EB000079981ED010A9DF812109DF8132041EA6F
:100EC0000221ADF80A10BDF90A1000EE101AB8EEB2
:100ED000C00A90ED001A20EE010A079880ED020A80
:100EE000FFE7FFF715FEA22000F064F8222003A917
:100EF000022200F02BF8FFF701FE9DF80C009DF890
:100F00000D10C00040EA5110ADF80A00BDF90A000A
:100F1000B0F5806F07DBFFE7BDF80A00A0F50060C1
:100F2000ADF80A00FFE7BDF90A0000EE100AB8EEBE
:100F3000C00AB4EE001A20EE010AB3EE071A30EE32
:100F4000010A059880ED000A08B080BD80B584B024
:100F50008DF80F0002918DF807209DF80F0040F0EA
:100F6000800000F027F8FFE79DF8070070B1FFE769
:100F7000552000F01FF80299087002980130029085
:100F80009DF8070001388DF80700EDE704B080BD3B
:100F900080B582B08DF8070000919DF8070040F001
:100FA000800000F007F8552000F004F80099087060
:100FB00002B080BD80B582B08DF8070069464FF45D
:100FC0007A70086042F69850C2F200000DF10701F5
:100FD0000DF10602012306F077F99DF8060002B034
:100FE00080BD000083B00290019102990878497891
:100FF000C00040EA5110ADF80200BDF90200B0F5A2
:10100000806F07DBFFE7BDF80200A0F50060ADF8D8
:101010000200FFE7BDF9020000EE100AB8EEC00AB8
:10102000B4EE001A20EE010AB3EE071A30EE010A00
:10103000019880ED000A03B07047000080B582B0CF
:101040008DF807008DF806109DF80700FFF7B2FF36
:101050009DF80600FFF7AEFF02B080BDFFE7FEE798
:1010600080B542F24850C2F2000002F0F1FC80BDAF
:1010700080B542F27050C2F2000002F0E9FC80BD7F
:1010800084B08DF80F000291ADF806209DF80F0096
:101090000146009123281DD80099DFE801F01213C2
:1010A0001415161B1B1B1B1B1B1B1B1B1B1B1B1BA2
:1010B0001B1B1B1B1B1B1B1B1B1B1B1B1B1B171887
:1010C000191A08E007E006E005E004E003E002E0AA
:1010D00001E000E0FFE7002004B070470020704707
:1010E00080B582B042F26C20C2F20000009041F65E
:1010F0005411C2F200010022019210F0EDFC0098A0
:1011000041F25411C2F2000110F0C8FC019802B083
:1011100080BD000080B584B003900291039942F233
:101120006C20C2F20000019010F0B8FC019810F0A1
:101130005BFC03980299097813F0A4FE002004B028
:1011400080BD000083B0029001918DF80320002043
:101150008DF802009DF9020003B0704780B586B09B
:101160000490ADF80E1000208DF80D0042F26C20B6
:10117000C2F20000D0F8BC0202900298D0F814022B
:1011800020B1FFE701208DF8170013E00499BDF8A6
:101190000E2042F26C20C2F20000019010F09CFC84
:1011A000019810F0A3FD8DF80D009DF80D008DF84D
:1011B0001700FFE79DF8170006B080BD80B588B026
:1011C00007904FF4FA7015F0EDF940F25030C2F28A
:1011D0000000039000F5F07040F20002C2F200023D
:1011E000002104919FED3B0A8DED050ADFED3A0ADF
:1011F000CDED060A09F0C4FC039804999DED050A9B
:10120000DDED060A00F50A7040F20C02C2F200029F
:1012100009F0B6FC40F2DC5003F0DEFA14F07CFC7E
:10122000FFE714F07DFE014640F6C400C2F2000064
:101230001622FFF7B7F814F079FE014640F2992024
:10124000C2F200001922FFF7ADF840F6B000C2F27A
:10125000000009F0FFFC14F033FC40F63400C2F249
:10126000000001F083FA02F04DF814F029FC01F0BF
:1012700065FD01F01FFE01F03DFF09F043FEFFF7A1
:10128000A1FA01F073FE01F023FB09F0EDFDFFF779
:10129000FDF940F2503CC2F2000CCDF808C0BCF899
:1012A00070024042BCF97212BCF97822BCF97A3261
:1012B000BCF97CC2EE46CEF800C000B201F06AFE76
:1012C000029890ED9D0A01F027FA012015F06AF9C5
:1012D000A7E700BF000080460080BB4580B584B012
:1012E000039002910192009342F2C010C2F20000FA
:1012F00000218160C160019901610069092807D35B
:10130000FFE742F2C011C2F2000108200861FFE7C6
:10131000029842F2C011C2F2000108600398009ADC
:1013200043F27873C2F2000302F00CF904B080BDFE
:1013300040F63C01C2F200010868013008604868CC
:1013400001304860886801308860C8680130C86032
:1013500008690130086148690130486188690130D5
:101360008861704740F63C00C2F200000068C9285E
:1013700007D3FFE740F65801C2F2000101200870D0
:1013800006E040F65801C2F2000100200870FFE7B5
:1013900040F63C00C2F200004068C92807D3FFE7CE
:1013A00040F65801C2F200010120487006E040F604
:1013B0005801C2F2000100204870FFE740F63C00EF
:1013C000C2F200008068C92807D3FFE740F6580141
:1013D000C2F200010120887006E040F65801C2F216
:1013E000000100208870FFE740F63C00C2F20000D8
:1013F000C068C92807D3FFE740F65801C2F20001D0
:101400000120C87006E040F65801C2F20001002039
:10141000C870FFE740F63C00C2F200000069C9282E
:1014200007D3FFE740F65801C2F20001012008711E
:1014300006E040F65801C2F2000100200871FFE703
:1014400040F63C00C2F200004069C92807D3FFE71C
:1014500040F65801C2F200010120487106E040F652
:101460005801C2F2000100204871FFE740F63C003D
:10147000C2F200008069C92807D3FFE740F658018F
:10148000C2F200010120887106E040F65801C2F264
:10149000000100208871FFE77047000080B542F22C
:1014A0001870C2F2000002F04FFF80BD80B5E2B0BC
:1014B00042F69850C2F20000C06C006846F25941F2
:1014C000C4F202018842C0F0F380FFE746F2044014
:1014D000C4F202000068619042F69850C2F2000027
:1014E000C06C006846F21001C4F20201884203D1C8
:1014F000FFE720206090D6E042F69850C2F200004C
:10150000C06C006846F21041C4F20201884203D167
:10151000FFE720205F90C3E042F69850C2F200003F
:10152000C06C006846F27001C4F20201884203D127
:10153000FFE720205E90B0E042F69850C2F2000033
:10154000C06C006846F27041C4F20201884203D1C7
:10155000FFE720205D909DE042F69850C2F2000027
:10156000C06C006846F22801C4F20201884204D12E
:10157000FFE74FF400605C9089E042F69850C2F2B9
:101580000000C06C006846F22841C4F202018842A3
:1015900004D1FFE74FF400605B9075E042F698508D
:1015A000C2F20000C06C006846F28801C4F2020179
:1015B000884204D1FFE74FF400605A9061E042F6A0
:1015C0009850C2F20000C06C006846F28841C4F234
:1015D0000201884204D1FFE74FF4006059904DE0CA
:1015E00042F69850C2F20000C06C006846F240011A
:1015F000C4F20201884204D1FFE74FF40010589072
:1016000039E042F69850C2F20000C06C006846F221
:101610004041C4F20201884204D1FFE74FF40010B8
:10162000579025E042F69850C2F20000C06C006866
:1016300046F2A001C4F20201884204D1FFE74FF450
:101640000010569011E042F69850C2F20000C06CB3
:10165000016846F2A042C4F202024FF000609142DB
:1016600008BF4FF400105690FFE756985790FFE7D9
:1016700057985890FFE758985990FFE759985A9013
:10168000FFE75A985B90FFE75B985C90FFE75C98F8
:101690005D90FFE75D985E90FFE75E985F90FFE7E3
:1016A0005F986090FFE76198609908405590F7E275
:1016B00042F69850C2F20000C06C006846F2B901D0
:1016C000C4F202018842C0F0F380FFE746F2004016
:1016D000C4F202000068549042F69850C2F2000032
:1016E000C06C006846F21001C4F20201884203D1C6
:1016F000FFE720205390D6E042F69850C2F2000057
:10170000C06C006846F21041C4F20201884203D165
:10171000FFE720205290C3E042F69850C2F200004A
:10172000C06C006846F27001C4F20201884203D125
:10173000FFE720205190B0E042F69850C2F200003E
:10174000C06C006846F27041C4F20201884203D1C5
:10175000FFE7202050909DE042F69850C2F2000032
:10176000C06C006846F22801C4F20201884204D12C
:10177000FFE74FF400604F9089E042F69850C2F2C4
:101780000000C06C006846F22841C4F202018842A1
:1017900004D1FFE74FF400604E9075E042F6985098
:1017A000C2F20000C06C006846F28801C4F2020177
:1017B000884204D1FFE74FF400604D9061E042F6AB
:1017C0009850C2F20000C06C006846F28841C4F232
:1017D0000201884204D1FFE74FF400604C904DE0D5
:1017E00042F69850C2F20000C06C006846F2400118
:1017F000C4F20201884204D1FFE74FF400104B907D
:1018000039E042F69850C2F20000C06C006846F21F
:101810004041C4F20201884204D1FFE74FF40010B6
:101820004A9025E042F69850C2F20000C06C006871
:1018300046F2A001C4F20201884204D1FFE74FF44E
:101840000010499011E042F69850C2F20000C06CBE
:10185000016846F2A042C4F202024FF000609142D9
:1018600008BF4FF400104990FFE749984A90FFE7FE
:101870004A984B90FFE74B984C90FFE74C984D905F
:10188000FFE74D984E90FFE74E984F90FFE74F9837
:101890005090FFE750985190FFE751985290FFE722
:1018A00052985390FFE75498539908404890F4E1B8
:1018B00042F69850C2F20000C06C006846F259012E
:1018C000C4F202018842C0F0F380FFE746F2040050
:1018D000C4F202000068479042F69850C2F200003D
:1018E000C06C006846F21001C4F20201884203D1C4
:1018F000FFE720204690D6E042F69850C2F2000062
:10190000C06C006846F21041C4F20201884203D163
:10191000FFE720204590C3E042F69850C2F2000055
:10192000C06C006846F27001C4F20201884203D123
:10193000FFE720204490B0E042F69850C2F2000049
:10194000C06C006846F27041C4F20201884203D1C3
:10195000FFE7202043909DE042F69850C2F200003D
:10196000C06C006846F22801C4F20201884204D12A
:10197000FFE74FF40060429089E042F69850C2F2CF
:101980000000C06C006846F22841C4F2020188429F
:1019900004D1FFE74FF40060419075E042F69850A3
:1019A000C2F20000C06C006846F28801C4F2020175
:1019B000884204D1FFE74FF40060409061E042F6B6
:1019C0009850C2F20000C06C006846F28841C4F230
:1019D0000201884204D1FFE74FF400603F904DE0E0
:1019E00042F69850C2F20000C06C006846F2400116
:1019F000C4F20201884204D1FFE74FF400103E9088
:101A000039E042F69850C2F20000C06C006846F21D
:101A10004041C4F20201884204D1FFE74FF40010B4
:101A20003D9025E042F69850C2F20000C06C00687C
:101A300046F2A001C4F20201884204D1FFE74FF44C
:101A400000103C9011E042F69850C2F20000C06CC9
:101A5000016846F2A042C4F202024FF000609142D7
:101A600008BF4FF400103C90FFE73C983D90FFE723
:101A70003D983E90FFE73E983F90FFE73F984090AB
:101A8000FFE740984190FFE741984290FFE7429876
:101A90004390FFE743984490FFE744984590FFE761
:101AA00045984690FFE74798469908403B90F1E0FB
:101AB00046F20000C4F2020000683A9042F69850E4
:101AC000C2F20000C06C006846F21001C4F20201CC
:101AD000884203D1FFE720203990D6E042F69850A3
:101AE000C2F20000C06C006846F21041C4F202016C
:101AF000884203D1FFE720203890C3E042F6985097
:101B0000C2F20000C06C006846F27001C4F202012B
:101B1000884203D1FFE720203790B0E042F698508A
:101B2000C2F20000C06C006846F27041C4F20201CB
:101B3000884203D1FFE7202036909DE042F698507E
:101B4000C2F20000C06C006846F22801C4F2020133
:101B5000884204D1FFE74FF40060359089E042F6F7
:101B60009850C2F20000C06C006846F22841C4F2EE
:101B70000201884204D1FFE74FF40060349075E021
:101B800042F69850C2F20000C06C006846F288012C
:101B9000C4F20201884204D1FFE74FF400603390A1
:101BA00061E042F69850C2F20000C06C006846F254
:101BB0008841C4F20201884204D1FFE74FF400607B
:101BC00032904DE042F69850C2F20000C06C0068BE
:101BD00046F24001C4F20201884204D1FFE74FF40B
:101BE0000010319039E042F69850C2F20000C06C0B
:101BF000006846F24041C4F20201884204D1FFE786
:101C00004FF40010309025E042F69850C2F20000E8
:101C1000C06C006846F2A001C4F20201884204D1FF
:101C2000FFE74FF400102F9011E042F69850C2F2F7
:101C30000000C06C016846F2A042C4F202024FF0FC
:101C40000060914208BF4FF400102F90FFE72F98DB
:101C50003090FFE730983190FFE731983290FFE7FE
:101C600032983390FFE733983490FFE734983590FB
:101C7000FFE735983690FFE736983790FFE73798BB
:101C80003890FFE738983990FFE73A98399908403B
:101C90003B90FFE73B984890FFE748985590FFE757
:101CA0005598002800F06984FFE742F69850C2F288
:101CB0000000C06C006846F25941C4F2020188423B
:101CC000C0F0EF80FFE742F69850C2F20000C06C0F
:101CD000006846F21001C4F20201884203D1FFE716
:101CE00020202E90D6E042F69850C2F20000C06C40
:101CF000006846F21041C4F20201884203D1FFE7B6
:101D000020202D90C3E042F69850C2F20000C06C33
:101D1000006846F27001C4F20201884203D1FFE775
:101D200020202C90B0E042F69850C2F20000C06C27
:101D3000006846F27041C4F20201884203D1FFE715
:101D400020202B909DE042F69850C2F20000C06C1B
:101D5000006846F22801C4F20201884204D1FFE77C
:101D60004FF400602A9089E042F69850C2F20000D9
:101D7000C06C006846F22841C4F20201884204D1D6
:101D8000FFE74FF40060299075E042F69850C2F2E8
:101D90000000C06C006846F28801C4F2020188426B
:101DA00004D1FFE74FF40060289061E042F69850BC
:101DB000C2F20000C06C006846F28841C4F2020121
:101DC000884204D1FFE74FF4006027904DE042F6CF
:101DD0009850C2F20000C06C006846F24001C4F2A4
:101DE0000201884204D1FFE74FF40010269039E049
:101DF00042F69850C2F20000C06C006846F24041C2
:101E0000C4F20201884204D1FFE74FF4001025908C
:101E100025E042F69850C2F20000C06C006846F21D
:101E2000A001C4F20201884204D1FFE74FF4001080
:101E3000249011E042F69850C2F20000C06C016894
:101E400046F2A042C4F202024FF00060914208BF85
:101E50004FF400102490FFE724982590FFE7259881
:101E60002690FFE726982790FFE727982890FFE71E
:101E700028982990FFE729982A90FFE72A982B9025
:101E8000FFE72B982C90FFE72C982D90FFE72D98DB
:101E90002E90FFE72E9846F20C41C4F20201086032
:101EA000EDE242F69850C2F20000C06C006846F2C3
:101EB000B901C4F202018842C0F0F080FFE742F6A7
:101EC0009850C2F20000C06C006846F21001C4F2E3
:101ED0000201884203D1FFE720202390D6E042F69A
:101EE0009850C2F20000C06C006846F21041C4F283
:101EF0000201884203D1FFE720202290C3E042F68E
:101F00009850C2F20000C06C006846F27001C4F242
:101F10000201884203D1FFE720202190B0E042F681
:101F20009850C2F20000C06C006846F27041C4F2E2
:101F30000201884203D1FFE7202020909DE042F675
:101F40009850C2F20000C06C006846F22801C4F24A
:101F50000201884204D1FFE74FF400601F9089E03E
:101F600042F69850C2F20000C06C006846F2284168
:101F7000C4F20201884204D1FFE74FF400601E90D2
:101F800075E042F69850C2F20000C06C006846F25C
:101F90008801C4F20201884204D1FFE74FF40060D7
:101FA0001D9061E042F69850C2F20000C06C0068DB
:101FB00046F28841C4F20201884204D1FFE74FF49F
:101FC00000601C904DE042F69850C2F20000C06CD8
:101FD000006846F24001C4F20201884204D1FFE7E2
:101FE0004FF400101B9039E042F69850C2F2000006
:101FF000C06C006846F24041C4F20201884204D13C
:10200000FFE74FF400101A9025E042F69850C2F214
:102010000000C06C006846F2A001C4F202018842D0
:1020200004D1FFE74FF40010199011E042F69850E8
:10203000C2F20000C06C016846F2A042C4F2020283
:102040004FF00060914208BF4FF400101990FFE775
:1020500019981A90FFE71A981B90FFE71B981C909D
:10206000FFE71C981D90FFE71D981E90FFE71E9844
:102070001F90FFE71F982090FFE720982190FFE72F
:1020800021982290FFE722982390FFE7239846F2B9
:102090000841C4F2020108601890EEE142F698503F
:1020A000C2F20000C06C006846F25901C4F202019D
:1020B0008842C0F0F080FFE742F69850C2F200007C
:1020C000C06C006846F21001C4F20201884203D1DC
:1020D000FFE720201790D6E042F69850C2F20000A9
:1020E000C06C006846F21041C4F20201884203D17C
:1020F000FFE720201690C3E042F69850C2F200009D
:10210000C06C006846F27001C4F20201884203D13B
:10211000FFE720201590B0E042F69850C2F2000090
:10212000C06C006846F27041C4F20201884203D1DB
:10213000FFE7202014909DE042F69850C2F2000084
:10214000C06C006846F22801C4F20201884204D142
:10215000FFE74FF40060139089E042F69850C2F216
:102160000000C06C006846F22841C4F202018842B7
:1021700004D1FFE74FF40060129075E042F69850EA
:10218000C2F20000C06C006846F28801C4F202018D
:10219000884204D1FFE74FF40060119061E042F6FD
:1021A0009850C2F20000C06C006846F28841C4F248
:1021B0000201884204D1FFE74FF4006010904DE027
:1021C00042F69850C2F20000C06C006846F240012E
:1021D000C4F20201884204D1FFE74FF400100F90CF
:1021E00039E042F69850C2F20000C06C006846F236
:1021F0004041C4F20201884204D1FFE74FF40010CD
:102200000E9025E042F69850C2F20000C06C0068C3
:1022100046F2A001C4F20201884204D1FFE74FF464
:1022200000100D9011E042F69850C2F20000C06C10
:10223000016846F2A042C4F202024FF000609142EF
:1022400008BF4FF400100D90FFE70D980E90FFE7C8
:102250000E980F90FFE70F981090FFE710981190DD
:10226000FFE711981290FFE712981390FFE7139879
:102270001490FFE714981590FFE715981690FFE764
:1022800016981790FFE7179846F20C01C4F2020166
:1022900008600C90EEE042F69850C2F20000C06C6C
:1022A000006846F21001C4F20201884203D1FFE740
:1022B00020200B90D6E042F69850C2F20000C06C8D
:1022C000006846F21041C4F20201884203D1FFE7E0
:1022D00020200A90C3E042F69850C2F20000C06C81
:1022E000006846F27001C4F20201884203D1FFE7A0
:1022F00020200990B0E042F69850C2F20000C06C75
:10230000006846F27041C4F20201884203D1FFE73F
:10231000202008909DE042F69850C2F20000C06C68
:10232000006846F22801C4F20201884204D1FFE7A6
:102330004FF40060079089E042F69850C2F2000026
:10234000C06C006846F22841C4F20201884204D100
:10235000FFE74FF40060069075E042F69850C2F235
:102360000000C06C006846F28801C4F20201884295
:1023700004D1FFE74FF40060059061E042F6985009
:10238000C2F20000C06C006846F28841C4F202014B
:10239000884204D1FFE74FF4006004904DE042F61C
:1023A0009850C2F20000C06C006846F24001C4F2CE
:1023B0000201884204D1FFE74FF40010039039E096
:1023C00042F69850C2F20000C06C006846F24041EC
:1023D000C4F20201884204D1FFE74FF400100290DA
:1023E00025E042F69850C2F20000C06C006846F248
:1023F000A001C4F20201884204D1FFE74FF40010AB
:10240000019011E042F69850C2F20000C06C0168E1
:1024100046F2A042C4F202024FF00060914208BFAF
:102420004FF400100190FFE701980290FFE7029837
:102430000390FFE703980490FFE704980590FFE7F7
:1024400005980690FFE706980790FFE70798089021
:10245000FFE708980990FFE709980A90FFE70A98B4
:102460000B90FFE70B9846F20801C4F202010860E6
:102470000C90FFE70C981890FFE71898FFE742F2DE
:102480006820C2F2000000788007002821D5FFE70D
:1024900042F26821C2F20001087800F0FD000870E5
:1024A00040F20040C4F202000122114602F0EEFBAD
:1024B00042F26020C2F20000013042F29011C2F2FA
:1024C0000001143140F60C02C2F20002FEF7B2FB2A
:1024D000FFE742F28E10C2F2000000788007002869
:1024E0001DD5FFE742F28E11C2F20001087800F01C
:1024F000FD0008700020C4F202001021012202F049
:10250000C5FB42F28010C2F20000023042F290128B
:10251000C2F20002111D2032FEF71AFBFFE742F261
:102520008D10C2F2000000788007002822D5FFE756
:1025300042F28D11C2F20001087800F0FD0008702F
:102540000020C4F202001021012202F09FFB42F29F
:102550008910C2F20000023042F29011C2F2000172
:1025600000911031FEF73EFD009890ED040A13F043
:1025700007FEFFE713F0E0FCFFE762B080BD00005C
:1025800080B542F27870C2F2000001F0DDFE80BD3D
:1025900080B542F25860C2F2000001F0D5FE80BD65
:1025A00080B542F2F850C2F2000001F0CDFE80BDCD
:1025B00080B542F2D870C2F2000001F0C5FE80BDC5
:1025C00080B542F2B860C2F2000001F0BDFE80BDED
:1025D00082B001900198007810384AF6AB21CAF613
:1025E000AA21A0FB011000090090009949F6D01023
:1025F000C0F60100405C0199C8650098042807D323
:10260000FFE701990868042262F30900886506E083
:102610000199086840F2FF3290438865FFE701980E
:10262000806D02B07047000086B0059000208DF8E4
:1026300013000598806A03900598806910BBFFE736
:102640000398029003281BD80299DFE801F0020DDD
:102650000218059890F82F00C00720B1FFE701206D
:102660008DF81300FFE70CE00598C06AB0F1C07F59
:1026700004D1FFE701208DF81300FFE701E000E03F
:10268000FFE745E005988069B0F5005F25D1FFE7D9
:102690000398019003281ED80199DFE801F0020693
:1026A000021101208DF8130016E0059890F82F0014
:1026B000C00720B1FFE701208DF81300FFE70BE012
:1026C0000598C06AB0F1C07F04D1FFE701208DF802
:1026D0001300FFE700E0FFE719E0039800900328EC
:1026E00004D3FFE70098032804D00EE001208DF802
:1026F00013000BE0059890F82F00C00720B1FFE70A
:1027000001208DF81300FFE700E0FFE7FFE7FFE798
:102710009DF8130006B0704780B584B08DED030AB4
:1027200042F2D811C2F20001019100208860C86015
:1027300008200861072008609DED030A42F2F410AA
:10274000C2F20000029013F0D9F80199029A42F205
:102750004850C2F2000043F27C73C2F2000300F062
:10276000F1FE04B080BD00007047000081B0009011
:10277000009940F65802C2F200021068D2F8032015
:10278000C1F80320086001B07047000080B5102038
:1027900002F084F880BD000080B5202002F07EF8B1
:1027A00080BD000080B584B0039002918DF80720B1
:1027B00000208DF80600039806F02EF908B1FFE717
:1027C00037E00398D0F80D02B0F5FD7F01D9FFE79F
:1027D0002FE0FFE79DF806009DF80710884228DAF1
:1027E000FFE70399D1F80902431C4CF21160C1F6CE
:1027F000B07053FB00F2901100EBD27040F2052252
:1028000000FB1230C1F8090202989DF80610405CE6
:102810000399D1F8092288540399D1F80D020130A7
:10282000C1F80D02FFE79DF8060001308DF80600A3
:10283000D0E704B080BD000081B0EFF3108072B625
:102840000090FFE7FEE7000081B00090009940F2A1
:102850004C0CC2F2000CDCF80000DCF80420DCF8C0
:102860000830DCF80CC0C1F80CC08B604A6008600E
:1028700001B0704780B584B047F61020C1F6FF70F4
:102880000068039047F61420C1F6FF7000680290BC
:1028900047F61820C1F6FF7000680190019903986F
:1028A00008440390039888B1FFE7039840F2681149
:1028B000C2F2000100910231082206F06FF800997F
:1028C00002981231042206F069F8FFE704B080BDD7
:1028D00080B594B040F25030C2F2000090F881020E
:1028E000022840F06681FFE707F0D0FD8DED110A68
:1028F00008F0ECF9B0EE401A9DED110A9FEDDB2ACD
:1029000021EE021AB3EE0E2A8DED122A20EE020AF3
:1029100030EE010A07F01CFE9DED122AB0EE401ABF
:1029200040F25030C2F2000090ED100A30EE410A41
:1029300080ED100A90ED000A47F6B820C2F20000C0
:1029400090ED001A31EE021AB4EE410AF1EE10FADF
:1029500039DCFFE740F25030C2F2000090ED000A8F
:1029600047F6B820C2F2000090ED001A9FEDEF2A62
:1029700031EE021AB4EE410AF1EE10FA23DBFFE762
:1029800007F096FD8DED100A08F0E2F9B0EE401A5E
:102990009DED100A9FEDE72A21EE021A9FEDE62A2F
:1029A00020EE020A30EE010A07F0D2FDB0EE401A26
:1029B00040F25030C2F2000090ED0F0A30EE010AF2
:1029C00080ED0F0AB9E040F25030C2F2000090ED05
:1029D000000A47F6B820C2F2000090ED001AB3EEEC
:1029E0000E2A31EE021AB4EE410AF1EE10FA46DD7B
:1029F000FFE740F25030C2F200000F9090ED000A65
:102A000047F6B820C2F2000090ED002ABBEE0E1A85
:102A100031EE421A30EE010A07F09AFD10EE100A6C
:102A200016F080FE02460F9809920A46099942EC78
:102A3000101B8DED0A0BC06B16F074FE9DED0A0B9A
:102A400041EC110B8DED0C1B51EC100B9FEDB20BFB
:102A500053EC102B16F0AEFB9DED0C0B41EC110B63
:102A600051EC110B53EC102B16F08AF941EC100BC2
:102A700051EC100B16F052F90F99C8635CE040F26C
:102A80005030C2F2000090ED000A47F6B820C2F2C2
:102A9000000090ED001A9FEDA52A31EE021AB4EE67
:102AA000410AF1EE10FA46DAFFE740F25030C2F286
:102AB0000000089090ED000A47F6B820C2F200002E
:102AC00090ED002A9FED9A1A31EE421A30EE010A7B
:102AD00007F03EFD10EE100A16F024FE024608989C
:102AE00003920A46039942EC101B8DED040BC06B58
:102AF00016F018FE9DED040B41EC110B8DED061B3D
:102B000051EC100B9FED840B53EC102B16F052FB85
:102B10009DED060B41EC110B51EC110B53EC102BFE
:102B200016F02EF941EC100B51EC100B16F0F6F8E4
:102B30000899C863FFE7FFE7FFE740F25030C2F2B1
:102B40000000029090ED001A90ED0F0A9FED742A9C
:102B500071EE420A31EE021A13F022FC029880ED67
:102B60000F0A90ED100AFAEE080AB3EE061A13F0F7
:102B7000F5F8029880ED100A90ED000AD0ED030AF6
:102B800090ED0F1A503012F033FE0298BDEEC00ADD
:102B900010EE101AA0F8701290ED010AD0ED040AA0
:102BA00090ED101AF43012F023FE029880ED9D0A89
:102BB000AFE040F25030C2F2000090F881020328EA
:102BC0004AD1FFE740F29921C2F200014A6840F27F
:102BD0005030C2F20000019002648968C16390ED38
:102BE0000F0A47F6B820C2F2000090ED001A9FEDE0
:102BF0004F2A71EE020AB3EE0E2A31EE021A13F0DA
:102C0000ADF8019880ED0F0A90ED100AFAEE080A6F
:102C1000B3EE061A13F0A2F8019880ED100A90EDB9
:102C2000000AD0ED030A90ED0F1A503012F0E0FDCB
:102C30000198BDEEC00A10EE101AA0F8701290EDC7
:102C4000010AD0ED040A90ED101AF43012F0D0FD14
:102C5000019880ED9D0A5BE040F25030C2F2000026
:102C600090F88102012844D102E000BFEC51B83D48
:102C700040F25030C2F200000090416801640168E7
:102C8000C16390ED090A9FED261A70EE410A30EEFD
:102C9000011AB7EE000A13F083FB00988DED130ABA
:102CA000016847F6B822C2F20002116090ED090AED
:102CB000D0ED0A0A9DED131A503012F099FD0098DC
:102CC000B0EE401A9FED170A30EE410ABDEEC00A81
:102CD00010EE101AA0F8701290ED010AD0ED040A5F
:102CE000F4309FED111A12F083FD009880ED9D0ADB
:102CF0000DE040F25031C2F200010868C863486834
:102D000008640020A1F87002C1F87402FFE7FFE731
:102D1000FFE714B080BD00BF7B14AE47E17A74BFFB
:102D20000000344300000080000000000000C8C222
:102D30000000C8420AD7233D0000484240F250300C
:102D4000C2F2000090F88002032809D0FFE740F2A9
:102D50005030C2F2000090F8800202284ED1FFE706
:102D600040F6C400C2F20000C07C012808D0FFE792
:102D700040F6C400C2F20000C07A012817D1FFE774
:102D800040F63400C2F20000407980B9FFE740F21B
:102D90009920C2F200008078C00740B1FFE740F2FE
:102DA0005031C2F20001032081F8810207E040F2B5
:102DB0005031C2F20001022081F88102FFE740F6A3
:102DC000C400C2F20000C07C012808D0FFE740F632
:102DD000C400C2F20000C07A012807D1FFE740F228
:102DE0003431C2F200010120C87506E040F23431EE
:102DF000C2F200010020C875FFE719E040F2503030
:102E0000C2F2000090F88002012808D1FFE740F2EA
:102E10005031C2F20001012081F8810207E040F246
:102E20005031C2F20001002081F88102FFE7FFE784
:102E30007047000081B0009040F60000C2F2000030
:102E400090ED020A9FED192A80EE020A9FED181AF2
:102E500020EE010A009981ED020A90ED010A80EE50
:102E6000020A20EE010A009981ED010A90ED000AA4
:102E700080EE020A20EE010A009880ED000A40F67A
:102E80000C00C2F2000090ED000AB1EE400A009979
:102E900081ED050A4168009A116190ED020AB1EED8
:102EA000400A009880ED030A01B07047DB0F4940EB
:102EB0000000344380B540F25030C2F2000090F878
:102EC0008002032808D0FFE740F25031C2F200012F
:102ED000002081F882021EE007F07CFFB7EE001AA6
:102EE000B4EE410AF1EE10FA04D0FFE707F0F2FA6F
:102EF00040B1FFE740F25031C2F20001022081F8F8
:102F0000820207E040F25031C2F20001012081F854
:102F10008202FFE7FFE780BD80B586B040F624500F
:102F2000C2F20000006840F23431C2F200010191A7
:102F3000C1F8020002A8FFF787FC01980299C0F8C7
:102F400006100399C0F80A100499C0F80E100599EC
:102F5000C0F8121040F6B001C2F200010978817584
:102F60001921012211F0B6FF06B080BD80B582B0F4
:102F700040F25030C2F200000190243000F062F8BC
:102F8000019818300DF00AFC0198FFF753FF02B0CA
:102F900080BD000080B588B084460A98ADF81EC098
:102FA000ADF81C10ADF81A20ADF81830ADF81600C9
:102FB0009DF81F0040F62402C2F2000290729DF8B4
:102FC0001E00D0729DF81D10104600F8081F0290D8
:102FD0009DF81C0050729DF81B0090709DF81A001F
:102FE000D0709DF8190090719DF81800D0719DF86F
:102FF000170010719DF81600507142F2D811C2F2FC
:103000000001019100208860C860082008614FF429
:103010000070086042F24850C2F20000049043F28F
:103020007C73C2F20003039300F08CFA0199029AB8
:10303000039B049840F2FF1CC1F800C000F082FA24
:1030400008B080BD81B0009042F26C10C2F2000066
:10305000018800EE101AB8EEC00A9FED233A80EE08
:10306000030A9FED221A20EE010A9FED212A30EE7D
:10307000020A009981ED000AB0F9020000EE100A80
:10308000B8EEC00A009880ED010A40F67800C2F25E
:103090000000018800EE101AB8EEC00A80EE030AA4
:1030A00020EE010A30EE020A009981ED020AB0F921
:1030B000020000EE100AB8EEC00A009880ED030A84
:1030C00040F20830C2F2000090ED030AB2EE092A85
:1030D00080EE020A20EE010A009981ED040A0069DF
:1030E0000099486101B07047000000460000B443F9
:1030F000000034C380B58CB040F25030C2F2000002
:1031000090F8811240F20330C2F2000001700078A2
:1031100040F20231C2F200010978884201D1FFE792
:10312000E8E040F20330C2F200000078022831D11A
:10313000FFE740F25030C2F200000990503040F2F8
:103140009011C2F2000140F2B412C2F200029FEDEF
:103150006A0A8DED0A0AF3EE0E0ACDED0B0A9FED19
:10316000671ADFED671A12F073FB09989DED0A0AE2
:10317000DDED0B0AF43040F26801C2F2000140F2CA
:103180008C02C2F20002B3EE021AF1EE081A12F03B
:103190005FFBA4E040F20330C2F200000078032895
:1031A00031D1FFE740F25030C2F2000006905030BB
:1031B00040F28411C2F2000140F2A812C2F20002F1
:1031C0009FED4D0A8DED070AF3EE0E0ACDED080ACC
:1031D0009FED4A1ADFED4A1A12F03AFB06989DED70
:1031E000070ADDED080AF43040F25C01C2F200018A
:1031F00040F28002C2F20002B3EE021AF1EE081AA7
:1032000012F026FB6AE040F20330C2F200000078C0
:10321000012831D1FFE740F25030C2F200000390A4
:10322000503040F29C11C2F2000140F2C012C2F2D2
:1032300000029FED310A8DED040AF3EE0E0ACDED8A
:10324000050A9FED2E1ADFED2E1A12F001FB0398EE
:103250009DED040ADDED050AF43040F27401C2F27E
:10326000000140F29802C2F20002B3EE021AF1EE3F
:10327000081A12F0EDFA30E040F25030C2F20000CD
:103280000090503042F25411C2F2000142F260123A
:10329000C2F200029FED180A8DED010AF3EE0E0A4C
:1032A000CDED020A9FED151ADFED151A12F0D0FAD6
:1032B00000989DED010ADDED020AF43040F6600150
:1032C000C2F2000140F66C02C2F20002B3EE021A32
:1032D000F1EE081A12F0BCFAFFE7FFE7FFE740F251
:1032E0000330C2F20000007840F20231C2F2000165
:1032F0000870FFE70CB080BD000016440060EA468D
:1033000000401C4681B040F63400C2F20000007854
:10331000012808D0FFE740F63400C2F200004078F0
:10332000012811D1FFE740F25030C2F2000090F8BE
:10333000800240B1FFE740F25031C2F200010020AC
:1033400081F88002FFE7D1E040F63400C2F20000CD
:103350008079012811D1FFE740F25030C2F200001D
:1033600090F8800240B1FFE740F25031C2F2000114
:10337000002081F88002FFE7B8E040F6C400C2F206
:103380000000807A01460091012809D0FFE70098EB
:10339000022800F08980FFE70098032842D094E0DB
:1033A00040F25030C2F2000090F8800278B9FFE796
:1033B00040F25031C2F20001012081F8800242F255
:1033C0005C21C2F200014FF4FA60086029E040F28B
:1033D0005030C2F2000090F88002012818D1FFE7B7
:1033E00042F25C20C2F20000006840B1FFE742F206
:1033F0005C21C2F2000108680138086007E040F271
:103400005031C2F20001032081F88002FFE707E09B
:1034100040F25031C2F20001032081F88002FFE740
:10342000FFE763E040F25030C2F2000090F8800203
:1034300078B9FFE740F25031C2F20001012081F873
:10344000800242F25C21C2F200014FF4FA6008608F
:1034500029E040F25030C2F2000090F880020128CA
:1034600018D1FFE742F25C20C2F20000006840B1D0
:10347000FFE742F25C21C2F20001086801380860EF
:1034800007E040F25031C2F20001022081F88002D0
:10349000FFE707E040F25031C2F20001022081F85C
:1034A0008002FFE7FFE721E040F25030C2F2000067
:1034B00090F8800240B1FFE740F25031C2F20001C3
:1034C000002081F88002FFE710E040F25030C2F2A5
:1034D000000090F8800240B1FFE740F25031C2F2A4
:1034E0000001002081F88002FFE7FFE701B070478C
:1034F00084B002900191029890F820008DF80300AA
:103500009DF80300012805D0FFE79DF8030002287D
:103510000AD1FFE7019A029801684869104348619F
:1035200000208DF80F0008E00299486A40F48020DE
:10353000486201208DF80F00FFE79DF80F0004B0EE
:103540007047000088B00690059104920393069896
:1035500090F820008DF807000698006880680090B9
:103560000598806808B9FFE700E0FFE79DF80700CD
:10357000012806D0FFE79DF80700022840F08D8063
:10358000FFE79DF80300400700280CD4FFE79DF8F3
:1035900003000007002806D4FFE79DF80300C006DB
:1035A000002871D5FFE70098C0F3016002900298EF
:1035B000032809D3FFE70699486A40F400004862EF
:1035C00001208DF81F0071E00299012088400399C5
:1035D00008600598806868B9FFE705980168C068C9
:1035E00040EA415006990968029A01EB0211C1F8BC
:1035F00080010EE005994A688868C96840EAC200FF
:10360000084306990968029A01EB0211C1F880018A
:10361000FFE70598006906990968029A01EB021113
:10362000C1F884010598007D01280CD1FFE70698B8
:103630000068029900EB0111D1F8840140F4807018
:10364000C1F88401FFE70498406806990968029A66
:1036500001EB0211C1F88C01049800680699096811
:10366000029A01EB0211C1F88801069800680299DC
:1036700000EB0111D1F8800140F00100C1F8800198
:1036800000208DF81F0011E00699486A40F40010F0
:10369000486201208DF81F0008E00699486A40F44E
:1036A0008020486201208DF81F00FFE79DF81F0071
:1036B00008B0704786B004900391049800680190A8
:1036C000049890F820008DF803009DF8030001286D
:1036D00006D0FFE79DF80300022840F0B080FFE726
:1036E00046F20040C4F2000001900199D1F80002B6
:1036F00040F00100C1F800020199D1F8000220F465
:103700007C50C1F800020398426A0199D1F8000286
:1037100040EA0220C1F800020398406900F01F014E
:10372000012088400290029A0199D1F81C0290432E
:10373000C1F81C020398C069F0B9FFE7029A019929
:10374000D1F80C029043C1F80C02039A9088D1681A
:10375000526940EA0140019901EBC201C1F84002FF
:10376000039A10889168526940EA0140019901EB7F
:10377000C201C1F84402FFE70398C06901281ED1C5
:10378000FFE7029A0199D1F80C021043C1F80C022C
:10379000039A90881168526940EA0140019901EB4F
:1037A000C201C1F84002039A90899168526940EAC7
:1037B0000140019901EBC201C1F84402FFE70398FF
:1037C000806940B9FFE7029A0199D1F80402904359
:1037D000C1F8040207E0029A0199D1F804021043EB
:1037E000C1F80402FFE70398006940B9FFE7029AB5
:1037F0000199D1F814029043C1F8140207E0029A2B
:103800000199D1F814021043C1F81402FFE703989C
:10381000006A012808D1FFE7029A0199D1F81C0239
:103820001043C1F81C02FFE70199D1F8000220F013
:103830000100C1F8000200208DF8170008E004998B
:10384000486A40F48020486201208DF81700FFE7A5
:103850009DF8170006B0704781B0009001B0704726
:1038600086B00490039102920193049890F820008E
:103870008DF803009DF80300012806D0FFE79DF8AE
:103880000300022840F0D780FFE7039880B9FFE7E4
:1038900004980068C068800748B9FFE70499486A3F
:1038A00040F40010486201208DF81700CCE00FE0D2
:1038B000049800680069800748B9FFE70499486ADE
:1038C00040F40010486201208DF81700BCE0FFE7CB
:1038D00004980068039900EB0110D0F8B00100F0E3
:1038E0000400029988600298806858B9FFE704983C
:1038F0000068039900EB0110D0F8B001400D029967
:1039000008600AE004980068039900EB0110D0F801
:10391000B001C00802994860FFE704980068039965
:1039200000EB0110D0F8B00100F002000299C8606D
:1039300004980068039900EB0110D0F8B40100F07E
:103940000F000299086104980068039900EB0110C8
:10395000D0F8B40180B2000A029988610498006826
:10396000039900EB0110D0F8B401000C02994861F2
:1039700004980068039900EB0110D0F8B801019990
:10398000087004980068039900EB0110D0F8B801A2
:10399000000A0199487004980068039900EB01102F
:1039A000D0F8B801000C0199887004980068039958
:1039B00000EB0110D0F8B801000E0199C87004980E
:1039C0000068039900EB0110D0F8BC01019908715F
:1039D00004980068039900EB0110D0F8BC01000ABC
:1039E0000199487104980068039900EB0110D0F820
:1039F000BC01000C0199887104980068039900EBE0
:103A00000110D0F8BC01000E0199C871039838B9B3
:103A1000FFE704980168C86840F02000C86006E02D
:103A200004980168086940F020000861FFE7002061
:103A30008DF8170008E00499486A40F48020486235
:103A400001208DF81700FFE79DF8170006B07047BA
:103A500080B58AB0099000200890099800684069F4
:103A60000790099800684068069009980068806887
:103A7000059009980068C06804900998006800697A
:103A8000039009980068806902909DF81C00C007A7
:103A9000002800F09480FFE79DF81400C00758B399
:103AA000FFE709980168012088609DF814008007ED
:103AB000002804D5FFE7099800F02EFC1BE09DF8D4
:103AC00014004007002805D5FFE7089840F400607F
:103AD00008900FE09DF814000007002805D5FFE7C7
:103AE000089840F48050089003E0099800F010FC1A
:103AF000FFE7FFE7FFE7FFE79DF81500C00760B3AA
:103B0000FFE7099801684FF4807088609DF8150000
:103B10008007002804D5FFE7099800F005FC1BE0AA
:103B20009DF815004007002805D5FFE7089840F4E8
:103B3000005008900FE09DF815000007002805D5FB
:103B4000FFE7089840F48040089003E0099800F0EF
:103B5000E7FBFFE7FFE7FFE7FFE79DF81600C00779
:103B600060B3FFE7099801684FF4803088609DF8E2
:103B700016008007002804D5FFE7099800F0DCFB59
:103B80001BE09DF816004007002805D5FFE70898C0
:103B900040F4004008900FE09DF816000007002850
:103BA00005D5FFE7089840F48030089003E00998B5
:103BB00000F0BEFBFFE7FFE7FFE7FFE7FFE79DF849
:103BC0001C000007002810D5FFE79DF81000C00674
:103BD000002809D5FFE7089840F40070089009987C
:103BE00001681020C860FFE7FFE79DF81C00400750
:103BF00000280FD5FFE79DF810000007002808D522
:103C0000FFE7099801680820C860099800F0CCFA1D
:103C1000FFE7FFE79DF81C00800700280BD5FFE7B2
:103C200009980068C068800720B1FFE7099800F094
:103C3000BFFAFFE7FFE79DF81C004006002810D5FB
:103C4000FFE79DF80C00C006002809D5FFE708989B
:103C500040F4806008900998016810200861FFE72F
:103C6000FFE79DF81C00800600280FD5FFE79DF8B0
:103C70000C000007002808D5FFE709980168082014
:103C80000861099800F0F2FAFFE7FFE79DF81C00D1
:103C9000C00600280BD5FFE7099800680069800777
:103CA00020B1FFE7099800F0E5FAFFE7FFE79DF88C
:103CB0001E00800700280FD5FFE79DF81800C006FA
:103CC000002808D5FFE70998016810204860099886
:103CD00000F0D4FAFFE7FFE79DF81E00C00778B1B7
:103CE000FFE79DF818000007002808D5FFE70998AE
:103CF000016808204860099800F022FBFFE7FFE711
:103D00009DF81D000006002840F18D80FFE79DF81A
:103D100018004007002840F18180FFE79DF81D0052
:103D2000C00750B1FFE79DF80800C00728B1FFE7C2
:103D3000089840F001000890FFE79DF81D008007FB
:103D400000280BD5FFE79DF808008007002805D55F
:103D5000FFE7089840F002000890FFE79DF81D007B
:103D6000400700280BD5FFE79DF808004007002812
:103D700005D5FFE7089840F004000890FFE79DF89C
:103D80001D000007002848D5FFE79DF8080010F047
:103D9000700F42D0FFE7029800F0700001460191D9
:103DA000102814D0FFE70198202815D0FFE70198CC
:103DB000302816D0FFE70198402817D0FFE7019878
:103DC000502818D0FFE70198602819D01DE0089806
:103DD00040F00800089019E0089840F010000890A2
:103DE00014E0089840F0200008900FE0089840F098
:103DF000400008900AE0089840F08000089005E034
:103E0000089840F48070089000E0FFE70998016886
:103E1000886920F070008861FFE7FFE70998016872
:103E200004204860FFE7089848B1FFE7089A09991D
:103E3000486A104348620998FFF70EFDFFE70AB091
:103E400080BD000080B584B00290029820B9FFE7E1
:103E500001208DF80F00E0E0029890F8200020B9D2
:103E6000FFE7029800F0DEF8FFE7029801680868B3
:103E700040F00100086000F021FF0190FFE7029888
:103E800000684068C007A8B9FFE700F017FF019974
:103E9000401A0B280DD3FFE70299486A40F400301E
:103EA00048620299052081F8200001208DF80F005A
:103EB000B3E0E4E702980168086820F002000860B7
:103EC00000F0FCFE0190FFE7029800684068800760
:103ED000002815D5FFE700F0F1FE0199401A0B28E4
:103EE0000DD3FFE70299486A40F400304862029916
:103EF000052081F8200001208DF80F008DE0E3E718
:103F00000298007E012807D1FFE70298016808683F
:103F100040F08000086006E002980168086820F020
:103F200080000860FFE70298407E012807D1FFE784
:103F300002980168086840F04000086006E00298B6
:103F40000168086820F040000860FFE70298807E62
:103F5000012807D1FFE702980168086840F02000B7
:103F6000086006E002980168086820F020000860F8
:103F7000FFE70298C07E012807D1FFE70298016899
:103F8000086820F01000086006E0029801680868E0
:103F900040F010000860FFE70298007F012807D179
:103FA000FFE702980168086840F00800086006E032
:103FB00002980168086820F008000860FFE702988E
:103FC000407F012807D1FFE702980168086840F0A8
:103FD0000400086006E002980168086820F0040008
:103FE0000860FFE7029B19685A689868D3F80CC00C
:103FF00040EA0C00D3F810C040EA0C005B6918439B
:10400000013A1043C861029900204862029A0121D6
:1040100082F820108DF80F00FFE79DF80F0004B024
:1040200080BD000080B590B00F9000200E900D90E4
:104030000C900B900A900F98006846F20041C4F271
:104040000001884249D1FFE740F2FC70C2F2000053
:104050000168013101600068012812D1FFE7FFE724
:104060000020099043F64000C4F20200016841F0CC
:1040700000710160006800F0007009900998FFE786
:10408000FFE7FFE70020089043F63000C4F202008B
:10409000016841F008010160006800F00800089024
:1040A0000898FFE703200A9002210B910021039159
:1040B0000C910D9009200E9040F60040C4F20200D1
:1040C0000AA900F007FC039A14200490052101F0CE
:1040D0006DF8049801F060F864E00F98006846F607
:1040E0000001C4F2000188425BD1FFE7FFE7002036
:1040F000079043F64000C4F20200016841F080617D
:104100000160006800F0806007900798FFE740F2C8
:10411000FC70C2F2000001680131016000680128F2
:1041200012D1FFE7FFE70020069043F64000C4F2FB
:104130000200016841F000710160006800F0007049
:1041400006900698FFE7FFE7FFE70020059043F69B
:104150003000C4F20200016841F002010160006811
:1041600000F0020005900598FFE760200A90022009
:104170000B90002001900C9003200D9009200E90D0
:1041800040F20040C4F202000AA900F0A3FB019A29
:1041900040200290052101F009F8029800F0FCFF90
:1041A000FFE7FFE710B080BD81B0009001B070471D
:1041B00080B58CB00B900B98002104AA02ABFFF7DE
:1041C0004FFB0498019001282DD0FFE7019840F2A1
:1041D000022188422FD0FFE7019840F20321884254
:1041E00039D0FFE70198B0F5017F2CD0FFE70198A7
:1041F00040F2052188420ED0FFE7019840F20621E7
:10420000884230D1FFE710F081FE04980B9902AA92
:1042100006F05EF828E006F015FD04980B9902AA56
:1042200006F056F820E006F00DFD04980B9902AA5E
:1042300006F04EF818E006F05DFE04980B9902AA0D
:1042400006F046F810E0FCF7B5FA04980B9902AABC
:1042500006F03EF808E0FCF7E3FA04980B9902AA8E
:1042600006F036F800E0FFE70CB080BD81B00090AA
:1042700001B0704781B0009001B0704781B00090EC
:1042800001B0704780B584B00290029890F8200089
:1042900001282FD1FFE70299022081F8200002981F
:1042A0000168086820F00100086000F007FD019037
:1042B000FFE7029800684068C007A8B1FFE700F078
:1042C000FDFC0199401A0B280DD3FFE70299486ABB
:1042D00040F4003048620299052081F82000012056
:1042E0008DF80F000FE0E4E70299002048628DF896
:1042F0000F0008E00299486A40F40020486201205B
:104300008DF80F00FFE79DF80F0004B080BD00009E
:1043100081B0009001B0704781B0009001B070474B
:1043200081B0009001B0704781B0009001B070473B
:1043300081B0009001B0704781B0009001B070472B
:1043400081B0009001B0704780B586B00590002024
:10435000039040F2B000C2F20000006848F2B511CC
:10436000C1F64E31A0FB0110800A02900598806DC5
:10437000019001980068049004980599C96DC8409F
:10438000000700281AD5FFE7059800680068400775
:10439000002812D5FFE705980168086820F004009E
:1043A00008600598C16D08208840019988600599CA
:1043B000486D40F001004865FFE7FFE70498059964
:1043C000C96DC840C007A0B1FFE705980068406903
:1043D000000600280CD5FFE70598C16D0120884034
:1043E000019988600599486D40F002004865FFE733
:1043F000FFE704980599C96DC8404007002814D507
:10440000FFE7059800680068800700280CD5FFE7E3
:104410000598C16D04208840019988600599486D10
:1044200040F004004865FFE7FFE704980599C96D6F
:10443000C840C006002847D5FFE705980068006817
:10444000000700283FD5FFE70598C16D1020884080
:1044500001998860059800680068400300281AD513
:10446000FFE70598006800680003002809D4FFE70B
:104470000598006C20B1FFE70598016C8847FFE7BD
:1044800008E00598806C20B1FFE70598816C8847AB
:10449000FFE7FFE716E0059800680068C005002800
:1044A00007D4FFE705980168086820F00800086055
:1044B000FFE70598006C20B1FFE70598016C88477D
:1044C000FFE7FFE7FFE7FFE704980599C96DC840DC
:1044D0008006002840F18D80FFE70598006800689D
:1044E000C006002840F18480FFE70598C16D2020B8
:1044F000884001998860059890F83500052834D1E6
:10450000FFE705980168086820F016000860059824
:104510000168486920F0800048610598006C20B966
:10452000FFE70598806C38B1FFE7059801680868D7
:1045300020F008000860FFE70598C16D3F20884023
:10454000019988600599012081F83500FFE70599F8
:10455000002081F83400FFE70598006D20B1FFE7E7
:104560000598016D8847FFE77BE0059800680068C3
:10457000400300281AD5FFE705980068006800038B
:10458000002809D4FFE70598406C20B1FFE70598A3
:10459000416C8847FFE708E00598C06B20B1FFE752
:1045A0000598C16B8847FFE7FFE720E005980068A2
:1045B0000068C005002811D4FFE705980168086865
:1045C00020F0100008600599012081F83500FFE710
:1045D0000599002081F83400FFE7FFE70598C06BDC
:1045E00020B1FFE70598C16B8847FFE7FFE7FFE7CA
:1045F000FFE70598406DA0B3FFE70598406DC00741
:1046000030B3FFE70599052081F83500059801686A
:10461000086820F001000860FFE70398013003906C
:104620000299884201D9FFE707E0FFE70598006893
:104630000068C0070028F0D1FFE70599012081F844
:104640003500FFE70599002081F83400FFE7FFE718
:104650000598C06C20B1FFE70598C16C8847FFE75B
:10466000FFE706B080BD000080B586B00490002052
:10467000039000F023FB0290049820B9FFE701208B
:104680008DF81700A3E00498406A08B1FFE7FFE740
:104690000499022081F83500FFE70499002081F891
:1046A0003400FFE704980168086820F00100086002
:1046B000FFE7049800680068C00790B1FFE700F0CA
:1046C000FDFA0299401A06280AD3FFE70499202030
:1046D00048650499032081F835008DF8170076E0CD
:1046E000E7E70498006800680390039848F23F01E8
:1046F000CFF2100108400390049900914868D1F866
:1047000008C0CB680A6940EA0C00184310434A69A4
:1047100010438A691043CA691043096A0143039828
:10472000084303900498406A042808D1FFE70499DD
:10473000C86A096B0143039808430390FFE7039895
:104740000499096808600498006840690390039818
:1047500020F0070003900498416A039808430390EF
:104760000498406A04281AD1FFE70498816A0398E4
:10477000084303900498C06A80B1FFE70498FDF7EE
:1047800053FF50B1FFE70499402048650499012088
:1047900081F835008DF8170019E0FFE7FFE703986F
:1047A0000499096848610498FDF712FF0190049884
:1047B000C16D3F20884001998860049900204865B8
:1047C000049A012182F835108DF81700FFE79DF853
:1047D000170006B080BD000080B584B0039000F0E3
:1047E0006DFA0290039801900198013048B1FFE7FB
:1047F00040F2F010C2F200000178019808440190E4
:10480000FFE7FFE700F05AFA0299401A019988423F
:1048100001D2FFE7F6E704B080BD000080B582B0AA
:10482000ADF80600BDF8060010281BD1FFE742F2E4
:104830008E11C2F20001087840F00100087042F2C7
:104840008D11C2F20001087840F00100087043F2B7
:104850004410C2F20000007818B1FFE711F06CFBC1
:10486000FFE718E0BDF80600202813D1FFE742F269
:104870006821C2F20001087840F00100087043F29C
:104880004410C2F20000007818B1FFE711F054FBA9
:10489000FFE7FFE7FFE702B080BD000080B582B010
:1048A000ADF8060043F61440C4F201000068BDF8FC
:1048B000061008420CD0FFE7BDF8060043F614418D
:1048C000C4F201010860BDF80600FFF7A7FFFFE78B
:1048D00002B080BD8EB00D900C9100200A9009901E
:1048E00008900B90FFE70B980F2800F2CC81FFE7B0
:1048F0000B99012088400A900C9800680A9908409A
:10490000099009980A99884240F0B881FFE70C980D
:10491000406800F00300012807D0FFE70C984068CA
:1049200000F0030002282FD1FFE70D98806808905F
:104930000B984100032000FA01F108988843089081
:104940000C98C0680B99490000FA01F108980843D7
:10495000089008980D9988600D98406808900B9908
:10496000012000FA01F10898884308900C984068EB
:10497000C0F300100B9900FA01F108980843089061
:1049800008980D994860FFE70C98406800F0030014
:10499000032818D0FFE70D98C06808900B984100D5
:1049A000032000FA01F10898884308900C98806869
:1049B0000B99490000FA01F10898084308900898FB
:1049C0000D99C860FFE70C98406800F003000228CA
:1049D00026D1FFE70D980B996FF0030202EA51010F
:1049E0000844006A08900B9800F0070081000F202F
:1049F00000FA01F10898884308900C9800690B9917
:104A000001F00701890000FA01F1089808430890B5
:104A100008980D990B9B02EA530211440862FFE7C4
:104A20000D98006808900B984100032000FA01F1EE
:104A30000898884308900C98406800F003000B9990
:104A4000490000FA01F108980843089008980D9968
:104A500008600C9880798007002800F00E81FFE73D
:104A6000FFE70020079043F64400C4F2020001680B
:104A700041F480410160006800F48040079007988D
:104A8000FFE70B9820F0030043F60801C4F2010190
:104A9000405808900B9800F0030081000F2000FAA6
:104AA00001F10898884308900D980021C4F2020192
:104AB000884203D1FFE7002006905EE00D9840F2A7
:104AC0000041C4F20201884203D1FFE701200590B2
:104AD00050E00D9840F60001C4F20201884203D173
:104AE000FFE70220049042E00D9840F60041C4F236
:104AF0000201884203D1FFE70320039034E00D98C0
:104B000041F20001C4F20201884203D1FFE7042010
:104B1000029026E00D9841F20041C4F20201884261
:104B200003D1FFE70520019018E00D9841F6000140
:104B3000C4F20201884203D1FFE7062000900AE098
:104B40000D9941F60042C4F202020820914208BFCA
:104B500007200090FFE700980190FFE7019802907E
:104B6000FFE702980390FFE703980490FFE704989B
:104B70000590FFE705980690FFE70698C0B20B99ED
:104B800001F00301890000FA01F108980843089038
:104B900008980B9921F0030143F60802C4F20102C0
:104BA000885043F60840C4F2010000680890099953
:104BB0000898884308900C988079C006002805D58D
:104BC000FFE70999089808430890FFE7089843F61B
:104BD0000841C4F20101086043F60C40C4F2010030
:104BE0000068089009990898884308900C98807983
:104BF0008006002805D5FFE7099908980843089022
:104C0000FFE7089843F60C41C4F20101086043F63F
:104C10000440C4F20100006808900999089888438C
:104C200008900C9880798007002805D5FFE709993E
:104C3000089808430890FFE7089843F60441C4F237
:104C40000101086043F60040C4F2010000680890CA
:104C500009990898884308900C988079C00728B172
:104C6000FFE70999089808430890FFE7089843F67A
:104C70000041C4F201010860FFE7FFE7FFE70B987E
:104C800001300B902FE60EB07047000082B001900B
:104C9000ADF802108DF801209DF8010028B1FFE762
:104CA000BDF802000199886105E0BDF8020000042A
:104CB00001998861FFE702B07047000047F2AC70CD
:104CC000C2F200000068704780B58EB00C900C985E
:104CD00020B9FFE701208DF8370043E10C9890F8E8
:104CE0003D0040B9FFE70C99002081F83C000C988A
:104CF00000F03CF9FFE70C99242081F83D000C9866
:104D00000168086820F0010008600C9801680868D4
:104D100040F4004008600C980168086820F40040E6
:104D2000086001F08FFD0A900C98406848F2A0617D
:104D3000C0F2010188420BD8FFE70A9948F280428D
:104D4000C0F21E020020914238BF012009900AE003
:104D50000A9940F60012C0F23D020020914238BF8D
:104D600001200990FFE70998012804D1FFE70120FD
:104D70008DF83700F6E00A984DF68361C4F21B31D6
:104D8000A0FB0110800C0B900C980068406820F08C
:104D90003F000B9908430C99096848600C9800681B
:104DA000006A20F03F0008900C98406848F2A0612B
:104DB000C0F20101884204D8FFE70B980130079048
:104DC0000EE00B984FF49671484344F6D351C1F26C
:104DD0006201A0FB0101012000EB91100790FFE7A9
:104DE0000898079908430C99096808620C980068AC
:104DF000C0694CF6FF71884306900C98406848F2F1
:104E0000A061C0F2010188421FD8FFE70A9801386B
:104E10000C9949684900B0FBF1F001306FF31F3085
:104E2000032803D8FFE7042005900BE00A98013817
:104E30000C9949684900B0FBF1F001306FF31F3065
:104E40000590FFE7059804904CE00C98806868B9DD
:104E5000FFE70A9801380C99496801EB4101B0FB62
:104E6000F1F001306FF31F3003900DE00A98013824
:104E70000C99496819225143B0FBF1F0013004212B
:104E800061F31F300390FFE70398000518B9FFE7AF
:104E90000120029023E00C98806868B9FFE70A9827
:104EA00001380C99496801EB4101B0FBF1F0013088
:104EB0006FF31F3001900DE00A9801380C99496892
:104EC00019225143B0FBF1F00130042161F31F308E
:104ED0000190FFE7019840F400400290FFE702983C
:104EE0000490FFE70698049908430C990968C86183
:104EF0000C980068006820F0C0000C9B1968DA6903
:104F00001B6A1A43104308600C980068806848F2D6
:104F1000FF3188430C9A1168D36812691A43104311
:104F200088600C980068C06820F0FF000C9B19682E
:104F30005A699B691A431043C8600C980168086855
:104F400040F0010008600C99002008640C9A2021B0
:104F500082F83D100C9908630C9981F83E008DF899
:104F60003700FFE79DF837000EB080BD80B588B0F0
:104F700007900020069005900490039002900798F7
:104F8000006845F60001C4F20001884233D1FFE712
:104F9000FFE70020019043F63000C4F202000168F0
:104FA00041F020010160006800F0200001900198AC
:104FB000FFE7032002901221039101210491059043
:104FC0000420069041F20040C4F2020002A9FFF75B
:104FD00081FCFFE70020009043F64000C4F202008D
:104FE000016841F480010160006800F480000090D5
:104FF0000098FFE7FFE708B080BD000040F2F01026
:10500000C2F20000027847F2AC71C2F200010868F7
:10501000104408607047000080B543F60041C4F2B8
:105020000201086840F400700860086840F480607D
:105030000860086840F480700860032000F0D0F831
:105040000F2000F005F800F07BF8002080BD000084
:1050500080B58CB00B90002004900390FFE70020F7
:10506000009043F64000C4F20200016841F02001C4
:105070000160006800F0200000900098FFE706A89B
:1050800002A901F0AFFB09980490049820B9FFE74A
:1050900001F0D8FB059004E001F0D4FB400005903E
:1050A000FFE705984DF68361C4F21B31A0FB0101B7
:1050B0004FF0FF3000EB9140039042F6E870C2F2EF
:1050C000000041F20041C4F20001016040F2E7310A
:1050D000C16003994160002101618160816102F03A
:1050E0009BFB8DF807009DF8070028BBFFE742F601
:1050F000E870C2F2000002F0EBFC8DF807009DF8AA
:105100000700C0B9FFE7372000F046F80B980F28DA
:105110000CD8FFE70B993720002200F047F80B98D6
:1051200040F2F411C2F20001086003E001208DF8A2
:105130000700FFE7FFE7FFE79DF807000CB080BD21
:1051400080B582B0FFE70020019043F64400C4F22E
:105150000200016841F480410160006800F4804071
:1051600001900198FFE7FFE70020009043F6400020
:10517000C4F20200016841F080510160006800F053
:10518000805000900098FFE76FF001000F2100228F
:1051900000F00CF802B080BD80B582B08DF8070039
:1051A0009DF907000FF0BAFE02B080BD80B586B051
:1051B0008DF8170004910392002002900FF0C6FEB4
:1051C00002909DF91700019002980499039A05F046
:1051D00089F9014601980FF0C1FE06B080BD0000BC
:1051E00080B582B0019001980FF0DAFE02B080BD68
:1051F00082B001908DF8031002B0704782B0019028
:10520000ADF80210BDF8020001990968486200205B
:1052100002B0704784B003908DF80B10ADF80820F1
:1052200003980068406A00909DF80B0048B9FFE7BA
:10523000BDF80810009840EA0140039909688862A7
:1052400033E003980068816A009800EB11400090F9
:1052500000208DF80700FFE79DF807009DF80B1070
:105260000139884213D2FFE7039800689DF80710C0
:1052700000EB8100D0F80411009800EB1140009081
:10528000FFE79DF8070001308DF80700E4E7BDF85F
:105290000810009840EA0140039909689DF80B2026
:1052A00001EB8201C1F80001FFE7002004B0704764
:1052B00080B582B001900198D0F808050DF0B0FBE0
:1052C00002B080BD80B582B001908DF80310019AC4
:1052D000D2F808059DF8031001EBC10302EB83022D
:1052E000D26C0DF0F9F902B080BD000080B582B03B
:1052F00001908DF80310019AD2F808059DF803106B
:1053000001EBC10302EB8302D2F88C220DF0AEFA5E
:1053100002B080BD80B582B001900198D0F8080538
:105320000DF084FB02B080BD80B584B003908DF891
:105330000B109DF80B00000600280CD5FFE7039822
:105340009DF80B1001F00F0101EBC10100EB810092
:105350003C3001900CE003989DF80B1001F00F0118
:1053600001EBC10100EB810000F51F700190FFE728
:105370000398006801990FF0AFF98DF80A009DF8C5
:105380000A0004B080BD000080B584B002908DF8A2
:1053900007109DF80700000600280FD5FFE70298C8
:1053A0009DF8071001F00F0101EBC10100EB810036
:1053B0003C3000900099012048700FE002989DF861
:1053C000071001F00F0101EBC10100EB810000F5B6
:1053D0001F700090009900204870FFE79DF80700BB
:1053E00000F00F0000990870FFE7029890F8BC04E5
:1053F000012804D1FFE702208DF80F0014E0029984
:10540000012081F8BC04FFE7FFE7029800680099DB
:105410000EF08AFBFFE70299002081F8BC04FFE749
:1054200000208DF80F00FFE79DF80F0004B080BD4D
:1054300080B584B002908DF807109DF8070000F049
:105440000F0002994968884204D9FFE701208DF8CE
:105450000F004DE09DF80700000600280FD5FFE77C
:1054600002989DF8071001F00F0101EBC10100EB5C
:1054700081003C3000900099012048700FE00298B4
:105480009DF8071001F00F0101EBC10100EB810055
:1054900000F51F700090009900204870FFE7009908
:1054A000002088709DF8070000F00F000099087038
:1054B000FFE7029890F8BC04012804D1FFE702201E
:1054C0008DF80F0014E00299012081F8BC04FFE779
:1054D000FFE70298006800990EF0A6FEFFE7029928
:1054E000002081F8BC04FFE700208DF80F00FFE7E3
:1054F0009DF80F0004B080BD82B001908DF80310BC
:1055000001989DF8031001F00F0101EBC10100EBC0
:105510008100D0F89C0202B07047000080B586B0D0
:1055200004908DF80F10ADF80C208DF80B30002092
:105530008DF80A009DF80F00000600280FD5FFE740
:1055400004989DF80F1001F00F0101EBC10100EB71
:1055500081003C3001900199012048700FE00498CF
:105560009DF80F1001F00F0101EBC10100EB81006C
:1055700000F51F700190019900204870FFE79DF829
:105580000F0000F00F0001990870BDF80C000199A0
:10559000C8609DF80B00019908710198407820B10E
:1055A000FFE7019908780881FFE79DF80B000228C2
:1055B00004D1FFE7019900204871FFE7FFE7049855
:1055C00090F8BC04012804D1FFE702208DF81700F1
:1055D00015E00499012081F8BC04FFE7FFE7049877
:1055E000006801990EF05AF9FFE70499002081F84C
:1055F000BC04FFE79DF80A008DF81700FFE79DF84F
:10560000170006B080BD000080B586B005908DF80B
:1056100013100392029305989DF8131001F00F01E7
:1056200001EBC10100EB810000F51F7001900398B0
:105630000199086102980199886101990020086226
:10564000019948709DF8130000F00F00019908704F
:1056500005980069012804D1FFE703980199486182
:10566000FFE79DF81300000738B9FFE7059A1068B7
:105670000199127C0EF08CFC06E0059A10680199E5
:10568000127C0EF075FEFFE7002006B080BD000022
:1056900080B584B002908DF807109DF8070000F0E7
:1056A0000F0002994968884204D9FFE701208DF86C
:1056B0000F0058E09DF80700000600280FD5FFE70F
:1056C00002989DF8071001F00F0101EBC10100EBFA
:1056D00081003C3000900099012048700DE0029854
:1056E0009DF8071001EBC10100EB810000F51F7070
:1056F0000090009900204870FFE700990120887011
:105700009DF8070000F00F0000990870FFE702986D
:1057100090F8BC04012804D1FFE702208DF80F00A7
:1057200021E00299012081F8BC04FFE7FFE702981D
:10573000006800990EF0C8FD9DF80700000740B909
:10574000FFE7029A1068117C02F2C4420EF01CFDC1
:10575000FFE7FFE70299002081F8BC04FFE7002083
:105760008DF80F00FFE79DF80F0004B080BD00002A
:1057700080B586B005908DF81310039202930598BA
:105780009DF8131001F00F0101EBC10100EB810046
:105790003C30019003980199086102980199886151
:1057A0000199002008620199012048709DF81300BA
:1057B00000F00F000199087005980069012804D1D4
:1057C000FFE7039801994861FFE79DF81300000780
:1057D00038B9FFE7059A10680199127C0EF0D8FBE2
:1057E00006E0059A10680199127C0EF0C1FDFFE7F2
:1057F000002006B080BD000080B58CB00B900B98E7
:1058000000680A900A9809900B9800680FF0A6F8B3
:10581000002840F00D84FFE70B9800680FF00AF9AC
:1058200010B9FFE700F004BC0998D0F80808C0F3ED
:105830000D200B99C1F8FC040B9800680FF0FAF8E2
:105840008007002807D5FFE70B980168486900F03A
:1058500002004861FFE70B9800680FF0EBF8C00604
:10586000002862D5FFE70B980168886920F01000D6
:1058700088610A98006A02900B98029901F00F0162
:1058800001EBC10100EB810000F51F700890029848
:1058900000F4F0110220B0EB514F23D1FFE7BDF827
:1058A000080047F6F07108421BD0FFE70A980899F4
:1058B0000969029AC2F30A120FF0CAF8029847F671
:1058C000F07100EA0103089A106900EB13101061EF
:1058D000029800EA01020899086A00EB12100862B7
:1058E000FFE71BE0029800F4F0110620B0EB514FE7
:1058F00012D1FFE70A980B9901F2C44108220FF078
:10590000A7F8029847F6F07100EA01020899086AC0
:1059100000EB1210086200E0FFE7FFE70B98016858
:10592000886940F010008861FFE70B9800680FF06D
:1059300081F80003002840F1A680FFE700200490D2
:105940000B9800680FF024F80690FFE706980028EF
:1059500000F09880FFE79DF81800C007002800F0CD
:105960008A80FFE70B9800689DF810100FF04AF846
:1059700005909DF81400C00760B1FFE709980499ED
:1059800000EB41110120C1F8080B0B98049904F0B9
:1059900053FEFFE79DF81400000700280CD5FFE731
:1059A0000998049900EB41110820C1F8080B0B98E5
:1059B000049904F0FBFDFFE79DF81400C0060028E1
:1059C00008D5FFE70998049900EB41111020C1F8B0
:1059D000080BFFE79DF81400800700282DD5FFE78E
:1059E0000A9840690006002808D5FFE70999D1F810
:1059F000040840F48060C1F80408FFE70B9804999C
:105A000001EBC10100EB810000F51F7008900898C0
:105A1000C078012809D1FFE708990020C8700B98C9
:105A20009DF8101000F014FBFFE70998049900EBB3
:105A300041110220C1F8080BFFE79DF81400800611
:105A4000002808D5FFE70998049900EB41112020B0
:105A5000C1F8080BFFE79DF815008006002809D55E
:105A6000FFE70998049900EB41114FF40050C1F889
:105A7000080BFFE7FFE70498013004900698400800
:105A8000069063E7FFE70B9800680EF0D3FF400332
:105A9000002840F1C680FFE70B9800680EF066FF13
:105AA000069000200490FFE70698002800F0B880D8
:105AB000FFE79DF81800C007002800F0AA80FFE764
:105AC0000B9800689DF810100EF074FF05909DF87B
:105AD0001400C00700283ED0FFE7049800F00F0133
