:020000040800F2
:1000000098BB00202103000895BE00084DA30008FE
:1000100081BC000889210008257601080000000045
:10002000000000000000000000000000F1200108B6
:100030007D3D00080000000091C50008B9210108BD
:100040003B0300083B0300083B0300083B03000898
:100050003B0300083B0300083B0300083B03000888
:100060003B0300083B030008A13D00083B030008D8
:10007000B12A00083B0300083B0300083B030008CB
:100080003B0300083B0300083B0300083B03000858
:100090008D2100083B0300083B030008AD3D00082C
:1000A0003B0300083B0300083B0300083B03000838
:1000B000C5220108F5220108092301083B030008B5
:1000C0003B0300083B0300083B0300083B03000818
:1000D0003B0300083B0300083B030008F938010814
:1000E0003B0300083B0300083B0300083B030008F8
:1000F0003B0300083B0300083B0300083B030008E8
:100100003B0300083B0300083B0300083B030008D7
:100110003B0300083B0300081D23010831230108AD
:10012000C12A0008953B0008A53B0008B53B000824
:100130003B0300083B0300083B0300083B030008A7
:100140009D2100083B0300083B03000851BF000845
:100150003B030008C53B0008D53B00082D3A0108C9
:100160003B0300083B0300083B0300083B03000877
:100170003B0300083B0300083B03000800000000AD
:100180003B0300083B03000800F002F800F0B8F859
:1001900014A696E8000CB244B344DA4501D100F04D
:1001A000AFF8BAE80F000FA696E83000A5EB0405FB
:1001B00004EB0607AAEB0704A7F101074FEA1515A0
:1001C0004FEA3414A4F10104AC4201D300F098F8D2
:1001D00013F0010F18BFFB1A43F0010300F001F800
:1001E000DBE7184784CE0100A4CE01000A4410F8D2
:1001F000014B14F00F0508BF10F8015B240908BF7C
:1002000010F8014B6D1E05D010F8013B6D1E01F872
:10021000013BF9D1641E03D0641E01F8015BFBD1E0
:100220009142E4D37047000070470000002300248F
:1002300000250026103A28BF78C1FBD8520728BFF6
:1002400030C148BF0B6070476E2900F02F827029C3
:1002500000F0718366291CF0CC8265291CF0C982EC
:1002600067291CF0C68261291CF0C58203681B0A3D
:1002700028BF41F08001692900F0DC81642900F089
:10028000D981752900F0D6816F2900F0FF82782985
:1002900000F03D83E92900F09982E42900F096827C
:1002A000F52900F09382EF2900F0FC82F82900F094
:1002B0003C830368DB0928BF41F08001632901F01A
:1002C0007780732901F07C80E32901F08780F3298E
:1002D00001F08C80002070471FB51CF078FA01F007
:1002E000DBF80400002000211BF0E6FC401C6060ED
:1002F000002000211BF0CAFCE0601FBD10B510BD3E
:1003000001F09DF81146FFF7E7FF18F085FC01F0BA
:1003100079F903B4FFF7F2FF03BC01F07DF90000A7
:100320000948804709480047FEE7FEE7FEE7FEE789
:10033000FEE7FEE7FEE7FEE7FEE7FEE704480549C5
:10034000054A064B70470000B122010889010008E8
:10035000987B002098BB0020989B0020989B002051
:1003600053EA020C00F069802DE9F04B4FF00006D3
:10037000002B1FBFB3FA83F503FA05F424FA05F640
:100380005E4012BF1643B2FA82F502FA05F4C5F1D7
:1003900020051EBF22FA05FC44EA0C04203556EA6B
:1003A000044C4FEA144418BF641C4FF000084FF08F
:1003B0000009904271EB030C39D3002919BFB1FA3F
:1003C00081F701FA07F6B0FA80F700FA07F6C7F1ED
:1003D00020071EBF20FA07FC46EA0C062037B6FBB2
:1003E000F4FCA7EB0507103F07F01F0BCBF120062D
:1003F0002CFA06F60CFA0BFB44BFB3460026202F5E
:10040000A4BF5E464FF0000B5BEA060C08BF4FF03E
:10041000010B19EB0B0948EB0608ABFB027C06FB52
:1004200002CC0BFB03CCC01B71EB0C01C1E70B46EC
:10043000024641464846BDE8F08B13B5084318BF55
:100440004FF0FF300146AFF30080BDE81C4070471D
:100450000FB41CB5084B06AA7B446946009005986A
:1004600000F03DF904460020694600F04BF92046B3
:100470001CBC5DF814FB0000A9020000032A40F236
:10048000308010F0030C00F0158011F8013BBCF136
:10049000020F624498BF11F801CB00F8013B38BF4E
:1004A00011F8013BA2F1040298BF00F801CB38BF5C
:1004B00000F8013B11F0030300F00C83083AC0F090
:1004C000088051F8043B083A51F804CBA0E8081022
:1004D000F5E7121D5CBF51F8043B40F8043BAFF355
:1004E0000080D20724BF11F8013B11F801CB48BFAF
:1004F00011F8012B24BF00F8013B00F801CB48BFE5
:1005000000F8012B70474FF0000200B513469446E7
:100510009646203922BFA0E80C50A0E80C50B1F15B
:100520002001BFF4F7AF090728BFA0E80C5048BF6F
:100530000CC05DF804EB890028BF40F8042B08BF0D
:10054000704748BF20F8022B11F0804F18BF00F809
:10055000012B704770477047704710B500F0F0FAF4
:10056000006810BD10B5044600F0EAFA046010BD42
:1005700070B5044685690068C10601D5302600E0E3
:100580002026C00707D070BDD4E90121304690472E
:10059000206A401C20626D1EF6D570BD70B5044601
:1005A00085690078C00707D170BDD4E901212020FA
:1005B0009047206A401C20626D1EF6D570BD096808
:1005C0004A0501D540B27047C905FCD500B2704755
:1005D00009684A0501D5C0B27047C905FCD580B28B
:1005E000704770B50C460546012A05D0287880066C
:1005F00000D5EA69002302E0012305E05B1C934279
:1006000002D2E05C0028F9D1A869E618C01AA861F6
:10061000286A184428622846FFF7AAFF04E0D5E9B3
:10062000012114F8010B9047B442F8D32846FFF794
:10063000B5FF70BD2DE9F04106460024106875290C
:10064000314616A510D0FFF7BAFF002802DA404263
:1006500013A507E031688A0701D512A502E0490712
:1006600004D511A5012401E0FFF7B2FF00210A2201
:1006700006F1240709E0B0FBF2FCB0FBF2F302FB49
:100680001C00303078541846491C0028F3D123460A
:100690002A463046BDE8F04100F09BBA0000000059
:1006A0002D0000002B0000002000000011680268EF
:1006B000006A530501D508700AE0D30501D508800A
:1006C00006E0130603D5C217C1E9000200E0086086
:1006D0000120704701694A1C02610878704700B523
:1006E0008FB0CDE901310021059105497944CDE96B
:1006F00003101146684600F029F90FB000BD000054
:10070000E5FFFFFF0A6802F8010B0A60704700006E
:100710002DE9FF5F15468A460446DFF8AC80F844B1
:100720000027D8E900103E46CDE9001010E03AF865
:1007300016106A4602A800F05DFE411C07D0217821
:10074000890603D5E269391891420DD80744761C11
:100750002078800602D5E069B84205DDAE42E6DBCE
:100760003AF816000028E2D1A069C01BA06120461B
:10077000FFF7FEFED8E90010CDE90010002017E0D9
:100780003AF818106A4602A800F034FEB0F1FF3FB4
:1007900081460BD000250DF1080B05E0D4E90121BD
:1007A0001BF8050090476D1C4D45F7D308F101007B
:1007B000B0428046E4DB206A384420622046FFF7DE
:1007C000EDFEBDE8FF9F0000DAC001002DE9F04119
:1007D0008046D21D22F007020025D2E90002F52949
:1007E00015A614D0011E72F1000106DA0023D0EB29
:1007F000030063EB020211A608E0D8F800108B0793
:1008000001D50FA602E0490701D50EA60125114624
:10081000002408F1240704E000F096F930323A553C
:10082000641C50EA0102F7D12B463246214640466D
:10083000BDE8F04100F0CDB9000000002D0000003F
:100840002B0000002000000030B4002100F124043F
:1008500008E002F00705D208303542EA4372DB08AF
:100860006554491C52EA0305F3D10468002310A221
:10087000250708D504F020040C4304D0C4690123E3
:100880000CA2641EC46130BC00F0A3B910B50446CC
:1008900021461068FFF79CFE02462046BDE8104046
:1008A0000023D1E7D21D22F00701D1E90023CBE7D5
:1008B0000000000030000000F0B40D46018809057A
:1008C00002D5214C7C4402E01F4C7C440E340021B4
:1008D00000F1240608E002F00F071209E75D42EA82
:1008E00003721B097754491C52EA0307F3D10278BB
:1008F0000023120704D5702D06D009B1022311344C
:100900002246F0BC00F065B901231034F8E770B559
:1009100004460D4621461068FFF75AFE0246294656
:100920002046BDE870400023C6E7D21D22F0070331
:10093000D3E90023C0E70368126843F02003036093
:100940000823C3610023B7E73CBF01002DE9F05F36
:10095000894604464FF0000ADFF874B1FB44C0F842
:1009600020A02046E1688847002874D0252806D0BA
:10097000D4E901219047206A401C2062F1E700265B
:100980005F462046E16888472028054607DB312D71
:1009900005D2781910F8200C08B10643F1E7B0072A
:1009A00001D526F00406C4F81CA00027C4F818A03E
:1009B0002A2D09D028461BF043F938B304EB8708E9
:1009C000303DC8F8185019E059F8041B204604EBD4
:1009D00087029161E1688847012F054618D1E069D7
:1009E000002820DA26F020061DE0D8F8180000EBD9
:1009F000800005EB40003038C8F818002046E16858
:100A0000884705461BF01CF90028EED1012F0AD0BB
:100A10002E2D08D12046E16888477F1C0546022F0D
:100A200046F02006C4DBA069002803DA404246F005
:100A30000106A061F00701D026F010066C2D0BD046
:100A4000682D09D04C2D39D06A2D35D0742D35D074
:100A50007A2D33D016E038E0E1682F4620468847EB
:100A6000B842054609D16C2F26D04FF48060E1686A
:100A7000064320468847054604E06C2F1AD04FF401
:100A8000807006430DB3A5F14100192802D8203526
:100A900046F400664A462946204626604E46FFF741
:100AA000D3FB80B101280BD0F61D26F0070000F122
:100AB000080956E74020E4E78020D8E70020D6E781
:100AC00006F104094DE7284652E7206ABDE8F09F89
:100AD000CCBE010010B5203AC0F00B80B1E8185030
:100AE000A0E81850B1E81850A0E81850203ABFF418
:100AF000F5AF5FEA027C24BFB1E81850A0E81850B7
:100B000044BF18C918C0BDE810405FEA827C24BF0A
:100B100051F8043B40F8043B08BF7047D20728BF98
:100B200031F8023B48BF11F8012B28BF20F8023BE7
:100B300048BF00F8012B7047004870472002002092
:100B4000004870472002002030B5B0F10A0271F170
:100B500000034FEA900E4EEA817EB0EB0E0061EB8F
:100B600091014FEA101E4EEA017E10EB0E0041EBA0
:100B700011114FEA102E4EEA016E10EB0E0041EB00
:100B800011214FEA104E4EEA014E10EB0E0041EBE0
:100B90001141401841F100014FEAD00040EA417094
:100BA0004FEAD1014FEA810444EA907410EB8005CA
:100BB00044EB01046D1944EB0404521BA3414FF0B4
:100BC000000348BF0A3200D530BD401C41F100018E
:100BD00030BD2DE9F0470D4699469246044600F196
:100BE00024080168880604D5E06921F0100121601D
:100BF00000E00120A84201DD471B00E00027A169B9
:100C00007A1902EB0900081AA0612078C00602D404
:100C10002046FFF7ADFC002608E0D4E901211AF8D0
:100C200006009047206A401C761C20624E45F4DB8B
:100C30002078C0060AD52046FFF79AFC06E0D4E9E2
:100C4000012130209047206A401C2062381EA7F105
:100C50000107F4DC07E0D4E9012118F8050090470A
:100C6000206A401C2062281EA5F10105F3DC204605
:100C7000FFF794FC2078000602D50220BDE8F0873B
:100C80000120FBE72DE9FF4F0C461E464FF0FF37D2
:100C90008BB0D2E90001DDF860800A908A46C1F38A
:100CA0000A5505B93D46002108464FF00000BAF14B
:100CB000000F00F4400005DA00EB80004FF4400123
:100CC00001EA50004FEA9059B9F1010F00DDB94631
:100CD0000A9850EA4A000ED044F61050A5F2FF35AB
:100CE00045432F14B8F1000F1ED07542291E1EDD9A
:100CF000C9F100021CE0B8F1010F4FF0000001D073
:100D0000302103E0F24305E02154401CB042FBDBFC
:100D100030460022002121540B99C1F80880C1E916
:100D200000200FB0BDE8F08FBD1B6D1CDEE74A460A
:100D300000DA694206A800F0F3FB06AB93E807006F
:100D400003AB83E8070050460A991AF045F98DE88D
:100D50000700A0F500501F3800900398002D0ADD11
:100D600042F21F014A460844002303A90390684643
:100D70001AF0AEFB09E0A0F500504A461F380023E8
:100D800003A9039068461AF0B8FB8DE80700000439
:100D9000000C03D04FF0FF30410800E01046B8F1DE
:100DA000000F03D00022009215461EE0751E05D4E8
:100DB000FFF7CAFE303262556D1EF9D5B3460122E7
:100DC000084302D000227F1C04E02078302801D1A3
:100DD00000227F1E002A099784D01DE0112D07DA1A
:100DE000FFF7B2FE303262556D1C50EA0102F5D1B8
:100DF000084302D00098C8B10EE00021681E05E04B
:100E0000235C625C63542254401E491C8142F7DB20
:100E1000AB46A81B401E0990002004F80B000B985D
:100E2000099AC0F80880C0E9002B7AE711264FF034
:100E3000000857E72DE9F04F88460446D21D22F0FE
:100E4000070191B0D1E90001CDE90A011AF08CFC4B
:100E500002460B98C00F01D02D2007E020688107C3
:100E600001D52B2002E0202101EAC000032A0990CD
:100E700001D0072A05DB03464146204600F010FB5F
:100E80000BE12078800601D5E06900E00620B8F18A
:100E9000650F814606D0B8F1660F18D0B8F1670F1C
:100EA00070D131E00020B9F1110F009001DB112366
:100EB00001E009F101030AAA01A90CA8FFF7E2FE6B
:100EC000DDE90C70002609F10105834647E00120A9
:100ED0004B4600904FF000470AAA01A90CA8FFF763
:100EE000D1FEDDE90DB00C995D46002610B909F17F
:100EF00001000D18B9EB050003D4C0F1FF3609F16C
:100F00000105A5EB09002BE0B9F1010F01DA4FF063
:100F100001090020B9F1110F0090484601DD1123AD
:100F200000E003460AAA01A90CA8FFF7ABFEDDE921
:100F30000C704D4600268346207800070AD4AB4546
:100F400000DA5D4601A8012D04DD411911F8011CEC
:100F5000302907D04F4502DA17F1040F04DA0120D7
:100F600082460FE06D1EEEE7002F02DCED1B3E44D3
:100F700003E0781CA84200DD7D1CB81B00F1010ACB
:100F80004FF000472078000703D4AA4501DB4FF05B
:100F9000FF3A0021B7F1004F0DF143088DF84310DF
:100FA00024D002202B23002F01DA7F422D230A2197
:100FB000021EA0F1010000DC5FB197FBF1FC97FB82
:100FC000F1F201FB1C7C17460CF1300C08F801CD46
:100FD000EEE7A8F1010003702188090501D545213C
:100FE00000E06521A0F1010800F8011C09980FA993
:100FF000A1EB0807FF1D00B10120411901EBEA70C8
:10100000A1693844081A401EA0612078C00602D4A5
:101010002046FFF7ADFA099828B1D4E9012190479D
:10102000206A401C20622078C00622D52046FFF7A7
:101030009FFA1EE0002E04DBB34502DD01A8805DAF
:1010400000E03020D4E901219047206A401C206252
:10105000761CAAF101005FEA000A0AD100F01CFA2E
:10106000C0680168405CD4E901219047206A401CB7
:101070002062281EA5F10105DCDC07E0D4E901218E
:1010800018F8010B9047206A401C2062381EA7F117
:101090000107F3DC2046FFF781FA032011B041E697
:1010A0002DE9F04F04460D46D21D22F0070089B00D
:1010B000D0E90097484639461AF056FB0246F80F29
:1010C00001D02D2307E02068810701D52B2302E002
:1010D000202101EAC0038DF820300BB1012000E08F
:1010E0000020032A824601D0072A04DB2946204635
:1010F00000F0D6F93FE12078800601D40D2500E00C
:10110000E569C7F30A560D2D49DA00214FEA175B4E
:1011100008464FF00000002F00F4400007DA00EB13
:1011200080004FF4400100EBD07001EA60008115AF
:10113000012901DD4FF0FF3100224FEA850CBCF19F
:10114000180F06D31346ACF118004FF08052C2407E
:1011500003E04FF4801323FA0CF30CF10C0CBCF1F8
:10116000200F04D3ACF1200C09FA0CF001E007FACF
:101170000CF000294FF0004801DD18B90FE00ED146
:1011800040450CD319EB02095F4121B9404502D11A
:101190009F4329EA0209BBEB175F00D0761C208829
:1011A000000502D57B48784402E07A487844193833
:1011B00008AA302302F80A30037C0AF10101002E4C
:1011C0000AF1020A53546A4602DC4FF0300101E092
:1011D0004FF031014FF001088DF8001002D0A6F257
:1011E000FF3603E059EA470100D06B4E002D02DCC8
:1011F0002178090704D54FF002082E218DF801103F
:10120000C44600210BE0C7F303433F01C35C491C04
:101210006D1E02F80830052908F1010801DA002DD9
:10122000F1DC00210CE000EB1973491C1B786D1EEA
:10123000082902F808304FEA091908F1010801DA13
:10124000002DF0DC21688B0602D516E0A8F101081C
:10125000E04505DD02EB080313F8013C302BF5D027
:10126000B8F1000F09DD02EB080313F8013C2E2B47
:1012700003D1090701D4A8F10108002D05DD3E21A5
:1012800002F808106D1E08F10108407C002E02F8DB
:10129000080008F1010804DA2D20764202F808005F
:1012A00002E02B2002F808000A214FF47A708642EF
:1012B00008F101080BDB96FBF0F3303302F808303D
:1012C00096FBF0F308F1010800FB136601E0642EC1
:1012D0000CDB642096FBF0F3303302F8083096FB09
:1012E000F0F308F1010800FB136601E00A2E06DBAB
:1012F00096FBF1F0303002F8080008F1010896FB87
:10130000F1F001FB1060303002F80800A16908F12B
:10131000010808EB050202EB0A00081AA061207818
:10132000C00602D42046FFF723F9216A08AE01EB7C
:101330000A00206204E0D4E9012116F8010B90476D
:10134000BAF1010AF7D22078C00602D52046FFF78D
:101350000FF96E4609E016F8010B3E280FD0D4E9CC
:1013600001219047206A401C2062B8F10108F2D2A6
:101370002046FFF713F909B00320BDE8F08F206A7B
:101380002844206203E0D4E90121302090476D1EFB
:10139000EBD3F8E7A6B6010002FCFFFF10B54369E6
:1013A00013B1AFF3008001E0FFF71BF9012010BD7E
:1013B000127800F124010A7000224A700122EDE740
:1013C00011684FF0FF32E9E710B5436913B1AFF38D
:1013D000008001E0FFF79CF9012010BD128800F1A8
:1013E000240182840022C2840122EDE711684FF0BB
:1013F000FF32E9E72DE9F04116460C46054600F0BC
:1014000043F8036893F80101012807D0FF2C12D894
:10141000185D80B101202C70BDE8F081D3F8070180
:101420003246214603F20713C7182846BC46BDE8DA
:10143000F041002360474FF0FF30EDE770477546FD
:10144000FFF77AFBAE4605006946534620F00700D9
:10145000854618B020B5FEF771FFBDE820404FF07B
:1014600000064FF000074FF000084FF0000BAC46AD
:10147000ACE8C009ACE8C009ACE8C009ACE8C009F8
:1014800021F007018D46704710B500F005F8001DEA
:1014900010BD00BF25A80100004870474002002091
:1014A0002DE9F0411F46044603260168072A01F48E
:1014B000006004DB08B116A505E016A503E008B13D
:1014C00015A500E015A521F010002060A069C01E40
:1014D000A0610FB1401EA0612046FFF749F84FB14F
:1014E000D4E9012138469047206A401C2062C01C84
:1014F000206206E0206AFAE7D4E9012115F8010B21
:101500009047761EF8D22046FFF748F8BDE8F081F4
:101510004E414E006E616E00494E4600696E660097
:101520002DE9F047814616468AB0354878440DC803
:101530008DE80D0032487844801C03AC0DC884E867
:101540000D0041F69B300844372190FBF1F290FBEF
:10155000F1F5A5F1800501FB12041B3C02D56442A4
:10156000012000E00020DFF898A080460027FA4420
:10157000AAF1BE0A0EE0E0070AD03246684607EB41
:10158000470101230AEB810119F0B7FF8DE807003D
:1015900064107F1C002CEED1194F7F44AE3F19E040
:1015A000E80715D007EB04100DF1180A90E80E00BB
:1015B0008AE80E00C068F04201D1981908903246BE
:1015C000012306A903A819F098FF03AB83E80700DD
:1015D0006D10641C002DE3D14FF0010332466946C3
:1015E000B8F1000F03A802D019F072FF01E019F062
:1015F00084FFC9E90001C9F808200AB0BDE8F087F6
:10160000B0B3010010B50446AFF300802046BDE83A
:101610001040FEF77EBE000001491820ABBEFEE779
:10162000260002000000000030B44FF0013C50F8EA
:10163000042B51F8043BCCFA52F4D51A20D1FCB952
:1016400050F8042B51F8043BCCFA52F4D51A17D1B8
:10165000B4B950F8042B51F8043BCCFA52F4D51A23
:101660000ED16CB950F8042B51F8043BCCFA52F46B
:10167000D51A05D1002CDAD030BC4FF000007047ED
:1016800029BAB1FA81F111F01801D1F1200084409A
:10169000F2D1CA40CB4012F0FF0213F0FF0330BC7E
:1016A000D01A704780B590B00F908DED0E0A0D9155
:1016B0000C920F980D9991ED000AD1ED010A91ED70
:1016C000022AB1EE400A9FED361A31EE421A0C9909
:1016D00091ED004A91ED012A91ED023AF1EE441AA2
:1016E000F1EE432A9FED2F4AB0EE443AF0EE443A31
:1016F00009F0D0FC43F65800C2F200000A9090EDC9
:10170000000B8DED000B40F2E810C2F200000B90D0
:101710000068069001381AF019FD41EC100B8DEDB0
:10172000020B0D9880681AF0E1FF9DED001B9DED06
:10173000020B41EC120B8DED042B51EC110B53EC11
:10174000102B1AF01BFD9DED040B41EC110B51EC1D
:10175000110B53EC102B1AF0DBFE02460698079291
:101760000A46079942EC101B8DED080B1AF0EEFCAF
:101770009DED081B41EC100B51EC110B53EC102BA1
:101780001AF08AFB02460A980B460B9943EC102B81
:1017900080ED000B08680130086010B080BD00BF0C
:1017A00024977F3B0000000040F63C01C2F200019C
:1017B000002048617047000080B584B040F250308E
:1017C000C2F2000090F8800248B1FFE740F25030CA
:1017D000C2F2000090F8800201280CD1FFE740F22D
:1017E0005031C2F2000100208864C864A1F87A0276
:1017F000A1F87C0270E040F25030C2F2000090F894
:101800008002022829D1FFE740F25030C2F20000E6
:10181000039000218164C16490ED070A00F5F07027
:10182000DFED2E0ACDED020A0AF05EFDDDED020AC3
:101830000398BDEEC00A10EE101AA0F87A1290EDCF
:10184000080A00F50A700AF04FFD0399BDEEC00AC0
:1018500010EE100AA1F87C023DE040F25030C2F2D6
:10186000000090F88002032834D1FFE700F076F8FA
:1018700040F25030C2F20000019090ED070A40F2B1
:101880001801C2F200010968494201EE101AF8EE8F
:10189000C10A00F5F0700AF027FD0198BDEEC00AFC
:1018A00010EE101AA0F87A1290ED080A40F21C010E
:1018B000C2F2000191ED001AF8EEC10A00F50A70BB
:1018C0000AF012FD0199BDEEC00A10EE100AA1F84F
:1018D0007C02FFE7FFE7FFE704B080BD00000000E7
:1018E00040F63C01C2F200010020C86070470000D1
:1018F00080B584B040F25030C2F20000009000F594
:10190000F07040F20002C2F20002002101919FED4E
:101910000D0A8DED020ADFED0C0ACDED030A0AF087
:1019200009FE009801999DED020ADDED030A00F51C
:101930000A7040F20C02C2F200020AF0FBFD04B091
:1019400080BD00BF000080460080BB4540F63C01E2
:10195000C2F20001002008617047000040F6C40098
:10196000C2F20000C07A022809D1FFE740F25030ED
:10197000C2F2000090F88002032801D0FFE7E1E006
:1019800043F63C00C2F20000D0F8030000EE100A5B
:10199000BBEE0C1A30EE010A40F2E020C2F2000069
:1019A00080ED000A90ED000A40F2DC20C2F2000057
:1019B00090ED001AB4EE410AF1EE10FA01D1FFE702
:1019C000C0E040F2E020C2F2000090ED000A9FED7E
:1019D0005E1AB4EE410AF1EE10FA0EDAFFE740F2B9
:1019E000E020C2F2000090ED000A9FED581AB4EE1C
:1019F000410AF1EE10FA23DCFFE740F2E421C2F2E3
:101A0000000108680130086040F2E020C2F20000E6
:101A100090ED000A40F2DC20C2F2000090ED001AC6
:101A200020EE010AB5EE400AF1EE10FA07DAFFE700
:101A300040F2E421C2F2000100200860FFE7FFE766
:101A400043F63C00C2F20000D0F8030000EE100A9A
:101A5000B3EE0E1AB4EE410AF1EE10FA10DAFFE717
:101A600043F63C00C2F20000D0F8030000EE100A7A
:101A7000BBEE0B1AB4EE410AF1EE10FA1FDAFFE7E3
:101A800040F2E020C2F2000090ED001A40F2DC10BB
:101A9000C2F2000090ED000AB8EEC02A40F2180031
:101AA000C2F2000090ED000AB8EEC00A21EE021A60
:101AB00030EE410ABDEEC00A80ED000A2DE040F292
:101AC000E420C2F200000068052825DBFFE740F2B1
:101AD000E020C2F2000090ED001A40F2DC10C2F2E9
:101AE000000090ED000AB8EEC02A40F21800C2F2E1
:101AF000000090ED000AB8EEC00A21EE021A30EEA6
:101B0000410ABDEEC00A80ED000A40F2E421C2F2B3
:101B1000000100200860FFE7FFE740F21800C2F272
:101B20000000006840F21C01C2F20001086040F2AF
:101B3000E020C2F20000006840F2DC21C2F20001A5
:101B40000860FFE7704700BF6666A63F6666A6BFEF
:101B500080B582B00190072017F0F6F8FFE700F09B
:101B600075F920B1FFE7642017F0EEF8F7E742F2CD
:101B7000D012C2F2000202F11400111D103200F066
:101B80009BF943F20420C2F200004CF6B832C0F6D2
:101B9000010200219FED210ADFED210A0AF0CAFCB3
:101BA00042F65460C2F200001021C16106F074FEDA
:101BB00018B1FFE702F04AF9FFE740F2E010C2F285
:101BC000000042F21C31C2F20001082210F094F829
:101BD00043F20021C2F2000101200870FFE742F247
:101BE000D010C2F2000000F11401021D40F24C00BE
:101BF000C2F2000000909FED0B0AFFF753FD009822
:101C000040F60001C2F200010A1D01F1080316F0BE
:101C1000F5FC012017F098F8E1E700BF00A08C4523
:101C2000008089456F12833A80B50020C4F202001B
:101C30001021012204F05CFC80BD000080B5002072
:101C4000C4F202001021002204F052FC80BD00000A
:101C50007047000080B540F20040C4F2020001224B
:101C6000114604F045FC80BD80B540F20040C4F24E
:101C700002000121002204F03BFC80BD85B00490ED
:101C80000391029204990878497840EA0120ADF85E
:101C90000600BDF9060000EE100AB8EEC00A40F2D8
:101CA0002000C2F2000090ED001A20EE010A039914
:101CB00081ED000A049A9178D27841EA0221ADF8C8
:101CC0000610BDF9061000EE101AB8EEC00A90ED2D
:101CD000001A20EE010A039981ED010A049A117994
:101CE000527941EA0221ADF80610BDF9061000EE66
:101CF000101AB8EEC00A90ED001A20EE010A0398FF
:101D000080ED020A04988179C279007A000440EAE1
:101D10000220084400909DED000AB8EE400A9FEDB5
:101D2000041A20EE010A029880ED000A05B07047FF
:101D300000401C427047000080B582B0ADF806003C
:101D4000BDF8060017F000F802B080BD80B582B083
:101D5000ADF80600BDF8060016F038FA02B080BDF6
:101D600084B003900291019203990878497840EA7F
:101D70000120ADF80200BDF9020000EE100AB8EE35
:101D8000C00A40F22400C2F2000090ED001A20EEDA
:101D9000010A029981ED000ABDF9021000EE101A45
:101DA000B8EEC00A9FED272A80EE020A9FED261AA0
:101DB00020EE010A019981ED000A039A9178D27808
:101DC00041EA0221ADF80210BDF9021000EE101A2E
:101DD000B8EEC00A90ED003A20EE030A029981EDB8
:101DE000010ABDF9021000EE101AB8EEC00A80EE2A
:101DF000020A20EE010A019981ED010A039A117984
:101E0000527941EA0221ADF80210BDF9021000EE4C
:101E1000101AB8EEC00A90ED003A20EE030A0298BC
:101E200080ED020ABDF9020000EE100AB8EEC00A09
:101E300080EE020A20EE010A019880ED020A04B049
:101E4000704700BF000000470000FA4480B582B030
:101E500000208DF80700FFF7FBFEFFF76BFF15F082
:101E600057FD38B1FFE79DF8070040F080008DF87E
:101E7000070008E015F084FC01469DF807000843C0
:101E80008DF80700FFE715F0C1FF38B1FFE79DF8B7
:101E9000070040F040008DF8070008E015F012FF41
:101EA00001469DF8070008438DF80700FFE79DF8FD
:101EB000070002B080BD000080B588B00790069191
:101EC00005920020009004900390FFF7B7FE922047
:101ED00000F006F9122003A90191062200F0CCF8C7
:101EE000FFF7A2FE9DF80C009DF80D1040EA0120BE
:101EF000ADF80A00BDF90A0000EE100AB8EEC00AFB
:101F000040F22000C2F2000090ED001A20EE010A1B
:101F1000069981ED000A9DF80E109DF80F2041EA08
:101F20000221ADF80A10BDF90A1000EE101AB8EE41
:101F3000C00A90ED001A20EE010A069981ED010A0F
:101F40009DF810109DF8112041EA0221ADF80A1009
:101F5000BDF90A1000EE101AB8EEC00A90ED001A92
:101F600020EE010A069880ED020AFFF77DFE009838
:101F70000199082200F080F8FFF76CFE9DF80C0034
:101F80000F2844D1FFE79DF80E009DF80F1040EA9E
:101F90000120ADF80A00BDF90A0000EE100AB8EE03
:101FA000C00A40F22400C2F2000090ED001A20EEB8
:101FB000010A079981ED000A9DF810109DF8112083
:101FC00041EA0221ADF80A10BDF90A1000EE101A1C
:101FD000B8EEC00A90ED001A20EE010A079981EDD3
:101FE000010A9DF812109DF8132041EA0221ADF874
:101FF0000A10BDF90A1000EE101AB8EEC00A90EDF2
:10200000001A20EE010A079880ED020AFFE7FFF7A9
:1020100015FEA22000F064F8222003A9022200F09D
:102020002BF8FFF701FE9DF80C009DF80D10C00085
:1020300040EA5110ADF80A00BDF90A00B0F5806F12
:1020400007DBFFE7BDF80A00A0F50060ADF80A0065
:10205000FFE7BDF90A0000EE100AB8EEC00AB4EEC0
:10206000001A20EE010AB3EE071A30EE010A0598B5
:1020700080ED000A08B080BD80B584B08DF80F00F7
:1020800002918DF807209DF80F0040F0800000F0CD
:1020900027F8FFE79DF8070070B1FFE7552000F033
:1020A0001FF8029908700298013002909DF807000D
:1020B00001388DF80700EDE704B080BD80B582B02F
:1020C0008DF8070000919DF8070040F0800000F0B7
:1020D00007F8552000F004F80099087002B080BDA0
:1020E00080B582B08DF8070069464FF47A700860B9
:1020F00042F65460C2F200000DF107010DF1060234
:10210000012306F013FD9DF8060002B080BD00001B
:1021100083B002900191029908784978C00040EAA2
:102120005110ADF80200BDF90200B0F5806F07DB79
:10213000FFE7BDF80200A0F50060ADF80200FFE780
:10214000BDF9020000EE100AB8EEC00AB4EE001AA3
:1021500020EE010AB3EE071A30EE010A019880ED75
:10216000000A03B07047000080B582B08DF8070008
:102170008DF806109DF80700FFF7B2FF9DF80600E6
:10218000FFF7AEFF02B080BDFFE7FEE780B542F289
:102190000460C2F2000003F08DF880BD80B542F209
:1021A0002C60C2F2000003F085F880BD84B08DF889
:1021B0000F000291ADF806209DF80F000146009136
:1021C00023281DD80099DFE801F012131415161BFF
:1021D0001B1B1B1B1B1B1B1B1B1B1B1B1B1B1B1B4F
:1021E0001B1B1B1B1B1B1B1B1B1B1718191A08E097
:1021F00007E006E005E004E003E002E001E000E0C3
:10220000FFE7002004B070470020704780B582B01F
:1022100042F22830C2F20000009041F65411C2F29E
:1022200000010022019212F029F8009841F25411A5
:10223000C2F2000112F004F8019802B080BD000063
:1022400080B584B003900291039942F22830C2F223
:102250000000019011F0F4FF019811F097FF03982E
:102260000299097815F0E0F9002004B080BD000063
:1022700083B0029001918DF8032000208DF80200B8
:102280009DF9020003B0704780B586B00490ADF8A8
:102290000E1000208DF80D0042F22830C2F200002E
:1022A000D0F8BC0202900298D0F8140220B1FFE7E7
:1022B00001208DF8170013E00499BDF80E2042F2BA
:1022C0002830C2F20000019011F0D8FF019812F0FE
:1022D000DFF88DF80D009DF80D008DF81700FFE771
:1022E0009DF8170006B080BD80B588B007904FF408
:1022F000FA7016F029FD40F25030C2F2000003904F
:1023000000F5F07040F20002C2F2000200210491D8
:102310009FED3B0A8DED050ADFED3A0ACDED060A89
:102320000AF008F9039804999DED050ADDED060A07
:1023300000F50A7040F20C02C2F200020AF0FAF84C
:1023400040F2DC5003F07AFE15F0B8FFFFE716F01C
:10235000B9F9014640F6C400C2F200001622FEF7A9
:102360008DF816F0B5F9014640F29920C2F200004E
:102370001922FEF783F840F6B000C2F200000AF01E
:1023800041F915F06FFF40F63400C2F2000001F091
:10239000F7FC02F0E9FB15F065FF02F0EFF802F040
:1023A000A9F902F0D9FA0AF085FAFFF7A1FA02F0CA
:1023B0000FFA01F0ADFE0AF02FFAFFF7FDF940F237
:1023C000503CC2F2000CCDF808C0BCF8700240428C
:1023D000BCF97212BCF97822BCF97A32BCF97CC221
:1023E000EE46CEF800C000B202F006FA029890ED78
:1023F0009D0A01F09BFC012016F0A6FCA7E700BF98
:10240000000080460080BB4580B584B003900291F7
:102410000192009342F20020C2F20000002181608C
:10242000C160019901610069092807D3FFE742F201
:102430000021C2F2000108200861FFE7029842F281
:102440000021C2F2000108600398009A43F63403A9
:10245000C2F2000302F0A8FC04B080BD86B0DDF833
:1024600030C0DDF82CC0DDF828C0DDF824C0DDF870
:1024700020C0DDF81CC0DDF818C00590049103925F
:10248000029300200190FFE70199002002290090AB
:1024900008DCFFE704980199405C002818BF012080
:1024A0000090FFE70098C00758B1FFE70498019A31
:1024B000805C0599891A8870FFE7019801300190C6
:1024C000E2E70599D1F80320D1F80730D1F80B00E5
:1024D00042F03802C1F80730C1F80320C1F80B0000
:1024E000DDF80CC00599D1F80320D1F80730D1F8F8
:1024F0000B006CF30202C1F80730C1F80320C1F8E9
:102500000B00DDF808C00599D1F80320D1F8073099
:10251000D1F80B000CF00F0C22F4707242EA8C120E
:10252000C1F80730C1F80320C1F80B00DDF818C06E
:102530000599D1F80320D1F80730D1F80B000CF041
:102540000F0C22F4705242EA8C22C1F80730C1F815
:102550000320C1F80B00DDF824C00599D1F8033041
:10256000D1F80720D1F80B006CF30902C1F8033051
:10257000C1F80720C1F80B00DDF828C00599D1F893
:102580000330D1F80720D1F80B006FF3DF2C6FF385
:10259000942242EA8C22C1F80330C1F80720C1F826
:1025A0000B00DDF82CC00599D1F80330D1F80720D5
:1025B000D1F80B006FF35F5242EA4C52C1F803307E
:1025C000C1F80720C1F80B00DDF81CC00599D1F84F
:1025D0000320D1F80730D1F80B006FF35F2C6FF3B5
:1025E000963242EA8C32C1F80730C1F80320C1F8B4
:1025F0000B00DDF820C00599D1F80320D1F8073091
:10260000D1F80B006FF3DF5242EACC52C1F8073029
:10261000C1F80320C1F80B0000200190FFE70198EA
:10262000089988420ED2FFE70C9800780599019A24
:102630001144C8730C9801300C90FFE701980130E9
:102640000190ECE706B070472DE9F047AEB0DDF839
:10265000F490DDF8F0803B9F3A9E399D389CDDF880
:10266000DCE0DDF8D8C0CDF88490CDF880801F97ED
:102670001E961D951C94CDF86CE0CDF868C019939A
:102680001892179116900DF18B00029016A92D2229
:102690000392FDF7F3FE0299039A4FF6FF70ADF82F
:1026A0001E000DF12700FDF7E9FE0DF1170008905F
:1026B000A5208DF817003320ADF8180040F62C50F7
:1026C000C2F2000000788DF81A0008980421FF2259
:1026D00001F0CCFC8DF81B0040F20130ADF81C007D
:1026E0004FF48870ADF8110043F2DE70C2F20000C2
:1026F0000078012808D1FFE70120ADF8130040F26F
:102700000110ADF8150098E043F2DE70C2F200004F
:102710000078652808D1FFE76520ADF8130040F286
:102720006510ADF8150087E043F2DE70C2F20000DC
:102730000078032808D1FFE70320ADF8130040F22A
:102740000310ADF8150076E043F2DE70C2F200002F
:102750000078672808D1FFE76720ADF8130040F242
:102760006710ADF8150065E043F2DE70C2F20000BC
:102770000078042808D1FFE70420ADF813004FF4D7
:102780008270ADF8150054E043F2DE70C2F2000032
:102790000078682808D1FFE76820ADF813004FF4EF
:1027A000B470ADF8150043E043F2DE70C2F20000F1
:1027B0000078052808D1FFE70520ADF8130040F2A6
:1027C0000510ADF8150032E043F2DE70C2F20000F1
:1027D0000078692808D1FFE76920ADF8130040F2BE
:1027E0006910ADF8150021E043F2DE70C2F200007E
:1027F0000078062808D1FFE70620ADF813004FF453
:102800008370ADF8150010E043F2DE70C2F20000F4
:1028100000786A2808D1FFE76A20ADF813004FF46A
:10282000B570ADF81500FFE7FFE7FFE7FFE7FFE74B
:10283000FFE7FFE7FFE7FFE7FFE70DF11700019074
:1028400008900898BDF81E20072101F0DBFBADF8C9
:102850001E000DF1110008900898BDF81E200621F9
:1028600001F0D0FBADF81E000DF12700089008988C
:10287000BDF81E202D2101F0C5FB01460198ADF8E1
:102880001E10089000201590FFE7159806280CD818
:10289000FFE70898007811F01DF8089801300890BB
:1028A000FFE7159801301590EFE70DF11100089042
:1028B00000201590FFE7159805280CD8FFE7089829
:1028C000007811F007F8089801300890FFE7159894
:1028D00001301590EFE70DF12700089000201590CA
:1028E000FFE715982C280CD8FFE70898007810F01F
:1028F000F1FF089801300890FFE715980130159016
:10290000EFE70DF11E00089000201590FFE71598E5
:1029100001280CD8FFE70898007810F0DBFF089832
:1029200001300890FFE7159801301590EFE740F669
:102930002C51C2F2000108780130087000202EB03E
:10294000BDE8F08740F63C01C2F2000108680130A2
:102950000860486801304860886801308860C8684D
:102960000130C86008690130086148690130486178
:10297000886901308861704740F63C00C2F200006F
:102980000068C92807D3FFE740F65801C2F20001EA
:102990000120087006E040F65801C2F20001002054
:1029A0000870FFE740F63C00C2F200004068C9280A
:1029B00007D3FFE740F65801C2F20001012048703A
:1029C00006E040F65801C2F2000100204870FFE71F
:1029D00040F63C00C2F200008068C92807D3FFE738
:1029E00040F65801C2F200010120887006E040F66E
:1029F0005801C2F2000100208870FFE740F63C0059
:102A0000C2F20000C068C92807D3FFE740F65801AA
:102A1000C2F200010120C87006E040F65801C2F27F
:102A200000010020C870FFE740F63C00C2F2000041
:102A30000069C92807D3FFE740F65801C2F2000138
:102A40000120087106E040F65801C2F200010020A2
:102A50000871FFE740F63C00C2F200004069C92857
:102A600007D3FFE740F65801C2F200010120487188
:102A700006E040F65801C2F2000100204871FFE76D
:102A800040F63C00C2F200008069C92807D3FFE786
:102A900040F65801C2F200010120887106E040F6BC
:102AA0005801C2F2000100208871FFE77047000062
:102AB00080B542F2D470C2F2000003F077F880BD16
:102AC00080B5E2B042F65460C2F20000C06C00680B
:102AD00046F25941C4F202018842C0F0F380FFE798
:102AE00046F20440C4F202000068619042F654606D
:102AF000C2F20000C06C006846F21001C4F202018C
:102B0000884203D1FFE720206090D6E042F654606F
:102B1000C2F20000C06C006846F21041C4F202012B
:102B2000884203D1FFE720205F90C3E042F6546063
:102B3000C2F20000C06C006846F27001C4F20201EB
:102B4000884203D1FFE720205E90B0E042F6546057
:102B5000C2F20000C06C006846F27041C4F202018B
:102B6000884203D1FFE720205D909DE042F654604B
:102B7000C2F20000C06C006846F22801C4F20201F3
:102B8000884204D1FFE74FF400605C9089E042F690
:102B90005460C2F20000C06C006846F22841C4F2E2
:102BA0000201884204D1FFE74FF400605B9075E0BA
:102BB00042F65460C2F20000C06C006846F2880120
:102BC000C4F20201884204D1FFE74FF400605A903A
:102BD00061E042F65460C2F20000C06C006846F248
:102BE0008841C4F20201884204D1FFE74FF400603B
:102BF00059904DE042F65460C2F20000C06C00688B
:102C000046F24001C4F20201884204D1FFE74FF4CA
:102C10000010589039E042F65460C2F20000C06CD7
:102C2000006846F24041C4F20201884204D1FFE745
:102C30004FF40010579025E042F65460C2F20000B5
:102C4000C06C006846F2A001C4F20201884204D1BF
:102C5000FFE74FF40010569011E042F65460C2F2C4
:102C60000000C06C016846F2A042C4F202024FF0BC
:102C70000060914208BF4FF400105690FFE756984D
:102C80005790FFE757985890FFE758985990FFE7FB
:102C900059985A90FFE75A985B90FFE75B985C90D1
:102CA000FFE75C985D90FFE75D985E90FFE75E98B8
:102CB0005F90FFE75F986090FFE761986099084038
:102CC0005590F7E242F65460C2F20000C06C006812
:102CD00046F2B901C4F202018842C0F0F380FFE776
:102CE00046F20040C4F202000068549042F654607C
:102CF000C2F20000C06C006846F21001C4F202018A
:102D0000884203D1FFE720205390D6E042F654607A
:102D1000C2F20000C06C006846F21041C4F2020129
:102D2000884203D1FFE720205290C3E042F654606E
:102D3000C2F20000C06C006846F27001C4F20201E9
:102D4000884203D1FFE720205190B0E042F6546062
:102D5000C2F20000C06C006846F27041C4F2020189
:102D6000884203D1FFE7202050909DE042F6546056
:102D7000C2F20000C06C006846F22801C4F20201F1
:102D8000884204D1FFE74FF400604F9089E042F69B
:102D90005460C2F20000C06C006846F22841C4F2E0
:102DA0000201884204D1FFE74FF400604E9075E0C5
:102DB00042F65460C2F20000C06C006846F288011E
:102DC000C4F20201884204D1FFE74FF400604D9045
:102DD00061E042F65460C2F20000C06C006846F246
:102DE0008841C4F20201884204D1FFE74FF4006039
:102DF0004C904DE042F65460C2F20000C06C006896
:102E000046F24001C4F20201884204D1FFE74FF4C8
:102E100000104B9039E042F65460C2F20000C06CE2
:102E2000006846F24041C4F20201884204D1FFE743
:102E30004FF400104A9025E042F65460C2F20000C0
:102E4000C06C006846F2A001C4F20201884204D1BD
:102E5000FFE74FF40010499011E042F65460C2F2CF
:102E60000000C06C016846F2A042C4F202024FF0BA
:102E70000060914208BF4FF400104990FFE7499865
:102E80004A90FFE74A984B90FFE74B984C90FFE73A
:102E90004C984D90FFE74D984E90FFE74E984F901D
:102EA000FFE74F985090FFE750985190FFE75198F7
:102EB0005290FFE752985390FFE754985399084077
:102EC0004890F4E142F65460C2F20000C06C006821
:102ED00046F25901C4F202018842C0F0F380FFE7D4
:102EE00046F20400C4F202000068479042F65460C3
:102EF000C2F20000C06C006846F21001C4F2020188
:102F0000884203D1FFE720204690D6E042F6546085
:102F1000C2F20000C06C006846F21041C4F2020127
:102F2000884203D1FFE720204590C3E042F6546079
:102F3000C2F20000C06C006846F27001C4F20201E7
:102F4000884203D1FFE720204490B0E042F654606D
:102F5000C2F20000C06C006846F27041C4F2020187
:102F6000884203D1FFE7202043909DE042F6546061
:102F7000C2F20000C06C006846F22801C4F20201EF
:102F8000884204D1FFE74FF40060429089E042F6A6
:102F90005460C2F20000C06C006846F22841C4F2DE
:102FA0000201884204D1FFE74FF40060419075E0D0
:102FB00042F65460C2F20000C06C006846F288011C
:102FC000C4F20201884204D1FFE74FF40060409050
:102FD00061E042F65460C2F20000C06C006846F244
:102FE0008841C4F20201884204D1FFE74FF4006037
:102FF0003F904DE042F65460C2F20000C06C0068A1
:1030000046F24001C4F20201884204D1FFE74FF4C6
:1030100000103E9039E042F65460C2F20000C06CED
:10302000006846F24041C4F20201884204D1FFE741
:103030004FF400103D9025E042F65460C2F20000CB
:10304000C06C006846F2A001C4F20201884204D1BB
:10305000FFE74FF400103C9011E042F65460C2F2DA
:103060000000C06C016846F2A042C4F202024FF0B8
:103070000060914208BF4FF400103C90FFE73C987D
:103080003D90FFE73D983E90FFE73E983F90FFE779
:103090003F984090FFE740984190FFE74198429069
:1030A000FFE742984390FFE743984490FFE7449836
:1030B0004590FFE745984690FFE7479846990840B6
:1030C0003B90F1E046F20000C4F2020000683A9042
:1030D00042F65460C2F20000C06C006846F2100173
:1030E000C4F20201884203D1FFE720203990D6E0E4
:1030F00042F65460C2F20000C06C006846F2104113
:10310000C4F20201884203D1FFE720203890C3E0D7
:1031100042F65460C2F20000C06C006846F27001D2
:10312000C4F20201884203D1FFE720203790B0E0CB
:1031300042F65460C2F20000C06C006846F2704172
:10314000C4F20201884203D1FFE7202036909DE0BF
:1031500042F65460C2F20000C06C006846F22801DA
:10316000C4F20201884204D1FFE74FF400603590B9
:1031700089E042F65460C2F20000C06C006846F27A
:103180002841C4F20201884204D1FFE74FF40060F5
:10319000349075E042F65460C2F20000C06C0068E2
:1031A00046F28801C4F20201884204D1FFE74FF4DD
:1031B0000060339061E042F65460C2F20000C06CDF
:1031C000006846F28841C4F20201884204D1FFE758
:1031D0004FF4006032904DE042F65460C2F20000BD
:1031E000C06C006846F24001C4F20201884204D17A
:1031F000FFE74FF40010319039E042F65460C2F21C
:103200000000C06C006846F24041C4F202018842EE
:1032100004D1FFE74FF40010309025E042F65460EF
:10322000C2F20000C06C006846F2A001C4F20201C4
:10323000884204D1FFE74FF400102F9011E042F6CE
:103240005460C2F20000C06C016846F2A042C4F2B1
:1032500002024FF00060914208BF4FF400102F901F
:10326000FFE72F983090FFE730983190FFE73198D3
:103270003290FFE732983390FFE733983490FFE7BE
:1032800034983590FFE735983690FFE736983790B9
:10329000FFE737983890FFE738983990FFE73A987A
:1032A000399908403B90FFE73B984890FFE74898E2
:1032B0005590FFE75598002800F06984FFE742F633
:1032C0005460C2F20000C06C006846F25941C4F27A
:1032D00002018842C0F0EF80FFE742F65460C2F27C
:1032E0000000C06C006846F21001C4F2020188427E
:1032F00003D1FFE720202E90D6E042F65460C2F2C0
:103300000000C06C006846F21041C4F2020188421D
:1033100003D1FFE720202D90C3E042F65460C2F2B3
:103320000000C06C006846F27001C4F202018842DD
:1033300003D1FFE720202C90B0E042F65460C2F2A7
:103340000000C06C006846F27041C4F2020188427D
:1033500003D1FFE720202B909DE042F65460C2F29B
:103360000000C06C006846F22801C4F202018842E5
:1033700004D1FFE74FF400602A9089E042F65460E0
:10338000C2F20000C06C006846F22841C4F202019B
:10339000884204D1FFE74FF40060299075E042F6BF
:1033A0005460C2F20000C06C006846F28801C4F2AA
:1033B0000201884204D1FFE74FF40060289061E0E9
:1033C00042F65460C2F20000C06C006846F28841C8
:1033D000C4F20201884204D1FFE74FF40060279055
:1033E0004DE042F65460C2F20000C06C006846F244
:1033F0004001C4F20201884204D1FFE74FF40010FB
:10340000269039E042F65460C2F20000C06C0068B9
:1034100046F24041C4F20201884204D1FFE74FF472
:103420000010259025E042F65460C2F20000C06C06
:10343000006846F2A001C4F20201884204D1FFE70D
:103440004FF40010249011E042F65460C2F20000E4
:10345000C06C016846F2A042C4F202024FF0006064
:10346000914208BF4FF400102490FFE72498259064
:10347000FFE725982690FFE726982790FFE72798F3
:103480002890FFE728982990FFE729982A90FFE7DE
:103490002A982B90FFE72B982C90FFE72C982D90E3
:1034A000FFE72D982E90FFE72E9846F20C41C4F2CC
:1034B00002010860EDE242F65460C2F20000C06C06
:1034C000006846F2B901C4F202018842C0F0F080FF
:1034D000FFE742F65460C2F20000C06C006846F29A
:1034E0001001C4F20201884203D1FFE7202023909B
:1034F000D6E042F65460C2F20000C06C006846F2AA
:103500001041C4F20201884203D1FFE7202022903B
:10351000C3E042F65460C2F20000C06C006846F29C
:103520007001C4F20201884203D1FFE720202190FC
:10353000B0E042F65460C2F20000C06C006846F28F
:103540007041C4F20201884203D1FFE7202020909D
:103550009DE042F65460C2F20000C06C006846F282
:103560002801C4F20201884204D1FFE74FF4006051
:103570001F9089E042F65460C2F20000C06C0068FF
:1035800046F22841C4F20201884204D1FFE74FF419
:1035900000601E9075E042F65460C2F20000C06CFC
:1035A000006846F28801C4F20201884204D1FFE7B4
:1035B0004FF400601D9061E042F65460C2F20000DA
:1035C000C06C006846F28841C4F20201884204D10E
:1035D000FFE74FF400601C904DE042F65460C2F2E9
:1035E0000000C06C006846F24001C4F2020188424B
:1035F00004D1FFE74FF400101B9039E042F654600D
:10360000C2F20000C06C006846F24041C4F2020100
:10361000884204D1FFE74FF400101A9025E042F6EB
:103620005460C2F20000C06C006846F2A001C4F20F
:103630000201884204D1FFE74FF40010199011E015
:1036400042F65460C2F20000C06C016846F2A0422B
:10365000C4F202024FF00060914208BF4FF4001024
:103660001990FFE719981A90FFE71A981B90FFE747
:103670001B981C90FFE71C981D90FFE71D981E905B
:10368000FFE71E981F90FFE71F982090FFE7209804
:103690002190FFE721982290FFE722982390FFE7EF
:1036A000239846F20841C4F2020108601890EEE146
:1036B00042F65460C2F20000C06C006846F2590144
:1036C000C4F202018842C0F0F080FFE742F6546085
:1036D000C2F20000C06C006846F21001C4F20201A0
:1036E000884203D1FFE720201790D6E042F65460CD
:1036F000C2F20000C06C006846F21041C4F2020140
:10370000884203D1FFE720201690C3E042F65460C0
:10371000C2F20000C06C006846F27001C4F20201FF
:10372000884203D1FFE720201590B0E042F65460B4
:10373000C2F20000C06C006846F27041C4F202019F
:10374000884203D1FFE7202014909DE042F65460A8
:10375000C2F20000C06C006846F22801C4F2020107
:10376000884204D1FFE74FF40060139089E042F6ED
:103770005460C2F20000C06C006846F22841C4F2F6
:103780000201884204D1FFE74FF40060129075E017
:1037900042F65460C2F20000C06C006846F2880134
:1037A000C4F20201884204D1FFE74FF40060119097
:1037B00061E042F65460C2F20000C06C006846F25C
:1037C0008841C4F20201884204D1FFE74FF400604F
:1037D00010904DE042F65460C2F20000C06C0068E8
:1037E00046F24001C4F20201884204D1FFE74FF4DF
:1037F00000100F9039E042F65460C2F20000C06C35
:10380000006846F24041C4F20201884204D1FFE759
:103810004FF400100E9025E042F65460C2F2000012
:10382000C06C006846F2A001C4F20201884204D1D3
:10383000FFE74FF400100D9011E042F65460C2F221
:103840000000C06C016846F2A042C4F202024FF0D0
:103850000060914208BF4FF400100D90FFE70D98F3
:103860000E90FFE70E980F90FFE70F981090FFE77C
:1038700010981190FFE711981290FFE7129813909B
:10388000FFE713981490FFE714981590FFE7159839
:103890001690FFE716981790FFE7179846F20C016D
:1038A000C4F2020108600C90EEE042F65460C2F2ED
:1038B0000000C06C006846F21001C4F202018842A8
:1038C00003D1FFE720200B90D6E042F65460C2F20D
:1038D0000000C06C006846F21041C4F20201884248
:1038E00003D1FFE720200A90C3E042F65460C2F201
:1038F0000000C06C006846F27001C4F20201884208
:1039000003D1FFE720200990B0E042F65460C2F2F4
:103910000000C06C006846F27041C4F202018842A7
:1039200003D1FFE7202008909DE042F65460C2F2E8
:103930000000C06C006846F22801C4F2020188420F
:1039400004D1FFE74FF40060079089E042F654602D
:10395000C2F20000C06C006846F22841C4F20201C5
:10396000884204D1FFE74FF40060069075E042F60C
:103970005460C2F20000C06C006846F28801C4F2D4
:103980000201884204D1FFE74FF40060059061E036
:1039900042F65460C2F20000C06C006846F28841F2
:1039A000C4F20201884204D1FFE74FF400600490A2
:1039B0004DE042F65460C2F20000C06C006846F26E
:1039C0004001C4F20201884204D1FFE74FF4001025
:1039D000039039E042F65460C2F20000C06C006807
:1039E00046F24041C4F20201884204D1FFE74FF49D
:1039F0000010029025E042F65460C2F20000C06C54
:103A0000006846F2A001C4F20201884204D1FFE737
:103A10004FF40010019011E042F65460C2F2000031
:103A2000C06C016846F2A042C4F202024FF000608E
:103A3000914208BF4FF400100190FFE701980290F7
:103A4000FFE702980390FFE703980490FFE70498CC
:103A50000590FFE705980690FFE706980790FFE7B7
:103A600007980890FFE708980990FFE709980A90DF
:103A7000FFE70A980B90FFE70B9846F20801C4F2A3
:103A8000020108600C90FFE70C981890FFE7189867
:103A9000FFE742F22430C2F20000007880070028DD
:103AA00021D5FFE742F22431C2F20001087800F08C
:103AB000FD00087040F20040C4F2020001221146ED
:103AC00002F016FD42F21C30C2F20000013042F258
:103AD000D011C2F20001143140F60C02C2F2000211
:103AE000FEF73EF9FFE742F2CE10C2F20000007886
:103AF000800700281DD5FFE742F2CE11C2F2000177
:103B0000087800F0FD0008700020C4F202001021C7
:103B1000012202F0EDFC42F2C010C2F200000230BD
:103B200042F2D012C2F20002111D2032FEF7A6F8B6
:103B3000FFE742F2CD10C2F20000007880070028B3
:103B400022D5FFE742F2CD11C2F20001087800F061
:103B5000FD0008700020C4F202001021012202F0D2
:103B6000C7FC42F2C910C2F20000023042F2D0118A
:103B7000C2F2000100911031FEF7CAFA009890EDF0
:103B8000040A14F0CFFEFFE714F0A8FDFFE762B0CF
:103B900080BD000080B542F63400C2F2000002F0A1
:103BA00005F880BD80B542F21470C2F2000001F049
:103BB000FDFF80BD80B542F2B460C2F2000001F0AA
:103BC000F5FF80BD80B542F69400C2F2000001F01E
:103BD000EDFF80BD80B542F27470C2F2000001F0CA
:103BE000E5FF80BD82B001900198007810384AF658
:103BF000AB21CAF6AA21A0FB011000090090009990
:103C00004CF69C30C0F60100405C0199C8650098F4
:103C1000042807D3FFE701990868042262F309002A
:103C2000886506E00199086840F2FF329043886594
:103C3000FFE70198806D02B07047000086B00590E4
:103C400000208DF813000598806A0390059880691C
:103C500010BBFFE70398029003281BD80299DFE806
:103C600001F0020D0218059890F82F00C00720B14E
:103C7000FFE701208DF81300FFE70CE00598C06A0C
:103C8000B0F1C07F04D1FFE701208DF81300FFE7FA
:103C900001E000E0FFE745E005988069B0F5005FCE
:103CA00025D1FFE70398019003281ED80199DFE88A
:103CB00001F00206021101208DF8130016E00598AC
:103CC00090F82F00C00720B1FFE701208DF8130006
:103CD000FFE70BE00598C06AB0F1C07F04D1FFE7B1
:103CE00001208DF81300FFE700E0FFE719E00398DB
:103CF0000090032804D3FFE70098032804D00EE0C7
:103D000001208DF813000BE0059890F82F00C007F4
:103D100020B1FFE701208DF81300FFE700E0FFE787
:103D2000FFE7FFE79DF8130006B0704780B584B049
:103D30008DED030A42F21821C2F200010191002028
:103D40008860C86008200861072008609DED030AAC
:103D500042F23420C2F20000029014F0A1F901995D
:103D6000029A42F20460C2F2000043F63803C2F243
:103D7000000301F019F804B080BD00007047000096
:103D800081B00090009940F65802C2F2000210681B
:103D9000D2F80320C1F80320086001B0704700008A
:103DA00080B5102002F0ACF980BD000080B5202065
:103DB00002F0A6F980BD000080B584B003900291A6
:103DC0008DF8072000208DF80600039806F0FEFA13
:103DD00008B1FFE737E00398D0F80D02B0F5FD7F9A
:103DE00001D9FFE72FE0FFE79DF806009DF80710D7
:103DF000884228DAFFE70399D1F80902431C4CF204
:103E00001160C1F6B07053FB00F2901100EBD2705C
:103E100040F2052200FB1230C1F8090202989DF819
:103E20000610405C0399D1F8092288540399D1F80F
:103E30000D020130C1F80D02FFE79DF806000130C8
:103E40008DF80600D0E704B080BD000081B0EFF32C
:103E5000108072B60090FFE7FEE7000087B0DDF843
:103E600030C0DDF82CC0DDF828C0DDF824C0DDF856
:103E700020C0DDF81CC006900591049203938DEDDF
:103E8000020A00200190FFE701990020022900901A
:103E900008DCFFE705980199405C002818BF012065
:103EA0000090FFE70098C00758B1FFE70598019A16
:103EB000805C0699891A8870FFE7019801300190AB
:103EC000E2E70699D1F80300D1F80720052363F350
:103ED000C500C1F80720C1F803000699049BD1F87A
:103EE0000300D1F8072063F30200C1F80720C1F8EE
:103EF00003000699039BD1F80300D1F8072003F0D3
:103F00000F0320F4707040EA8310C1F80720C1F855
:103F100003000699079BD1F80300D1F8072003F0AE
:103F20000F0320F4705040EA8320C1F80720C1F845
:103F3000030006990A9BD1F80320D1F8070063F328
:103F40000900C1F80320C1F8070006990B9BD1F8BE
:103F50000320D1F807006FF3DF236FF3942040EACA
:103F60008320C1F80320C1F8070006990C9BD1F803
:103F70000320D1F807006FF35F5040EA4350C1F8C7
:103F80000320C1F807000699089BD1F80300D1F877
:103F900007206FF35F236FF3963040EA8330C1F858
:103FA0000720C1F803000699099BD1F80300D1F856
:103FB00007206FF3DF5040EAC350C1F80720C1F873
:103FC00003009DED020ABDEEC00A10EE100A06992C
:103FD000C1F80B0007B0704781B00090009940F223
:103FE0004C0CC2F2000CDCF80000DCF80420DCF819
:103FF0000830DCF80CC0C1F80CC08B604A60086067
:1040000001B0704784B002900191ADF8022002988F
:1040100028B9FFE74FF6FF70ADF80E0021E0FFE78B
:104020000198411E0191B8B1FFE70298411C02912D
:1040300000788DF80100BDF802109DF8010048409D
:10404000C2B24CF66640C0F6010030F8120080EAB9
:104050001120ADF80200E3E7BDF80200ADF80E0054
:10406000FFE7BDF80E0004B07047000083B0029077
:1040700001918DF80320FFE70198411E019198B14D
:10408000FFE79DF8030002994A1C02920978484014
:104090008DF802009DF802104CF69C10C0F601004D
:1040A000405C8DF80300E7E79DF8030003B070471C
:1040B00080B584B047F61020C1F6FF700068039009
:1040C00047F61420C1F6FF700068029047F61820EA
:1040D000C1F6FF70006801900199039808440390AD
:1040E000039888B1FFE7039840F26811C2F200011B
:1040F00000910231082206F02BF900990298123142
:10410000042206F025F9FFE704B080BD000000009E
:1041100080B594B040F25030C2F2000090F88102B5
:10412000022840F06681FFE707F08AFE8DED110A54
:1041300008F0A4FAB0EE401A9DED110A9FEDDB2ABB
:1041400021EE021AB3EE0E2A8DED122A20EE020A9B
:1041500030EE010A07F0D6FE9DED122AB0EE401AAD
:1041600040F25030C2F2000090ED100A30EE410AE9
:1041700080ED100A90ED000A47F69430C2F200007C
:1041800090ED001A31EE021AB4EE410AF1EE10FA87
:1041900039DCFFE740F25030C2F2000090ED000A37
:1041A00047F69430C2F2000090ED001A9FEDEF2A1E
:1041B00031EE021AB4EE410AF1EE10FA23DBFFE70A
:1041C00007F050FE8DED100A08F09AFAB0EE401A92
:1041D0009DED100A9FEDE72A21EE021A9FEDE62AD7
:1041E00020EE020A30EE010A07F08CFEB0EE401A13
:1041F00040F25030C2F2000090ED0F0A30EE010A9A
:1042000080ED0F0AB9E040F25030C2F2000090EDAC
:10421000000A47F69430C2F2000090ED001AB3EEA7
:104220000E2A31EE021AB4EE410AF1EE10FA46DD22
:10423000FFE740F25030C2F200000F9090ED000A0C
:1042400047F69430C2F2000090ED002ABBEE0E1A41
:1042500031EE421A30EE010A07F054FE10EE100A59
:1042600018F044FA02460F9809920A46099942EC5E
:10427000101B8DED0A0BC06B18F038FA9DED0A0B80
:1042800041EC110B8DED0C1B51EC100B9FEDB20BA3
:1042900053EC102B17F072FF9DED0C0B41EC110B42
:1042A00051EC110B53EC102B17F04EFD41EC100BA1
:1042B00051EC100B17F016FD0F99C8635CE040F24B
:1042C0005030C2F2000090ED000A47F69430C2F27E
:1042D000000090ED001A9FEDA52A31EE021AB4EE0F
:1042E000410AF1EE10FA46DAFFE740F25030C2F22E
:1042F0000000089090ED000A47F69430C2F20000EA
:1043000090ED002A9FED9A1A31EE421A30EE010A22
:1043100007F0F8FD10EE100A18F0E8F902460898C8
:1043200003920A46039942EC101B8DED040BC06BFF
:1043300018F0DCF99DED040B41EC110B8DED061B23
:1043400051EC100B9FED840B53EC102B17F016FF64
:104350009DED060B41EC110B51EC110B53EC102BA6
:1043600017F0F2FC41EC100B51EC100B17F0BAFCFB
:104370000899C863FFE7FFE7FFE740F25030C2F259
:104380000000029090ED001A90ED0F0A9FED742A44
:1043900071EE420A31EE021A14F0D4FB029880ED5D
:1043A0000F0A90ED100AFAEE080AB3EE061A14F09E
:1043B000A7F8029880ED100A90ED000AD0ED030AEC
:1043C00090ED0F1A503013F0E5FD0298BDEEC00AD3
:1043D00010EE101AA0F8701290ED010AD0ED040A48
:1043E00090ED101AF43013F0D5FD029880ED9D0A7F
:1043F000AFE040F25030C2F2000090F88102032892
:104400004AD1FFE740F29921C2F200014A6840F226
:104410005030C2F20000019002648968C16390EDDF
:104420000F0A47F69430C2F2000090ED001A9FED9B
:104430004F2A71EE020AB3EE0E2A31EE021A14F080
:104440005FF8019880ED0F0A90ED100AFAEE080A65
:10445000B3EE061A14F054F8019880ED100A90EDAE
:10446000000AD0ED030A90ED0F1A503013F092FDC0
:104470000198BDEEC00A10EE101AA0F8701290ED6F
:10448000010AD0ED040A90ED101AF43013F082FD09
:10449000019880ED9D0A5BE040F25030C2F20000CE
:1044A00090F88102012844D102E000BFEC51B83DF0
:1044B00040F25030C2F2000000904168016401688F
:1044C000C16390ED090A9FED261A70EE410A30EEA5
:1044D000011AB8EE000A14F035FB00988DED130AAE
:1044E000016847F69432C2F20002116090ED090AA9
:1044F000D0ED0A0A9DED131A503013F04BFD0098D1
:10450000B0EE401A9FED170A30EE410ABDEEC00A28
:1045100010EE101AA0F8701290ED010AD0ED040A06
:10452000F4309FED111A13F035FD009880ED9D0ACF
:104530000DE040F25031C2F200010868C8634868DB
:1045400008640020A1F87002C1F87402FFE7FFE7D9
:10455000FFE714B080BD00BF7B14AE47E17A74BFA3
:104560000000344300000080000000000000C8C2CA
:104570000000C8420AD7233D0000484240F25030B4
:10458000C2F2000090F88002032809D0FFE740F251
:104590005030C2F2000090F8800202284ED1FFE7AE
:1045A00040F6C400C2F20000C07C012808D0FFE73A
:1045B00040F6C400C2F20000C07A012817D1FFE71C
:1045C00040F63400C2F20000407980B9FFE740F2C3
:1045D0009920C2F200008078C00740B1FFE740F2A6
:1045E0005031C2F20001032081F8810207E040F25D
:1045F0005031C2F20001022081F88102FFE740F64B
:10460000C400C2F20000C07C012808D0FFE740F6D9
:10461000C400C2F20000C07A012807D1FFE740F2CF
:104620003431C2F200010120C87506E040F2343195
:10463000C2F200010020C875FFE719E040F25030D7
:10464000C2F2000090F88002012808D1FFE740F292
:104650005031C2F20001012081F8810207E040F2EE
:104660005031C2F20001002081F88102FFE7FFE72C
:104670007047000081B0009040F60000C2F20000D8
:1046800090ED020A9FED192A80EE020A9FED181A9A
:1046900020EE010A009981ED020A90ED010A80EEF8
:1046A000020A20EE010A009981ED010A90ED000A4C
:1046B00080EE020A20EE010A009880ED000A40F622
:1046C0000C00C2F2000090ED000AB1EE400A009921
:1046D00081ED050A4168009A116190ED020AB1EE80
:1046E000400A009880ED030A01B07047DB0F494093
:1046F0000000344380B540F25030C2F2000090F820
:104700008002032808D0FFE740F25031C2F20001D6
:10471000002081F8820230E008F034F8B7EE001A89
:10472000B4EE410AF1EE10FA16D0FFE707F0ACFB49
:1047300090B9FFE740F25030C2F2000090F88102D9
:10474000032811D1FFE740F29920C2F200008078DF
:104750008007002808D5FFE740F25031C2F200017F
:10476000022081F8820207E040F25031C2F20001DB
:10477000012081F88202FFE7FFE780BD80B586B0A7
:1047800040F62450C2F20000006840F23431C2F218
:1047900000010191C1F8020002A8FFF71DFC019879
:1047A0000299C0F806100399C0F80A100499C0F8DD
:1047B0000E100599C0F8121040F6B001C2F20001C7
:1047C000097881751921012212F056FF06B080BDCB
:1047D00080B582B040F25030C2F200000190243027
:1047E00000F062F8019818300DF0B0FC0198FFF766
:1047F00041FF02B080BD000080B588B084460A98B1
:10480000ADF81EC0ADF81C10ADF81A20ADF8183088
:10481000ADF816009DF81F0040F62402C2F2000217
:1048200090729DF81E00D0729DF81D10104600F881
:10483000081F02909DF81C0050729DF81B0090709C
:104840009DF81A00D0709DF8190090719DF818001D
:10485000D0719DF8170010719DF81600507142F24A
:104860001821C2F20001019100208860C860082070
:1048700008614FF40070086042F20460C2F2000068
:10488000049043F63803C2F20003039300F08CFA5D
:104890000199029A039B049840F2FF1CC1F800C0E2
:1048A00000F082FA08B080BD81B0009042F2AC10F6
:1048B000C2F20000018800EE101AB8EEC00A9FEDA7
:1048C000233A80EE030A9FED221A20EE010A9FEDA3
:1048D000212A30EE020A009981ED000AB0F90200A7
:1048E00000EE100AB8EEC00A009880ED010A40F60A
:1048F0007800C2F20000018800EE101AB8EEC00A7B
:1049000080EE030A20EE010A30EE020A009981EDE2
:10491000020AB0F9020000EE100AB8EEC00A0098D0
:1049200080ED030A40F20830C2F2000090ED030A65
:10493000B2EE092A80EE020A20EE010A009981ED0A
:10494000040A00690099486101B070470000004600
:104950000000B443000034C380B58CB040F2503046
:10496000C2F2000090F8811240F20330C2F200005F
:104970000170007840F20231C2F2000109788842E9
:1049800001D1FFE7E8E040F20330C2F20000007816
:10499000022831D1FFE740F25030C2F20000099006
:1049A000503040F29011C2F2000140F2B412C2F253
:1049B00000029FED6A0A8DED0A0AF3EE0E0ACDEDB4
:1049C0000B0A9FED671ADFED671A13F013FB0998C6
:1049D0009DED0A0ADDED0B0AF43040F26801C2F2E7
:1049E000000140F28C02C2F20002B3EE021AF1EEB4
:1049F000081A13F0FFFAA4E040F20330C2F20000FC
:104A00000078032831D1FFE740F25030C2F20000B5
:104A10000690503040F28411C2F2000140F2A81218
:104A2000C2F200029FED4D0A8DED070AF3EE0E0A69
:104A3000CDED080A9FED4A1ADFED4A1A13F0DAFAB3
:104A400006989DED070ADDED080AF43040F25C019E
:104A5000C2F2000140F28002C2F20002B3EE021A7A
:104A6000F1EE081A13F0C6FA6AE040F20330C2F21F
:104A700000000078012831D1FFE740F25030C2F247
:104A800000000390503040F29C11C2F2000140F24D
:104A9000C012C2F200029FED310A8DED040AF3EE5E
:104AA0000E0ACDED050A9FED2E1ADFED2E1A13F03A
:104AB000A1FA03989DED040ADDED050AF43040F2F9
:104AC0007401C2F2000140F29802C2F20002B3EE99
:104AD000021AF1EE081A13F08DFA30E040F250306D
:104AE000C2F200000090503042F29411C2F2000174
:104AF00042F2A012C2F200029FED180A8DED010AE7
:104B0000F3EE0E0ACDED020A9FED151ADFED151A30
:104B100013F070FA00989DED010ADDED020AF43001
:104B200040F66001C2F2000140F66C02C2F20002DF
:104B3000B3EE021AF1EE081A13F05CFAFFE7FFE792
:104B4000FFE740F20330C2F20000007840F2023189
:104B5000C2F200010870FFE70CB080BD00001644EF
:104B60000060EA4600401C4681B040F63400C2F2C4
:104B700000000078012808D0FFE740F63400C2F2B8
:104B800000004078012811D1FFE740F25030C2F216
:104B9000000090F8800240B1FFE740F25031C2F2CD
:104BA0000001002081F88002FFE7D1E040F63400E8
:104BB000C2F200008079012811D1FFE740F25030A5
:104BC000C2F2000090F8800240B1FFE740F250319D
:104BD000C2F20001002081F88002FFE7B8E040F651
:104BE000C400C2F20000807A01460091012809D079
:104BF000FFE70098022800F08980FFE7009803286B
:104C000042D094E040F25030C2F2000090F88002AE
:104C100078B9FFE740F25031C2F20001012081F87B
:104C2000800242F21831C2F200014FF4FA600860CB
:104C300029E040F25030C2F2000090F880020128D2
:104C400018D1FFE742F21830C2F20000006840B10C
:104C5000FFE742F21831C2F200010868013808602B
:104C600007E040F25031C2F20001032081F88002D7
:104C7000FFE707E040F25031C2F20001032081F863
:104C80008002FFE7FFE763E040F25030C2F200002D
:104C900090F8800278B9FFE740F25031C2F200018B
:104CA000012081F8800242F21831C2F200014FF473
:104CB000FA60086029E040F25030C2F2000090F83B
:104CC0008002012818D1FFE742F21830C2F200003A
:104CD000006840B1FFE742F21831C2F200010868F3
:104CE0000138086007E040F25031C2F200010220B2
:104CF00081F88002FFE707E040F25031C2F2000184
:104D0000022081F88002FFE7FFE721E040F2503007
:104D1000C2F2000090F8800240B1FFE740F250314B
:104D2000C2F20001002081F88002FFE710E040F2AB
:104D30005030C2F2000090F8800240B1FFE740F22C
:104D40005031C2F20001002081F88002FFE7FFE746
:104D500001B0704784B002900191029890F8200051
:104D60008DF803009DF80300012805D0FFE79DF8AA
:104D7000030002280AD1FFE7019A029801684869F6
:104D80001043486100208DF80F0008E00299486A3E
:104D900040F48020486201208DF80F00FFE79DF865
:104DA0000F0004B07047000088B00690059104928F
:104DB0000393069890F820008DF807000698006885
:104DC000806800900598806808B9FFE700E0FFE779
:104DD0009DF80700012806D0FFE79DF8070002288C
:104DE00040F08D80FFE79DF80300400700280CD4B9
:104DF000FFE79DF803000007002806D4FFE79DF8B1
:104E00000300C006002871D5FFE70098C0F30160D9
:104E100002900298032809D3FFE70699486A40F4F4
:104E20000000486201208DF81F0071E00299012006
:104E30008840039908600598806868B9FFE705987D
:104E40000168C06840EA415006990968029A01EB7E
:104E50000211C1F880010EE005994A688868C968A6
:104E600040EAC200084306990968029A01EB021160
:104E7000C1F88001FFE70598006906990968029A60
:104E800001EB0211C1F884010598007D01280CD1C5
:104E9000FFE706980068029900EB0111D1F8840140
:104EA00040F48070C1F88401FFE7049840680699D7
:104EB0000968029A01EB0211C1F88C01049800689C
:104EC00006990968029A01EB0211C1F88801069857
:104ED0000068029900EB0111D1F8800140F0010057
:104EE000C1F8800100208DF81F0011E00699486A82
:104EF00040F40010486201208DF81F0008E0069978
:104F0000486A40F48020486201208DF81F00FFE7C6
:104F10009DF81F0008B0704786B004900391049874
:104F200000680190049890F820008DF803009DF827
:104F30000300012806D0FFE79DF80300022840F097
:104F4000B080FFE746F20040C4F2000001900199F2
:104F5000D1F8000240F00100C1F800020199D1F837
:104F6000000220F47C50C1F800020398426A0199C3
:104F7000D1F8000240EA0220C1F80002039840691B
:104F800000F01F01012088400290029A0199D1F897
:104F90001C029043C1F81C020398C069F0B9FFE7F6
:104FA000029A0199D1F80C029043C1F80C02039ABD
:104FB0009088D168526940EA0140019901EBC20131
:104FC000C1F84002039A10889168526940EA014092
:104FD000019901EBC201C1F84402FFE70398C069DF
:104FE00001281ED1FFE7029A0199D1F80C02104363
:104FF000C1F80C02039A90881168526940EA014096
:10500000019901EBC201C1F84002039A90899168AD
:10501000526940EA0140019901EBC201C1F8440222
:10502000FFE70398806940B9FFE7029A0199D1F838
:1050300004029043C1F8040207E0029A0199D1F8F2
:1050400004021043C1F80402FFE70398006940B965
:10505000FFE7029A0199D1F814029043C1F81402B3
:1050600007E0029A0199D1F814021043C1F8140222
:10507000FFE70398006A012808D1FFE7029A019927
:10508000D1F81C021043C1F81C02FFE70199D1F8C6
:10509000000220F00100C1F8000200208DF8170086
:1050A00008E00499486A40F48020486201208DF8A5
:1050B0001700FFE79DF8170006B0704781B0009019
:1050C00001B0704786B00490039102920193049856
:1050D00090F820008DF803009DF80300012806D009
:1050E000FFE79DF80300022840F0D780FFE7039810
:1050F00080B9FFE704980068C068800748B9FFE7F7
:105100000499486A40F40010486201208DF81700A5
:10511000CCE00FE0049800680069800748B9FFE719
:105120000499486A40F40010486201208DF8170085
:10513000BCE0FFE704980068039900EB0110D0F889
:10514000B00100F00400029988600298806858B9A4
:10515000FFE704980068039900EB0110D0F8B00154
:10516000400D029908600AE004980068039900EB7A
:105170000110D0F8B001C00802994860FFE7049818
:105180000068039900EB0110D0F8B00100F00200B4
:105190000299C86004980068039900EB0110D0F8E8
:1051A000B40100F00F0002990861049800680399A7
:1051B00000EB0110D0F8B40180B2000A02998861B6
:1051C00004980068039900EB0110D0F8B401000CBA
:1051D0000299486104980068039900EB0110D0F827
:1051E000B8010199087004980068039900EB011058
:1051F000D0F8B801000A0199487004980068039932
:1052000000EB0110D0F8B801000C019988700498E7
:105210000068039900EB0110D0F8B801000E019965
:10522000C87004980068039900EB0110D0F8BC0125
:105230000199087104980068039900EB0110D0F8F7
:10524000BC01000A0199487104980068039900EBB9
:105250000110D0F8BC01000C019988710498006815
:10526000039900EB0110D0F8BC01000E0199C87140
:10527000039838B9FFE704980168C86840F0200037
:10528000C86006E004980168086940F020000861E1
:10529000FFE700208DF8170008E00499486A40F401
:1052A0008020486201208DF81700FFE79DF8170065
:1052B00006B0704780B58AB0099000200890099820
:1052C000006840690790099800684068069009984E
:1052D00000688068059009980068C0680490099883
:1052E00000680069039009980068806902909DF841
:1052F0001C00C007002800F09480FFE79DF8140010
:10530000C00758B3FFE709980168012088609DF83D
:1053100014008007002804D5FFE7099800F02EFC50
:105320001BE09DF814004007002805D5FFE708980A
:1053300040F4006008900FE09DF81400000700287A
:1053400005D5FFE7089840F48050089003E00998DD
:1053500000F010FCFFE7FFE7FFE7FFE79DF815000F
:10536000C00760B3FFE7099801684FF48070886058
:105370009DF815008007002804D5FFE7099800F084
:1053800005FC1BE09DF815004007002805D5FFE748
:10539000089840F4005008900FE09DF815000007B1
:1053A000002805D5FFE7089840F48040089003E006
:1053B000099800F0E7FBFFE7FFE7FFE7FFE79DF84D
:1053C0001600C00760B3FFE7099801684FF480300A
:1053D00088609DF816008007002804D5FFE709982B
:1053E00000F0DCFB1BE09DF816004007002805D507
:1053F000FFE7089840F4004008900FE09DF8160081
:105400000007002805D5FFE7089840F48030089091
:1054100003E0099800F0BEFBFFE7FFE7FFE7FFE7C7
:10542000FFE79DF81C000007002810D5FFE79DF856
:105430001000C006002809D5FFE7089840F4007066
:105440000890099801681020C860FFE7FFE79DF801
:105450001C00400700280FD5FFE79DF8100000074B
:10546000002808D5FFE7099801680820C860099856
:1054700000F0CCFAFFE7FFE79DF81C00800700284A
:105480000BD5FFE709980068C068800720B1FFE7E7
:10549000099800F0BFFAFFE7FFE79DF81C004006FF
:1054A000002810D5FFE79DF80C00C006002809D59C
:1054B000FFE7089840F48060089009980168102080
:1054C0000861FFE7FFE79DF81C00800600280FD564
:1054D000FFE79DF80C000007002808D5FFE70998B2
:1054E000016808200861099800F0F2FAFFE7FFE779
:1054F0009DF81C00C00600280BD5FFE7099800683E
:105500000069800720B1FFE7099800F0E5FAFFE79E
:10551000FFE79DF81E00800700280FD5FFE79DF8E4
:105520001800C006002808D5FFE709980168102078
:105530004860099800F0D4FAFFE7FFE79DF81E00E5
:10554000C00778B1FFE79DF818000007002808D5CC
:10555000FFE70998016808204860099800F022FBDD
:10556000FFE7FFE79DF81D000006002840F18D8051
:10557000FFE79DF818004007002840F18180FFE711
:105580009DF81D00C00750B1FFE79DF80800C00757
:1055900028B1FFE7089840F001000890FFE79DF868
:1055A0001D00800700280BD5FFE79DF80800800745
:1055B000002805D5FFE7089840F002000890FFE7B3
:1055C0009DF81D00400700280BD5FFE79DF8080057
:1055D0004007002805D5FFE7089840F00400089030
:1055E000FFE79DF81D000007002848D5FFE79DF85C
:1055F000080010F0700F42D0FFE7029800F0700032
:1056000001460191102814D0FFE70198202815D0F9
:10561000FFE70198302816D0FFE70198402817D0FF
:10562000FFE70198502818D0FFE70198602819D0AB
:105630001DE0089840F00800089019E0089840F034
:105640001000089014E0089840F0200008900FE047
:10565000089840F0400008900AE0089840F0800068
:10566000089005E0089840F48070089000E0FFE79B
:1056700009980168886920F070008861FFE7FFE7FA
:105680000998016804204860FFE7089848B1FFE7DF
:10569000089A0999486A104348620998FFF70EFD75
:1056A000FFE70AB080BD000080B584B00290029888
:1056B00020B9FFE701208DF80F00E0E0029890F894
:1056C000200020B9FFE7029800F0DEF8FFE702981B
:1056D0000168086840F00100086000F021FF0190B7
:1056E000FFE7029800684068C007A8B9FFE700F02C
:1056F00017FF0199401A0B280DD3FFE70299486A5A
:1057000040F4003048620299052081F82000012011
:105710008DF80F00B3E0E4E702980168086820F014
:105720000200086000F0FCFE0190FFE702980068AC
:1057300040688007002815D5FFE700F0F1FE0199C9
:10574000401A0B280DD3FFE70299486A40F4003055
:1057500048620299052081F8200001208DF80F0091
:105760008DE0E3E70298007E012807D1FFE7029869
:105770000168086840F08000086006E0029801684F
:10578000086820F080000860FFE70298407E01284A
:1057900007D1FFE702980168086840F04000086000
:1057A00006E002980168086820F040000860FFE702
:1057B0000298807E012807D1FFE7029801680868F7
:1057C00040F02000086006E002980168086820F0B8
:1057D00020000860FFE70298C07E012807D1FFE79C
:1057E00002980168086820F01000086006E002983E
:1057F0000168086840F010000860FFE70298007F29
:10580000012807D1FFE702980168086840F0080006
:10581000086006E002980168086820F00800086047
:10582000FFE70298407F012807D1FFE7029801684F
:10583000086840F00400086006E002980168086803
:1058400020F004000860FFE7029B19685A68986816
:10585000D3F80CC040EA0C00D3F810C040EA0C00AA
:105860005B691843013A1043C861029900204862FD
:10587000029A012182F820108DF80F00FFE79DF8B1
:105880000F0004B080BD000080B590B00F900020E4
:105890000E900D900C900B900A900F98006846F2B5
:1058A0000041C4F20001884249D1FFE740F2FC7098
:1058B000C2F200000168013101600068012812D1C4
:1058C000FFE7FFE70020099043F64000C4F2020022
:1058D000016841F000710160006800F000700990FB
:1058E0000998FFE7FFE7FFE70020089043F6300044
:1058F000C4F20200016841F008010160006800F094
:10590000080008900898FFE703200A9002210B91F5
:10591000002103910C910D9009200E9040F600405B
:10592000C4F202000AA900F007FC039A14200490B4
:10593000052101F06DF8049801F060F864E00F981B
:10594000006846F60001C4F2000188425BD1FFE71F
:10595000FFE70020079043F64000C4F20200016810
:1059600041F080610160006800F080600790079856
:10597000FFE740F2FC70C2F20000016801310160F3
:105980000068012812D1FFE7FFE70020069043F6E8
:105990004000C4F20200016841F00071016000683B
:1059A00000F0007006900698FFE7FFE7FFE7002091
:1059B000059043F63000C4F20200016841F0020194
:1059C0000160006800F0020005900598FFE7602084
:1059D0000A9002200B90002001900C9003200D9063
:1059E00009200E9040F20040C4F202000AA900F023
:1059F000A3FB019A40200290052101F009F80298CA
:105A000000F0FCFFFFE7FFE710B080BD81B0009021
:105A100001B0704780B58CB00B900B98002104AAA0
:105A200002ABFFF74FFB0498019001282DD0FFE750
:105A3000019840F2022188422FD0FFE7019840F2FE
:105A40000321884239D0FFE70198B0F5017F2CD0BF
:105A5000FFE7019840F2052188420ED0FFE7019848
:105A600040F20621884230D1FFE711F021FE049870
:105A70000B9902AA06F006F928E006F0BBFD04988F
:105A80000B9902AA06F0FEF820E006F0B3FD049898
:105A90000B9902AA06F0F6F818E006F003FF049846
:105AA0000B9902AA06F0EEF810E0FBF719FF049834
:105AB0000B9902AA06F0E6F808E0FBF747FF049806
:105AC0000B9902AA06F0DEF800E0FFE70CB080BDFB
:105AD00081B0009001B0704781B0009001B0704774
